{
  "contractName": "Ndu",
  "abi": [
    {
      "inputs": [],
      "stateMutability": "nonpayable",
      "type": "constructor"
    },
    {
      "anonymous": false,
      "inputs": [
        {
          "indexed": true,
          "internalType": "address",
          "name": "previousOwner",
          "type": "address"
        },
        {
          "indexed": true,
          "internalType": "address",
          "name": "newOwner",
          "type": "address"
        }
      ],
      "name": "OwnershipTransferred",
      "type": "event"
    },
    {
      "anonymous": false,
      "inputs": [
        {
          "indexed": false,
          "internalType": "string",
          "name": "serialNumber",
          "type": "string"
        },
        {
          "indexed": false,
          "internalType": "string",
          "name": "companyDetails",
          "type": "string"
        },
        {
          "indexed": false,
          "internalType": "string",
          "name": "DrugDetails",
          "type": "string"
        }
      ],
      "name": "Scanned",
      "type": "event"
    },
    {
      "inputs": [],
      "name": "balance",
      "outputs": [
        {
          "internalType": "uint256",
          "name": "",
          "type": "uint256"
        }
      ],
      "stateMutability": "view",
      "type": "function",
      "constant": true
    },
    {
      "inputs": [
        {
          "internalType": "uint256",
          "name": "",
          "type": "uint256"
        }
      ],
      "name": "companyId",
      "outputs": [
        {
          "internalType": "uint256",
          "name": "id",
          "type": "uint256"
        },
        {
          "internalType": "string",
          "name": "Name",
          "type": "string"
        },
        {
          "internalType": "string",
          "name": "ISOnumber",
          "type": "string"
        },
        {
          "internalType": "string",
          "name": "ipfsHashOfCompanyDetails",
          "type": "string"
        }
      ],
      "stateMutability": "view",
      "type": "function",
      "constant": true
    },
    {
      "inputs": [
        {
          "internalType": "string",
          "name": "",
          "type": "string"
        }
      ],
      "name": "drugDetails",
      "outputs": [
        {
          "internalType": "string",
          "name": "ipfsHashOfDrugDetails",
          "type": "string"
        }
      ],
      "stateMutability": "view",
      "type": "function",
      "constant": true
    },
    {
      "inputs": [
        {
          "internalType": "string",
          "name": "",
          "type": "string"
        }
      ],
      "name": "drugProduced",
      "outputs": [
        {
          "internalType": "uint256",
          "name": "id",
          "type": "uint256"
        },
        {
          "internalType": "string",
          "name": "Name",
          "type": "string"
        },
        {
          "internalType": "string",
          "name": "ISOnumber",
          "type": "string"
        },
        {
          "internalType": "string",
          "name": "ipfsHashOfCompanyDetails",
          "type": "string"
        }
      ],
      "stateMutability": "view",
      "type": "function",
      "constant": true
    },
    {
      "inputs": [],
      "name": "owner",
      "outputs": [
        {
          "internalType": "address",
          "name": "",
          "type": "address"
        }
      ],
      "stateMutability": "view",
      "type": "function",
      "constant": true
    },
    {
      "inputs": [],
      "name": "registerContract",
      "outputs": [
        {
          "internalType": "address",
          "name": "",
          "type": "address"
        }
      ],
      "stateMutability": "view",
      "type": "function",
      "constant": true
    },
    {
      "inputs": [
        {
          "internalType": "uint256",
          "name": "",
          "type": "uint256"
        }
      ],
      "name": "registerdCompanies",
      "outputs": [
        {
          "internalType": "uint256",
          "name": "id",
          "type": "uint256"
        },
        {
          "internalType": "string",
          "name": "Name",
          "type": "string"
        },
        {
          "internalType": "string",
          "name": "ISOnumber",
          "type": "string"
        },
        {
          "internalType": "string",
          "name": "ipfsHashOfCompanyDetails",
          "type": "string"
        }
      ],
      "stateMutability": "view",
      "type": "function",
      "constant": true
    },
    {
      "inputs": [],
      "name": "renounceOwnership",
      "outputs": [],
      "stateMutability": "nonpayable",
      "type": "function"
    },
    {
      "inputs": [
        {
          "internalType": "string",
          "name": "",
          "type": "string"
        }
      ],
      "name": "serialScanned",
      "outputs": [
        {
          "internalType": "bool",
          "name": "",
          "type": "bool"
        }
      ],
      "stateMutability": "view",
      "type": "function",
      "constant": true
    },
    {
      "inputs": [
        {
          "internalType": "string",
          "name": "",
          "type": "string"
        }
      ],
      "name": "storedSerial",
      "outputs": [
        {
          "internalType": "bool",
          "name": "",
          "type": "bool"
        }
      ],
      "stateMutability": "view",
      "type": "function",
      "constant": true
    },
    {
      "inputs": [
        {
          "internalType": "address",
          "name": "newOwner",
          "type": "address"
        }
      ],
      "name": "transferOwnership",
      "outputs": [],
      "stateMutability": "nonpayable",
      "type": "function"
    },
    {
      "inputs": [
        {
          "internalType": "uint256",
          "name": "_id",
          "type": "uint256"
        },
        {
          "internalType": "string",
          "name": "_name",
          "type": "string"
        },
        {
          "internalType": "string",
          "name": "_isonumber",
          "type": "string"
        },
        {
          "internalType": "string",
          "name": "_ipfsHashOfCompanyDetails",
          "type": "string"
        }
      ],
      "name": "register",
      "outputs": [],
      "stateMutability": "nonpayable",
      "type": "function"
    },
    {
      "inputs": [
        {
          "internalType": "uint256",
          "name": "_id",
          "type": "uint256"
        },
        {
          "internalType": "string[]",
          "name": "_serialNumbers",
          "type": "string[]"
        },
        {
          "internalType": "string",
          "name": "_ipfsHashOfDrugDetails",
          "type": "string"
        }
      ],
      "name": "registerSerial",
      "outputs": [],
      "stateMutability": "nonpayable",
      "type": "function"
    },
    {
      "inputs": [
        {
          "internalType": "string",
          "name": "_serialNumber",
          "type": "string"
        }
      ],
      "name": "scanProduct",
      "outputs": [
        {
          "components": [
            {
              "internalType": "uint256",
              "name": "id",
              "type": "uint256"
            },
            {
              "internalType": "string",
              "name": "Name",
              "type": "string"
            },
            {
              "internalType": "string",
              "name": "ISOnumber",
              "type": "string"
            },
            {
              "internalType": "string",
              "name": "ipfsHashOfCompanyDetails",
              "type": "string"
            }
          ],
          "internalType": "struct Ndu.Company",
          "name": "",
          "type": "tuple"
        },
        {
          "components": [
            {
              "internalType": "string",
              "name": "ipfsHashOfDrugDetails",
              "type": "string"
            },
            {
              "internalType": "string[]",
              "name": "serialNumbers",
              "type": "string[]"
            }
          ],
          "internalType": "struct Ndu.Drug",
          "name": "",
          "type": "tuple"
        }
      ],
      "stateMutability": "nonpayable",
      "type": "function"
    },
    {
      "inputs": [
        {
          "internalType": "string",
          "name": "_serialNumber",
          "type": "string"
        }
      ],
      "name": "checkStatus",
      "outputs": [],
      "stateMutability": "view",
      "type": "function",
      "constant": true
    },
    {
      "inputs": [
        {
          "internalType": "address",
          "name": "_newAdmin",
          "type": "address"
        }
      ],
      "name": "setAdmin",
      "outputs": [],
      "stateMutability": "nonpayable",
      "type": "function"
    },
    {
      "inputs": [
        {
          "internalType": "address",
          "name": "_registerContract",
          "type": "address"
        }
      ],
      "name": "setRegisterContract",
      "outputs": [],
      "stateMutability": "nonpayable",
      "type": "function"
    }
  ],
  "bytecode": "0x60806040523480156200001157600080fd5b5062000032620000266200007960201b60201c565b6200008160201b60201c565b33600260006101000a81548173ffffffffffffffffffffffffffffffffffffffff021916908373ffffffffffffffffffffffffffffffffffffffff16021790555062000145565b600033905090565b60008060009054906101000a900473ffffffffffffffffffffffffffffffffffffffff169050816000806101000a81548173ffffffffffffffffffffffffffffffffffffffff021916908373ffffffffffffffffffffffffffffffffffffffff1602179055508173ffffffffffffffffffffffffffffffffffffffff168173ffffffffffffffffffffffffffffffffffffffff167f8be0079c531659141344cd1fd0a4f28419497f9722a3daafe3b4186f6b6457e060405160405180910390a35050565b6126d680620001556000396000f3fe608060405234801561001057600080fd5b506004361061010b5760003560e01c80637feffff3116100a2578063b98709c511610071578063b98709c5146102aa578063c10b15e7146102dd578063e150a2e81461030d578063f2fde38b14610329578063f7e7ce4d146103455761010b565b80637feffff3146102345780638da5cb5b146102525780639b49cef514610270578063b69ef8a81461028c5761010b565b80633d59a0e2116100de5780633d59a0e2146101d657806344b0a995146101f2578063704b6c021461020e578063715018a61461022a5761010b565b80630b3ef19a146101105780631c771579146101435780631f45a6d11461017657806320e97dc7146101a6575b600080fd5b61012a60048036038101906101259190611c94565b610376565b60405161013a9493929190612377565b60405180910390f35b61015d60048036038101906101589190611c94565b61053e565b60405161016d9493929190612377565b60405180910390f35b610190600480360381019061018b9190611c53565b610716565b60405161019d91906121dc565b60405180910390f35b6101c060048036038101906101bb9190611c53565b61074c565b6040516101cd91906121f7565b60405180910390f35b6101f060048036038101906101eb9190611d3c565b610808565b005b61020c60048036038101906102079190611c53565b6109e5565b005b61022860048036038101906102239190611c2a565b610abf565b005b610232610b93565b005b61023c610c1b565b60405161024991906121c1565b60405180910390f35b61025a610c41565b60405161026791906121c1565b60405180910390f35b61028a60048036038101906102859190611cbd565b610c6a565b005b610294610f2a565b6040516102a1919061235c565b60405180910390f35b6102c460048036038101906102bf9190611c53565b610f30565b6040516102d49493929190612377565b60405180910390f35b6102f760048036038101906102f29190611c53565b61110e565b60405161030491906121dc565b60405180910390f35b61032760048036038101906103229190611c2a565b611144565b005b610343600480360381019061033e9190611c2a565b611218565b005b61035f600480360381019061035a9190611c53565b611310565b60405161036d929190612325565b60405180910390f35b600660205280600052604060002060009150905080600001549080600101805461039f90612559565b80601f01602080910402602001604051908101604052809291908181526020018280546103cb90612559565b80156104185780601f106103ed57610100808354040283529160200191610418565b820191906000526020600020905b8154815290600101906020018083116103fb57829003601f168201915b50505050509080600201805461042d90612559565b80601f016020809104026020016040519081016040528092919081815260200182805461045990612559565b80156104a65780601f1061047b576101008083540402835291602001916104a6565b820191906000526020600020905b81548152906001019060200180831161048957829003601f168201915b5050505050908060030180546104bb90612559565b80601f01602080910402602001604051908101604052809291908181526020018280546104e790612559565b80156105345780601f1061050957610100808354040283529160200191610534565b820191906000526020600020905b81548152906001019060200180831161051757829003601f168201915b5050505050905084565b6005818154811061054e57600080fd5b906000526020600020906004020160009150905080600001549080600101805461057790612559565b80601f01602080910402602001604051908101604052809291908181526020018280546105a390612559565b80156105f05780601f106105c5576101008083540402835291602001916105f0565b820191906000526020600020905b8154815290600101906020018083116105d357829003601f168201915b50505050509080600201805461060590612559565b80601f016020809104026020016040519081016040528092919081815260200182805461063190612559565b801561067e5780601f106106535761010080835404028352916020019161067e565b820191906000526020600020905b81548152906001019060200180831161066157829003601f168201915b50505050509080600301805461069390612559565b80601f01602080910402602001604051908101604052809291908181526020018280546106bf90612559565b801561070c5780601f106106e15761010080835404028352916020019161070c565b820191906000526020600020905b8154815290600101906020018083116106ef57829003601f168201915b5050505050905084565b6007818051602081018201805184825260208301602085012081835280955050505050506000915054906101000a900460ff1681565b600a8180516020810182018051848252602083016020850120818352809550505050505060009150905080600001805461078590612559565b80601f01602080910402602001604051908101604052809291908181526020018280546107b190612559565b80156107fe5780601f106107d3576101008083540402835291602001916107fe565b820191906000526020600020905b8154815290600101906020018083116107e157829003601f168201915b5050505050905081565b600360009054906101000a900473ffffffffffffffffffffffffffffffffffffffff1673ffffffffffffffffffffffffffffffffffffffff163373ffffffffffffffffffffffffffffffffffffffff1614610898576040517f08c379a000000000000000000000000000000000000000000000000000000000815260040161088f906122a5565b60405180910390fd5b604051806080016040528085815260200184815260200183815260200182815250600660008681526020019081526020016000206000820151816000015560208201518160010190805190602001906108f29291906118db565b50604082015181600201908051906020019061090f9291906118db565b50606082015181600301908051906020019061092c9291906118db565b50905050600560405180608001604052808681526020018581526020018481526020018381525090806001815401808255809150506001900390600052602060002090600402016000909190919091506000820151816000015560208201518160010190805190602001906109a29291906118db565b5060408201518160020190805190602001906109bf9291906118db565b5060608201518160030190805190602001906109dc9291906118db565b50505050505050565b6007816040516109f591906121aa565b908152602001604051809103902060009054906101000a900460ff16610a50576040517f08c379a0000000000000000000000000000000000000000000000000000000008152600401610a4790612285565b60405180910390fd5b600981604051610a6091906121aa565b908152602001604051809103902060009054906101000a900460ff1615610abc576040517f08c379a0000000000000000000000000000000000000000000000000000000008152600401610ab3906122e5565b60405180910390fd5b50565b600260009054906101000a900473ffffffffffffffffffffffffffffffffffffffff1673ffffffffffffffffffffffffffffffffffffffff163373ffffffffffffffffffffffffffffffffffffffff1614610b4f576040517f08c379a0000000000000000000000000000000000000000000000000000000008152600401610b46906122c5565b60405180910390fd5b80600260006101000a81548173ffffffffffffffffffffffffffffffffffffffff021916908373ffffffffffffffffffffffffffffffffffffffff16021790555050565b610b9b6117d5565b73ffffffffffffffffffffffffffffffffffffffff16610bb9610c41565b73ffffffffffffffffffffffffffffffffffffffff1614610c0f576040517f08c379a0000000000000000000000000000000000000000000000000000000008152600401610c0690612305565b60405180910390fd5b610c1960006117dd565b565b600360009054906101000a900473ffffffffffffffffffffffffffffffffffffffff1681565b60008060009054906101000a900473ffffffffffffffffffffffffffffffffffffffff16905090565b600360009054906101000a900473ffffffffffffffffffffffffffffffffffffffff1673ffffffffffffffffffffffffffffffffffffffff163373ffffffffffffffffffffffffffffffffffffffff1614610cfa576040517f08c379a0000000000000000000000000000000000000000000000000000000008152600401610cf1906122a5565b60405180910390fd5b60005b8251811015610f24576000600660008681526020019081526020016000209050806008858481518110610d59577f4e487b7100000000000000000000000000000000000000000000000000000000600052603260045260246000fd5b6020026020010151604051610d6e91906121aa565b9081526020016040518091039020600082015481600001556001820181600101908054610d9a90612559565b610da5929190611961565b506002820181600201908054610dba90612559565b610dc5929190611961565b506003820181600301908054610dda90612559565b610de5929190611961565b50905050604051806040016040528084815260200185815250600a858481518110610e39577f4e487b7100000000000000000000000000000000000000000000000000000000600052603260045260246000fd5b6020026020010151604051610e4e91906121aa565b90815260200160405180910390206000820151816000019080519060200190610e789291906118db565b506020820151816001019080519060200190610e959291906119ee565b5090505060016007858481518110610ed6577f4e487b7100000000000000000000000000000000000000000000000000000000600052603260045260246000fd5b6020026020010151604051610eeb91906121aa565b908152602001604051809103902060006101000a81548160ff021916908315150217905550508080610f1c9061258b565b915050610cfd565b50505050565b60045481565b600881805160208101820180518482526020830160208501208183528095505050505050600091509050806000015490806001018054610f6f90612559565b80601f0160208091040260200160405190810160405280929190818152602001828054610f9b90612559565b8015610fe85780601f10610fbd57610100808354040283529160200191610fe8565b820191906000526020600020905b815481529060010190602001808311610fcb57829003601f168201915b505050505090806002018054610ffd90612559565b80601f016020809104026020016040519081016040528092919081815260200182805461102990612559565b80156110765780601f1061104b57610100808354040283529160200191611076565b820191906000526020600020905b81548152906001019060200180831161105957829003601f168201915b50505050509080600301805461108b90612559565b80601f01602080910402602001604051908101604052809291908181526020018280546110b790612559565b80156111045780601f106110d957610100808354040283529160200191611104565b820191906000526020600020905b8154815290600101906020018083116110e757829003601f168201915b5050505050905084565b6009818051602081018201805184825260208301602085012081835280955050505050506000915054906101000a900460ff1681565b600260009054906101000a900473ffffffffffffffffffffffffffffffffffffffff1673ffffffffffffffffffffffffffffffffffffffff163373ffffffffffffffffffffffffffffffffffffffff16146111d4576040517f08c379a00000000000000000000000000000000000000000000000000000000081526004016111cb906122c5565b60405180910390fd5b80600360006101000a81548173ffffffffffffffffffffffffffffffffffffffff021916908373ffffffffffffffffffffffffffffffffffffffff16021790555050565b6112206117d5565b73ffffffffffffffffffffffffffffffffffffffff1661123e610c41565b73ffffffffffffffffffffffffffffffffffffffff1614611294576040517f08c379a000000000000000000000000000000000000000000000000000000000815260040161128b90612305565b60405180910390fd5b600073ffffffffffffffffffffffffffffffffffffffff168173ffffffffffffffffffffffffffffffffffffffff161415611304576040517f08c379a00000000000000000000000000000000000000000000000000000000081526004016112fb90612265565b60405180910390fd5b61130d816117dd565b50565b611318611a4e565b611320611a76565b60078360405161133091906121aa565b908152602001604051809103902060009054906101000a900460ff1661138b576040517f08c379a000000000000000000000000000000000000000000000000000000000815260040161138290612285565b60405180910390fd5b60098360405161139b91906121aa565b908152602001604051809103902060009054906101000a900460ff16156113f7576040517f08c379a00000000000000000000000000000000000000000000000000000000081526004016113ee906122e5565b60405180910390fd5b600060088460405161140991906121aa565b90815260200160405180910390206040518060800160405290816000820154815260200160018201805461143c90612559565b80601f016020809104026020016040519081016040528092919081815260200182805461146890612559565b80156114b55780601f1061148a576101008083540402835291602001916114b5565b820191906000526020600020905b81548152906001019060200180831161149857829003601f168201915b505050505081526020016002820180546114ce90612559565b80601f01602080910402602001604051908101604052809291908181526020018280546114fa90612559565b80156115475780601f1061151c57610100808354040283529160200191611547565b820191906000526020600020905b81548152906001019060200180831161152a57829003601f168201915b5050505050815260200160038201805461156090612559565b80601f016020809104026020016040519081016040528092919081815260200182805461158c90612559565b80156115d95780601f106115ae576101008083540402835291602001916115d9565b820191906000526020600020905b8154815290600101906020018083116115bc57829003601f168201915b50505050508152505090506000600a856040516115f691906121aa565b908152602001604051809103902060405180604001604052908160008201805461161f90612559565b80601f016020809104026020016040519081016040528092919081815260200182805461164b90612559565b80156116985780601f1061166d57610100808354040283529160200191611698565b820191906000526020600020905b81548152906001019060200180831161167b57829003601f168201915b5050505050815260200160018201805480602002602001604051908101604052809291908181526020016000905b828210156117725783829060005260206000200180546116e590612559565b80601f016020809104026020016040519081016040528092919081815260200182805461171190612559565b801561175e5780601f106117335761010080835404028352916020019161175e565b820191906000526020600020905b81548152906001019060200180831161174157829003601f168201915b5050505050815260200190600101906116c6565b50505050815250509050611785856118a1565b7f295f0b6190822d4ea9023a4638aeb3dfdbf3ca1dc2d3b001548b03983845288485836060015183600001516040516117c093929190612219565b60405180910390a18181935093505050915091565b600033905090565b60008060009054906101000a900473ffffffffffffffffffffffffffffffffffffffff169050816000806101000a81548173ffffffffffffffffffffffffffffffffffffffff021916908373ffffffffffffffffffffffffffffffffffffffff1602179055508173ffffffffffffffffffffffffffffffffffffffff168173ffffffffffffffffffffffffffffffffffffffff167f8be0079c531659141344cd1fd0a4f28419497f9722a3daafe3b4186f6b6457e060405160405180910390a35050565b60016009826040516118b391906121aa565b908152602001604051809103902060006101000a81548160ff02191690831515021790555050565b8280546118e790612559565b90600052602060002090601f0160209004810192826119095760008555611950565b82601f1061192257805160ff1916838001178555611950565b82800160010185558215611950579182015b8281111561194f578251825591602001919060010190611934565b5b50905061195d9190611a90565b5090565b82805461196d90612559565b90600052602060002090601f01602090048101928261198f57600085556119dd565b82601f106119a057805485556119dd565b828001600101855582156119dd57600052602060002091601f016020900482015b828111156119dc5782548255916001019190600101906119c1565b5b5090506119ea9190611a90565b5090565b828054828255906000526020600020908101928215611a3d579160200282015b82811115611a3c578251829080519060200190611a2c9291906118db565b5091602001919060010190611a0e565b5b509050611a4a9190611aad565b5090565b6040518060800160405280600081526020016060815260200160608152602001606081525090565b604051806040016040528060608152602001606081525090565b5b80821115611aa9576000816000905550600101611a91565b5090565b5b80821115611acd5760008181611ac49190611ad1565b50600101611aae565b5090565b508054611add90612559565b6000825580601f10611aef5750611b0e565b601f016020900490600052602060002090810190611b0d9190611a90565b5b50565b6000611b24611b1f84612402565b6123d1565b9050808382526020820190508260005b85811015611b645781358501611b4a8882611beb565b845260208401935060208301925050600181019050611b34565b5050509392505050565b6000611b81611b7c8461242e565b6123d1565b905082815260208101848484011115611b9957600080fd5b611ba4848285612517565b509392505050565b600081359050611bbb81612672565b92915050565b600082601f830112611bd257600080fd5b8135611be2848260208601611b11565b91505092915050565b600082601f830112611bfc57600080fd5b8135611c0c848260208601611b6e565b91505092915050565b600081359050611c2481612689565b92915050565b600060208284031215611c3c57600080fd5b6000611c4a84828501611bac565b91505092915050565b600060208284031215611c6557600080fd5b600082013567ffffffffffffffff811115611c7f57600080fd5b611c8b84828501611beb565b91505092915050565b600060208284031215611ca657600080fd5b6000611cb484828501611c15565b91505092915050565b600080600060608486031215611cd257600080fd5b6000611ce086828701611c15565b935050602084013567ffffffffffffffff811115611cfd57600080fd5b611d0986828701611bc1565b925050604084013567ffffffffffffffff811115611d2657600080fd5b611d3286828701611beb565b9150509250925092565b60008060008060808587031215611d5257600080fd5b6000611d6087828801611c15565b945050602085013567ffffffffffffffff811115611d7d57600080fd5b611d8987828801611beb565b935050604085013567ffffffffffffffff811115611da657600080fd5b611db287828801611beb565b925050606085013567ffffffffffffffff811115611dcf57600080fd5b611ddb87828801611beb565b91505092959194509250565b6000611df38383611e8e565b905092915050565b611e04816124cf565b82525050565b6000611e158261246e565b611e1f8185612491565b935083602082028501611e318561245e565b8060005b85811015611e6d5784840389528151611e4e8582611de7565b9450611e5983612484565b925060208a01995050600181019050611e35565b50829750879550505050505092915050565b611e88816124e1565b82525050565b6000611e9982612479565b611ea381856124a2565b9350611eb3818560208601612526565b611ebc81612661565b840191505092915050565b6000611ed282612479565b611edc81856124b3565b9350611eec818560208601612526565b611ef581612661565b840191505092915050565b6000611f0b82612479565b611f1581856124c4565b9350611f25818560208601612526565b80840191505092915050565b6000611f3e6026836124b3565b91507f4f776e61626c653a206e6577206f776e657220697320746865207a65726f206160008301527f64647265737300000000000000000000000000000000000000000000000000006020830152604082019050919050565b6000611fa46016836124b3565b91507f73657269616c206e6f74207265676973746572656420000000000000000000006000830152602082019050919050565b6000611fe4601f836124b3565b91507f4f6e6c7920526567697374657220436f6e74726163742063616e2063616c6c006000830152602082019050919050565b60006120246013836124b3565b91507f6f6e6c792061646d696e2063616e2063616c6c000000000000000000000000006000830152602082019050919050565b60006120646015836124b3565b91507f6472756720686173206265656e207363616e6e656400000000000000000000006000830152602082019050919050565b60006120a46020836124b3565b91507f4f776e61626c653a2063616c6c6572206973206e6f7420746865206f776e65726000830152602082019050919050565b60006080830160008301516120ef600086018261218c565b50602083015184820360208601526121078282611e8e565b915050604083015184820360408601526121218282611e8e565b9150506060830151848203606086015261213b8282611e8e565b9150508091505092915050565b600060408301600083015184820360008601526121658282611e8e565b9150506020830151848203602086015261217f8282611e0a565b9150508091505092915050565b6121958161250d565b82525050565b6121a48161250d565b82525050565b60006121b68284611f00565b915081905092915050565b60006020820190506121d66000830184611dfb565b92915050565b60006020820190506121f16000830184611e7f565b92915050565b600060208201905081810360008301526122118184611ec7565b905092915050565b600060608201905081810360008301526122338186611ec7565b905081810360208301526122478185611ec7565b9050818103604083015261225b8184611ec7565b9050949350505050565b6000602082019050818103600083015261227e81611f31565b9050919050565b6000602082019050818103600083015261229e81611f97565b9050919050565b600060208201905081810360008301526122be81611fd7565b9050919050565b600060208201905081810360008301526122de81612017565b9050919050565b600060208201905081810360008301526122fe81612057565b9050919050565b6000602082019050818103600083015261231e81612097565b9050919050565b6000604082019050818103600083015261233f81856120d7565b905081810360208301526123538184612148565b90509392505050565b6000602082019050612371600083018461219b565b92915050565b600060808201905061238c600083018761219b565b818103602083015261239e8186611ec7565b905081810360408301526123b28185611ec7565b905081810360608301526123c68184611ec7565b905095945050505050565b6000604051905081810181811067ffffffffffffffff821117156123f8576123f7612632565b5b8060405250919050565b600067ffffffffffffffff82111561241d5761241c612632565b5b602082029050602081019050919050565b600067ffffffffffffffff82111561244957612448612632565b5b601f19601f8301169050602081019050919050565b6000819050602082019050919050565b600081519050919050565b600081519050919050565b6000602082019050919050565b600082825260208201905092915050565b600082825260208201905092915050565b600082825260208201905092915050565b600081905092915050565b60006124da826124ed565b9050919050565b60008115159050919050565b600073ffffffffffffffffffffffffffffffffffffffff82169050919050565b6000819050919050565b82818337600083830152505050565b60005b83811015612544578082015181840152602081019050612529565b83811115612553576000848401525b50505050565b6000600282049050600182168061257157607f821691505b6020821081141561258557612584612603565b5b50919050565b60006125968261250d565b91507fffffffffffffffffffffffffffffffffffffffffffffffffffffffffffffffff8214156125c9576125c86125d4565b5b600182019050919050565b7f4e487b7100000000000000000000000000000000000000000000000000000000600052601160045260246000fd5b7f4e487b7100000000000000000000000000000000000000000000000000000000600052602260045260246000fd5b7f4e487b7100000000000000000000000000000000000000000000000000000000600052604160045260246000fd5b6000601f19601f8301169050919050565b61267b816124cf565b811461268657600080fd5b50565b6126928161250d565b811461269d57600080fd5b5056fea2646970667358221220f3c2dd3dd31cb02be3362ab7fdb7c105234f75fe349ee28c76c66fbe5e6206bd64736f6c63430008000033",
  "immutableReferences": {},
  "source": "// SPDX-License-Identifier: MIT\r\npragma solidity ^0.8.0;\r\n\r\nimport \"@openzeppelin/contracts/token/ERC20/IERC20.sol\";\r\nimport \"@openzeppelin/contracts/access/Ownable.sol\";\r\n\r\npragma experimental ABIEncoderV2;\r\n\r\ncontract Ndu is Ownable {\r\n\r\n    uint companyCount;\r\n    // address owner;\r\n    address admin;\r\n    address public registerContract;\r\n    uint public balance;\r\n\r\n    event Scanned(string serialNumber, string companyDetails, string DrugDetails);\r\n    \r\n    constructor()  {\r\n        admin = msg.sender;\r\n    }\r\n\r\n    // function receive() external payable {\r\n    //     balance = msg.value;\r\n    // }\r\n    \r\n    \r\n    // This represents a single Company \r\n    struct Company {\r\n        uint id;\r\n        string Name;\r\n        string ISOnumber;\r\n        string ipfsHashOfCompanyDetails;\r\n    }\r\n\r\n    // This represents a single drug\r\n    struct Drug {\r\n        string ipfsHashOfDrugDetails;\r\n        string[] serialNumbers;\r\n    }\r\n\r\n\r\n\r\n    Company[] public registerdCompanies;\r\n\r\n    // This keeps track of a registered company Id\r\n    mapping(uint => Company) public companyId;\r\n\r\n    \r\n\r\n    // companies variable stores a 'Company' struct for each possible address\r\n    // mapping(address => Company) public companies;\r\n\r\n\r\n\r\n\r\n    // keep track of registered serial\r\n    mapping(string => bool) public storedSerial;\r\n\r\n\r\n    // keep track of products registered by a company\r\n    mapping(string => Company ) public drugProduced;\r\n\r\n    // keep track of Scanned Products\r\n    mapping(string => bool) public serialScanned;\r\n\r\n\r\n    // keep track of drug details\r\n    mapping(string => Drug) public drugDetails;\r\n\r\n    // mapping(uint => Serials) public DrugToRegisteredCompanies;\r\n\r\n    \r\n\r\n\r\n    modifier onlyAdmin(){\r\n        require(msg.sender == admin, \"only admin can call\");\r\n        _;\r\n    }\r\n    \r\n\r\n    // string[] public Serials;\r\n    \r\n\r\n    function register(uint _id, string memory _name, string memory _isonumber, string memory _ipfsHashOfCompanyDetails ) public {\r\n        require(msg.sender == registerContract, \"Only Register Contract can call\");\r\n        // companies[_callerCompanyAddress] = Company(_id, _name, _isonumber, _ipfsHashOfCompanyDetails);\r\n        companyId[_id] = Company(_id, _name, _isonumber, _ipfsHashOfCompanyDetails);\r\n        registerdCompanies.push(Company(_id, _name, _isonumber, _ipfsHashOfCompanyDetails));\r\n        // registered[_callerCompanyAddress] = true;\r\n    }\r\n\r\n     \r\n\r\n    function registerSerial(uint _id, string[] memory _serialNumbers, string memory _ipfsHashOfDrugDetails) public {\r\n        require(msg.sender == registerContract, \"Only Register Contract can call\");\r\n        // require(registered[_caller], \"company address not registered\");\r\n        // peters[_id].ipfsHashOfDrugDetails = _ipfsHashOfDrugDetails;\r\n        // peters[_id].serialNumbers = _serialNumbers;\r\n        for(uint i = 0; i < _serialNumbers.length; i++) {\r\n            Company storage company = companyId[_id];\r\n            drugProduced[_serialNumbers[i]] = company;\r\n            drugDetails[_serialNumbers[i]] = Drug(_ipfsHashOfDrugDetails, _serialNumbers);\r\n            storedSerial[_serialNumbers[i]] = true;\r\n\r\n        }\r\n        \r\n        \r\n    }\r\n\r\n\r\n\r\n    function scanProduct(string memory _serialNumber ) public  returns(Company memory, Drug memory)\r\n\r\n        {\r\n            require(storedSerial[_serialNumber], \"serial not registered \");\r\n            require(!serialScanned[_serialNumber], \"drug has been scanned\");\r\n            Company memory company = drugProduced[_serialNumber];\r\n            Drug memory drug = drugDetails[_serialNumber];\r\n            updateStatus(_serialNumber);\r\n\r\n\r\n            emit Scanned(_serialNumber, company.ipfsHashOfCompanyDetails, drug.ipfsHashOfDrugDetails );\r\n\r\n\r\n            return (company, drug);\r\n\r\n                \r\n        }\r\n        \r\n        \r\n        \r\n    function updateStatus(string memory _serialNumber) internal {\r\n        serialScanned[_serialNumber] = true;\r\n    }\r\n    \r\n    function checkStatus(string memory _serialNumber) public view  {\r\n        require(storedSerial[_serialNumber], \"serial not registered \");\r\n        require(!serialScanned[_serialNumber], \"drug has been scanned\");\r\n    }\r\n\r\n    \r\n\r\n    function setAdmin(address _newAdmin) public onlyAdmin {\r\n        admin = _newAdmin;\r\n    }\r\n\r\n    function setRegisterContract(address _registerContract) public onlyAdmin {\r\n        registerContract = _registerContract;\r\n    }\r\n\r\n  \r\n\r\n}\r\n\r\n\r\ncontract Register {\r\n\r\n    IERC20 governanceToken;\r\n    uint public minimumTokenRequired;\r\n    address public admin;\r\n    Ndu public ndu;\r\n    \r\n    // this keeps track of company address registerd\r\n    mapping(address => bool) public registered;\r\n\r\n    mapping(address => string[]) public hashesRegistered;\r\n\r\n    mapping(string => string[]) public serials;\r\n    \r\n    \r\n    \r\n    mapping(address => uint) public companyId;\r\n\r\n    // events\r\n    event companyRegister(address indexed _companyAddress, string _name, string _isonumber, string _ipfsHashOfCompanyDetails );\r\n    event drugRegister(address indexed _sender, string[] _serialNumbers, string ipfsHashOfDrugDetails);\r\n\r\n\r\n\r\n\r\n    constructor(address _governanceToken, address payable _nduContract,  uint _minimumTokenRequired) {\r\n        governanceToken = IERC20(_governanceToken);\r\n        admin = msg.sender;\r\n        ndu = Ndu(_nduContract);\r\n        minimumTokenRequired = _minimumTokenRequired;\r\n    }\r\n\r\n\r\n    modifier onlyAdmin(){\r\n        require(msg.sender == admin, \"only admin can call\");\r\n        _;\r\n    }\r\n\r\n\r\n\r\n\r\n\r\n    function registerCompany( uint256 _id, string memory _name, string memory _isonumber, string memory _ipfsHashOfCompanyDetails ) public  {\r\n        require(governanceToken.balanceOf(msg.sender) >= minimumTokenRequired, \"insufficient balance\");\r\n        governanceToken.transferFrom(msg.sender, admin, minimumTokenRequired);\r\n        \r\n        ndu.register( _id,_name,_isonumber,_ipfsHashOfCompanyDetails);\r\n\r\n        companyId[msg.sender] = _id;\r\n        registered[msg.sender] = true;\r\n\r\n        emit companyRegister(msg.sender, _name, _isonumber, _ipfsHashOfCompanyDetails);\r\n    }\r\n    \r\n\r\n\r\n\r\n\r\n    function registerSerialNumber( string[] memory _serialNumbers, string memory _ipfsHashOfDrugDetails ) public {\r\n        require(registered[msg.sender], \"Caller not registered\");\r\n        uint _id = companyId[msg.sender];\r\n         ndu.registerSerial(_id,_serialNumbers,_ipfsHashOfDrugDetails);\r\n\r\n         hashesRegistered[msg.sender].push(_ipfsHashOfDrugDetails);\r\n        serials[_ipfsHashOfDrugDetails] = _serialNumbers;\r\n\r\n        emit drugRegister(msg.sender, _serialNumbers, _ipfsHashOfDrugDetails);\r\n    }\r\n\r\n    function getAllHashesRegistered() public view returns(string[] memory) {\r\n        return hashesRegistered[msg.sender];\r\n    }\r\n\r\n    function getAllSerials(string memory _hash) public view returns(string[] memory) {\r\n        return serials[_hash];\r\n    }\r\n\r\n\r\n\r\n    function setMinimumTokenRequired(uint _minimumTokenrequired) public onlyAdmin {\r\n        minimumTokenRequired = _minimumTokenrequired;\r\n    }\r\n}\r\n\r\n\r\n// contract ScanProduct {\r\n//     IERC20 public governanceToken;\r\n//     Ndu public ndu;\r\n//     address public admin;\r\n    \r\n//     constructor(address payable _nduContract, address _governanceToken) {\r\n//         governanceToken = IERC20(_governanceToken);\r\n//         ndu = Ndu(_nduContract);\r\n//         admin = msg.sender;\r\n        \r\n        \r\n//     }\r\n    \r\n//     function Scan(string memory _serialNumber) public {\r\n//         // scan Product\r\n//         ndu.scanProduct(_serialNumber);\r\n//         // update scan status\r\n//         // ndu.updateStatus(_serialNumber);\r\n//     }\r\n// }",
  "sourcePath": "C:\\Users\\CHIDIEBERE-PC\\Desktop\\projects\\Blockchain\\app-for-drug-validation-\\contracts\\Ndu.sol",
  "compiler": {
    "name": "solc",
    "version": "0.8.0+commit.c7dfd78e.Emscripten.clang"
  },
  "schemaVersion": "3.4.3",
  "updatedAt": "2021-11-02T01:45:02.292Z",
  "networkType": "ethereum",
  "devdoc": {
    "kind": "dev",
    "methods": {
      "owner()": {
        "details": "Returns the address of the current owner."
      },
      "renounceOwnership()": {
        "details": "Leaves the contract without owner. It will not be possible to call `onlyOwner` functions anymore. Can only be called by the current owner. NOTE: Renouncing ownership will leave the contract without an owner, thereby removing any functionality that is only available to the owner."
      },
      "transferOwnership(address)": {
        "details": "Transfers ownership of the contract to a new account (`newOwner`). Can only be called by the current owner."
      }
    },
    "version": 1
  },
  "userdoc": {
    "kind": "user",
    "methods": {},
    "version": 1
  }
}