{
  "contractName": "Ndu",
  "abi": [
    {
      "inputs": [],
      "stateMutability": "nonpayable",
      "type": "constructor"
    },
    {
      "anonymous": false,
      "inputs": [
        {
          "indexed": true,
          "internalType": "address",
          "name": "previousOwner",
          "type": "address"
        },
        {
          "indexed": true,
          "internalType": "address",
          "name": "newOwner",
          "type": "address"
        }
      ],
      "name": "OwnershipTransferred",
      "type": "event"
    },
    {
      "anonymous": false,
      "inputs": [
        {
          "indexed": false,
          "internalType": "string",
          "name": "serialNumber",
          "type": "string"
        },
        {
          "indexed": false,
          "internalType": "string",
          "name": "companyDetails",
          "type": "string"
        },
        {
          "indexed": false,
          "internalType": "string",
          "name": "DrugDetails",
          "type": "string"
        }
      ],
      "name": "Scanned",
      "type": "event"
    },
    {
      "inputs": [
        {
          "internalType": "uint256",
          "name": "",
          "type": "uint256"
        }
      ],
      "name": "DrugToRegisteredCompanies",
      "outputs": [
        {
          "internalType": "string",
          "name": "ipfsHashOfDrugDetails",
          "type": "string"
        }
      ],
      "stateMutability": "view",
      "type": "function",
      "constant": true
    },
    {
      "inputs": [],
      "name": "balance",
      "outputs": [
        {
          "internalType": "uint256",
          "name": "",
          "type": "uint256"
        }
      ],
      "stateMutability": "view",
      "type": "function",
      "constant": true
    },
    {
      "inputs": [
        {
          "internalType": "uint256",
          "name": "",
          "type": "uint256"
        }
      ],
      "name": "companyId",
      "outputs": [
        {
          "internalType": "uint256",
          "name": "id",
          "type": "uint256"
        },
        {
          "internalType": "string",
          "name": "Name",
          "type": "string"
        },
        {
          "internalType": "string",
          "name": "ISOnumber",
          "type": "string"
        },
        {
          "internalType": "string",
          "name": "ipfsHashOfCompanyDetails",
          "type": "string"
        }
      ],
      "stateMutability": "view",
      "type": "function",
      "constant": true
    },
    {
      "inputs": [
        {
          "internalType": "string",
          "name": "",
          "type": "string"
        }
      ],
      "name": "drugDetails",
      "outputs": [
        {
          "internalType": "string",
          "name": "ipfsHashOfDrugDetails",
          "type": "string"
        }
      ],
      "stateMutability": "view",
      "type": "function",
      "constant": true
    },
    {
      "inputs": [
        {
          "internalType": "string",
          "name": "",
          "type": "string"
        }
      ],
      "name": "drugProduced",
      "outputs": [
        {
          "internalType": "uint256",
          "name": "id",
          "type": "uint256"
        },
        {
          "internalType": "string",
          "name": "Name",
          "type": "string"
        },
        {
          "internalType": "string",
          "name": "ISOnumber",
          "type": "string"
        },
        {
          "internalType": "string",
          "name": "ipfsHashOfCompanyDetails",
          "type": "string"
        }
      ],
      "stateMutability": "view",
      "type": "function",
      "constant": true
    },
    {
      "inputs": [],
      "name": "owner",
      "outputs": [
        {
          "internalType": "address",
          "name": "",
          "type": "address"
        }
      ],
      "stateMutability": "view",
      "type": "function",
      "constant": true
    },
    {
      "inputs": [],
      "name": "registerContract",
      "outputs": [
        {
          "internalType": "address",
          "name": "",
          "type": "address"
        }
      ],
      "stateMutability": "view",
      "type": "function",
      "constant": true
    },
    {
      "inputs": [
        {
          "internalType": "uint256",
          "name": "",
          "type": "uint256"
        }
      ],
      "name": "registerdCompanies",
      "outputs": [
        {
          "internalType": "uint256",
          "name": "id",
          "type": "uint256"
        },
        {
          "internalType": "string",
          "name": "Name",
          "type": "string"
        },
        {
          "internalType": "string",
          "name": "ISOnumber",
          "type": "string"
        },
        {
          "internalType": "string",
          "name": "ipfsHashOfCompanyDetails",
          "type": "string"
        }
      ],
      "stateMutability": "view",
      "type": "function",
      "constant": true
    },
    {
      "inputs": [],
      "name": "renounceOwnership",
      "outputs": [],
      "stateMutability": "nonpayable",
      "type": "function"
    },
    {
      "inputs": [
        {
          "internalType": "string",
          "name": "",
          "type": "string"
        }
      ],
      "name": "serialScanned",
      "outputs": [
        {
          "internalType": "bool",
          "name": "",
          "type": "bool"
        }
      ],
      "stateMutability": "view",
      "type": "function",
      "constant": true
    },
    {
      "inputs": [
        {
          "internalType": "string",
          "name": "",
          "type": "string"
        }
      ],
      "name": "storedSerial",
      "outputs": [
        {
          "internalType": "bool",
          "name": "",
          "type": "bool"
        }
      ],
      "stateMutability": "view",
      "type": "function",
      "constant": true
    },
    {
      "inputs": [
        {
          "internalType": "address",
          "name": "newOwner",
          "type": "address"
        }
      ],
      "name": "transferOwnership",
      "outputs": [],
      "stateMutability": "nonpayable",
      "type": "function"
    },
    {
      "inputs": [
        {
          "internalType": "uint256",
          "name": "_id",
          "type": "uint256"
        },
        {
          "internalType": "string",
          "name": "_name",
          "type": "string"
        },
        {
          "internalType": "string",
          "name": "_isonumber",
          "type": "string"
        },
        {
          "internalType": "string",
          "name": "_ipfsHashOfCompanyDetails",
          "type": "string"
        }
      ],
      "name": "register",
      "outputs": [],
      "stateMutability": "nonpayable",
      "type": "function"
    },
    {
      "inputs": [
        {
          "internalType": "uint256",
          "name": "_id",
          "type": "uint256"
        },
        {
          "internalType": "string[]",
          "name": "_serialNumbers",
          "type": "string[]"
        },
        {
          "internalType": "string",
          "name": "_ipfsHashOfDrugDetails",
          "type": "string"
        }
      ],
      "name": "registerSerial",
      "outputs": [],
      "stateMutability": "nonpayable",
      "type": "function"
    },
    {
      "inputs": [
        {
          "internalType": "string",
          "name": "_serialNumber",
          "type": "string"
        }
      ],
      "name": "scanProduct",
      "outputs": [
        {
          "components": [
            {
              "internalType": "uint256",
              "name": "id",
              "type": "uint256"
            },
            {
              "internalType": "string",
              "name": "Name",
              "type": "string"
            },
            {
              "internalType": "string",
              "name": "ISOnumber",
              "type": "string"
            },
            {
              "internalType": "string",
              "name": "ipfsHashOfCompanyDetails",
              "type": "string"
            }
          ],
          "internalType": "struct Ndu.Company",
          "name": "",
          "type": "tuple"
        },
        {
          "components": [
            {
              "internalType": "string",
              "name": "ipfsHashOfDrugDetails",
              "type": "string"
            },
            {
              "internalType": "string[]",
              "name": "serialNumbers",
              "type": "string[]"
            }
          ],
          "internalType": "struct Ndu.Drug",
          "name": "",
          "type": "tuple"
        }
      ],
      "stateMutability": "nonpayable",
      "type": "function"
    },
    {
      "inputs": [
        {
          "internalType": "string",
          "name": "_serialNumber",
          "type": "string"
        }
      ],
      "name": "checkStatus",
      "outputs": [],
      "stateMutability": "view",
      "type": "function",
      "constant": true
    },
    {
      "inputs": [
        {
          "internalType": "address",
          "name": "_newAdmin",
          "type": "address"
        }
      ],
      "name": "setAdmin",
      "outputs": [],
      "stateMutability": "nonpayable",
      "type": "function"
    },
    {
      "inputs": [
        {
          "internalType": "address",
          "name": "_registerContract",
          "type": "address"
        }
      ],
      "name": "setRegisterContract",
      "outputs": [],
      "stateMutability": "nonpayable",
      "type": "function"
    }
  ],
  "bytecode": "0x60806040523480156200001157600080fd5b5062000032620000266200007960201b60201c565b6200008160201b60201c565b33600260006101000a81548173ffffffffffffffffffffffffffffffffffffffff021916908373ffffffffffffffffffffffffffffffffffffffff16021790555062000145565b600033905090565b60008060009054906101000a900473ffffffffffffffffffffffffffffffffffffffff169050816000806101000a81548173ffffffffffffffffffffffffffffffffffffffff021916908373ffffffffffffffffffffffffffffffffffffffff1602179055508173ffffffffffffffffffffffffffffffffffffffff168173ffffffffffffffffffffffffffffffffffffffff167f8be0079c531659141344cd1fd0a4f28419497f9722a3daafe3b4186f6b6457e060405160405180910390a35050565b61281c80620001556000396000f3fe608060405234801561001057600080fd5b50600436106101165760003560e01c80637feffff3116100a2578063b98709c511610071578063b98709c5146102e5578063c10b15e714610318578063e150a2e814610348578063f2fde38b14610364578063f7e7ce4d1461038057610116565b80637feffff31461026f5780638da5cb5b1461028d5780639b49cef5146102ab578063b69ef8a8146102c757610116565b806320e97dc7116100e957806320e97dc7146101e15780633d59a0e21461021157806344b0a9951461022d578063704b6c0214610249578063715018a61461026557610116565b80630b3ef19a1461011b5780631bc304ad1461014e5780631c7715791461017e5780631f45a6d1146101b1575b600080fd5b61013560048036038101906101309190611dda565b6103b1565b60405161014594939291906124bd565b60405180910390f35b61016860048036038101906101639190611dda565b610579565b604051610175919061233d565b60405180910390f35b61019860048036038101906101939190611dda565b61061f565b6040516101a894939291906124bd565b60405180910390f35b6101cb60048036038101906101c69190611d99565b6107f7565b6040516101d89190612322565b60405180910390f35b6101fb60048036038101906101f69190611d99565b61082d565b604051610208919061233d565b60405180910390f35b61022b60048036038101906102269190611e82565b6108e9565b005b61024760048036038101906102429190611d99565b610ac6565b005b610263600480360381019061025e9190611d70565b610ba0565b005b61026d610c74565b005b610277610cfc565b6040516102849190612307565b60405180910390f35b610295610d22565b6040516102a29190612307565b60405180910390f35b6102c560048036038101906102c09190611e03565b610d4b565b005b6102cf611070565b6040516102dc91906124a2565b60405180910390f35b6102ff60048036038101906102fa9190611d99565b611076565b60405161030f94939291906124bd565b60405180910390f35b610332600480360381019061032d9190611d99565b611254565b60405161033f9190612322565b60405180910390f35b610362600480360381019061035d9190611d70565b61128a565b005b61037e60048036038101906103799190611d70565b61135e565b005b61039a60048036038101906103959190611d99565b611456565b6040516103a892919061246b565b60405180910390f35b60066020528060005260406000206000915090508060000154908060010180546103da9061269f565b80601f01602080910402602001604051908101604052809291908181526020018280546104069061269f565b80156104535780601f1061042857610100808354040283529160200191610453565b820191906000526020600020905b81548152906001019060200180831161043657829003601f168201915b5050505050908060020180546104689061269f565b80601f01602080910402602001604051908101604052809291908181526020018280546104949061269f565b80156104e15780601f106104b6576101008083540402835291602001916104e1565b820191906000526020600020905b8154815290600101906020018083116104c457829003601f168201915b5050505050908060030180546104f69061269f565b80601f01602080910402602001604051908101604052809291908181526020018280546105229061269f565b801561056f5780601f106105445761010080835404028352916020019161056f565b820191906000526020600020905b81548152906001019060200180831161055257829003601f168201915b5050505050905084565b600b60205280600052604060002060009150905080600001805461059c9061269f565b80601f01602080910402602001604051908101604052809291908181526020018280546105c89061269f565b80156106155780601f106105ea57610100808354040283529160200191610615565b820191906000526020600020905b8154815290600101906020018083116105f857829003601f168201915b5050505050905081565b6005818154811061062f57600080fd5b90600052602060002090600402016000915090508060000154908060010180546106589061269f565b80601f01602080910402602001604051908101604052809291908181526020018280546106849061269f565b80156106d15780601f106106a6576101008083540402835291602001916106d1565b820191906000526020600020905b8154815290600101906020018083116106b457829003601f168201915b5050505050908060020180546106e69061269f565b80601f01602080910402602001604051908101604052809291908181526020018280546107129061269f565b801561075f5780601f106107345761010080835404028352916020019161075f565b820191906000526020600020905b81548152906001019060200180831161074257829003601f168201915b5050505050908060030180546107749061269f565b80601f01602080910402602001604051908101604052809291908181526020018280546107a09061269f565b80156107ed5780601f106107c2576101008083540402835291602001916107ed565b820191906000526020600020905b8154815290600101906020018083116107d057829003601f168201915b5050505050905084565b6007818051602081018201805184825260208301602085012081835280955050505050506000915054906101000a900460ff1681565b600a818051602081018201805184825260208301602085012081835280955050505050506000915090508060000180546108669061269f565b80601f01602080910402602001604051908101604052809291908181526020018280546108929061269f565b80156108df5780601f106108b4576101008083540402835291602001916108df565b820191906000526020600020905b8154815290600101906020018083116108c257829003601f168201915b5050505050905081565b600360009054906101000a900473ffffffffffffffffffffffffffffffffffffffff1673ffffffffffffffffffffffffffffffffffffffff163373ffffffffffffffffffffffffffffffffffffffff1614610979576040517f08c379a0000000000000000000000000000000000000000000000000000000008152600401610970906123eb565b60405180910390fd5b604051806080016040528085815260200184815260200183815260200182815250600660008681526020019081526020016000206000820151816000015560208201518160010190805190602001906109d3929190611a21565b5060408201518160020190805190602001906109f0929190611a21565b506060820151816003019080519060200190610a0d929190611a21565b5090505060056040518060800160405280868152602001858152602001848152602001838152509080600181540180825580915050600190039060005260206000209060040201600090919091909150600082015181600001556020820151816001019080519060200190610a83929190611a21565b506040820151816002019080519060200190610aa0929190611a21565b506060820151816003019080519060200190610abd929190611a21565b50505050505050565b600781604051610ad691906122f0565b908152602001604051809103902060009054906101000a900460ff16610b31576040517f08c379a0000000000000000000000000000000000000000000000000000000008152600401610b28906123cb565b60405180910390fd5b600981604051610b4191906122f0565b908152602001604051809103902060009054906101000a900460ff1615610b9d576040517f08c379a0000000000000000000000000000000000000000000000000000000008152600401610b949061242b565b60405180910390fd5b50565b600260009054906101000a900473ffffffffffffffffffffffffffffffffffffffff1673ffffffffffffffffffffffffffffffffffffffff163373ffffffffffffffffffffffffffffffffffffffff1614610c30576040517f08c379a0000000000000000000000000000000000000000000000000000000008152600401610c279061240b565b60405180910390fd5b80600260006101000a81548173ffffffffffffffffffffffffffffffffffffffff021916908373ffffffffffffffffffffffffffffffffffffffff16021790555050565b610c7c61191b565b73ffffffffffffffffffffffffffffffffffffffff16610c9a610d22565b73ffffffffffffffffffffffffffffffffffffffff1614610cf0576040517f08c379a0000000000000000000000000000000000000000000000000000000008152600401610ce79061244b565b60405180910390fd5b610cfa6000611923565b565b600360009054906101000a900473ffffffffffffffffffffffffffffffffffffffff1681565b60008060009054906101000a900473ffffffffffffffffffffffffffffffffffffffff16905090565b600360009054906101000a900473ffffffffffffffffffffffffffffffffffffffff1673ffffffffffffffffffffffffffffffffffffffff163373ffffffffffffffffffffffffffffffffffffffff1614610ddb576040517f08c379a0000000000000000000000000000000000000000000000000000000008152600401610dd2906123eb565b60405180910390fd5b60005b8251811015611005576000600660008681526020019081526020016000209050806008858481518110610e3a577f4e487b7100000000000000000000000000000000000000000000000000000000600052603260045260246000fd5b6020026020010151604051610e4f91906122f0565b9081526020016040518091039020600082015481600001556001820181600101908054610e7b9061269f565b610e86929190611aa7565b506002820181600201908054610e9b9061269f565b610ea6929190611aa7565b506003820181600301908054610ebb9061269f565b610ec6929190611aa7565b50905050604051806040016040528084815260200185815250600a858481518110610f1a577f4e487b7100000000000000000000000000000000000000000000000000000000600052603260045260246000fd5b6020026020010151604051610f2f91906122f0565b90815260200160405180910390206000820151816000019080519060200190610f59929190611a21565b506020820151816001019080519060200190610f76929190611b34565b5090505060016007858481518110610fb7577f4e487b7100000000000000000000000000000000000000000000000000000000600052603260045260246000fd5b6020026020010151604051610fcc91906122f0565b908152602001604051809103902060006101000a81548160ff021916908315150217905550508080610ffd906126d1565b915050610dde565b50604051806040016040528082815260200183815250600b6000858152602001908152602001600020600082015181600001908051906020019061104a929190611a21565b506020820151816001019080519060200190611067929190611b34565b50905050505050565b60045481565b6008818051602081018201805184825260208301602085012081835280955050505050506000915090508060000154908060010180546110b59061269f565b80601f01602080910402602001604051908101604052809291908181526020018280546110e19061269f565b801561112e5780601f106111035761010080835404028352916020019161112e565b820191906000526020600020905b81548152906001019060200180831161111157829003601f168201915b5050505050908060020180546111439061269f565b80601f016020809104026020016040519081016040528092919081815260200182805461116f9061269f565b80156111bc5780601f10611191576101008083540402835291602001916111bc565b820191906000526020600020905b81548152906001019060200180831161119f57829003601f168201915b5050505050908060030180546111d19061269f565b80601f01602080910402602001604051908101604052809291908181526020018280546111fd9061269f565b801561124a5780601f1061121f5761010080835404028352916020019161124a565b820191906000526020600020905b81548152906001019060200180831161122d57829003601f168201915b5050505050905084565b6009818051602081018201805184825260208301602085012081835280955050505050506000915054906101000a900460ff1681565b600260009054906101000a900473ffffffffffffffffffffffffffffffffffffffff1673ffffffffffffffffffffffffffffffffffffffff163373ffffffffffffffffffffffffffffffffffffffff161461131a576040517f08c379a00000000000000000000000000000000000000000000000000000000081526004016113119061240b565b60405180910390fd5b80600360006101000a81548173ffffffffffffffffffffffffffffffffffffffff021916908373ffffffffffffffffffffffffffffffffffffffff16021790555050565b61136661191b565b73ffffffffffffffffffffffffffffffffffffffff16611384610d22565b73ffffffffffffffffffffffffffffffffffffffff16146113da576040517f08c379a00000000000000000000000000000000000000000000000000000000081526004016113d19061244b565b60405180910390fd5b600073ffffffffffffffffffffffffffffffffffffffff168173ffffffffffffffffffffffffffffffffffffffff16141561144a576040517f08c379a0000000000000000000000000000000000000000000000000000000008152600401611441906123ab565b60405180910390fd5b61145381611923565b50565b61145e611b94565b611466611bbc565b60078360405161147691906122f0565b908152602001604051809103902060009054906101000a900460ff166114d1576040517f08c379a00000000000000000000000000000000000000000000000000000000081526004016114c8906123cb565b60405180910390fd5b6009836040516114e191906122f0565b908152602001604051809103902060009054906101000a900460ff161561153d576040517f08c379a00000000000000000000000000000000000000000000000000000000081526004016115349061242b565b60405180910390fd5b600060088460405161154f91906122f0565b9081526020016040518091039020604051806080016040529081600082015481526020016001820180546115829061269f565b80601f01602080910402602001604051908101604052809291908181526020018280546115ae9061269f565b80156115fb5780601f106115d0576101008083540402835291602001916115fb565b820191906000526020600020905b8154815290600101906020018083116115de57829003601f168201915b505050505081526020016002820180546116149061269f565b80601f01602080910402602001604051908101604052809291908181526020018280546116409061269f565b801561168d5780601f106116625761010080835404028352916020019161168d565b820191906000526020600020905b81548152906001019060200180831161167057829003601f168201915b505050505081526020016003820180546116a69061269f565b80601f01602080910402602001604051908101604052809291908181526020018280546116d29061269f565b801561171f5780601f106116f45761010080835404028352916020019161171f565b820191906000526020600020905b81548152906001019060200180831161170257829003601f168201915b50505050508152505090506000600a8560405161173c91906122f0565b90815260200160405180910390206040518060400160405290816000820180546117659061269f565b80601f01602080910402602001604051908101604052809291908181526020018280546117919061269f565b80156117de5780601f106117b3576101008083540402835291602001916117de565b820191906000526020600020905b8154815290600101906020018083116117c157829003601f168201915b5050505050815260200160018201805480602002602001604051908101604052809291908181526020016000905b828210156118b857838290600052602060002001805461182b9061269f565b80601f01602080910402602001604051908101604052809291908181526020018280546118579061269f565b80156118a45780601f10611879576101008083540402835291602001916118a4565b820191906000526020600020905b81548152906001019060200180831161188757829003601f168201915b50505050508152602001906001019061180c565b505050508152505090506118cb856119e7565b7f295f0b6190822d4ea9023a4638aeb3dfdbf3ca1dc2d3b001548b03983845288485836060015183600001516040516119069392919061235f565b60405180910390a18181935093505050915091565b600033905090565b60008060009054906101000a900473ffffffffffffffffffffffffffffffffffffffff169050816000806101000a81548173ffffffffffffffffffffffffffffffffffffffff021916908373ffffffffffffffffffffffffffffffffffffffff1602179055508173ffffffffffffffffffffffffffffffffffffffff168173ffffffffffffffffffffffffffffffffffffffff167f8be0079c531659141344cd1fd0a4f28419497f9722a3daafe3b4186f6b6457e060405160405180910390a35050565b60016009826040516119f991906122f0565b908152602001604051809103902060006101000a81548160ff02191690831515021790555050565b828054611a2d9061269f565b90600052602060002090601f016020900481019282611a4f5760008555611a96565b82601f10611a6857805160ff1916838001178555611a96565b82800160010185558215611a96579182015b82811115611a95578251825591602001919060010190611a7a565b5b509050611aa39190611bd6565b5090565b828054611ab39061269f565b90600052602060002090601f016020900481019282611ad55760008555611b23565b82601f10611ae65780548555611b23565b82800160010185558215611b2357600052602060002091601f016020900482015b82811115611b22578254825591600101919060010190611b07565b5b509050611b309190611bd6565b5090565b828054828255906000526020600020908101928215611b83579160200282015b82811115611b82578251829080519060200190611b72929190611a21565b5091602001919060010190611b54565b5b509050611b909190611bf3565b5090565b6040518060800160405280600081526020016060815260200160608152602001606081525090565b604051806040016040528060608152602001606081525090565b5b80821115611bef576000816000905550600101611bd7565b5090565b5b80821115611c135760008181611c0a9190611c17565b50600101611bf4565b5090565b508054611c239061269f565b6000825580601f10611c355750611c54565b601f016020900490600052602060002090810190611c539190611bd6565b5b50565b6000611c6a611c6584612548565b612517565b9050808382526020820190508260005b85811015611caa5781358501611c908882611d31565b845260208401935060208301925050600181019050611c7a565b5050509392505050565b6000611cc7611cc284612574565b612517565b905082815260208101848484011115611cdf57600080fd5b611cea84828561265d565b509392505050565b600081359050611d01816127b8565b92915050565b600082601f830112611d1857600080fd5b8135611d28848260208601611c57565b91505092915050565b600082601f830112611d4257600080fd5b8135611d52848260208601611cb4565b91505092915050565b600081359050611d6a816127cf565b92915050565b600060208284031215611d8257600080fd5b6000611d9084828501611cf2565b91505092915050565b600060208284031215611dab57600080fd5b600082013567ffffffffffffffff811115611dc557600080fd5b611dd184828501611d31565b91505092915050565b600060208284031215611dec57600080fd5b6000611dfa84828501611d5b565b91505092915050565b600080600060608486031215611e1857600080fd5b6000611e2686828701611d5b565b935050602084013567ffffffffffffffff811115611e4357600080fd5b611e4f86828701611d07565b925050604084013567ffffffffffffffff811115611e6c57600080fd5b611e7886828701611d31565b9150509250925092565b60008060008060808587031215611e9857600080fd5b6000611ea687828801611d5b565b945050602085013567ffffffffffffffff811115611ec357600080fd5b611ecf87828801611d31565b935050604085013567ffffffffffffffff811115611eec57600080fd5b611ef887828801611d31565b925050606085013567ffffffffffffffff811115611f1557600080fd5b611f2187828801611d31565b91505092959194509250565b6000611f398383611fd4565b905092915050565b611f4a81612615565b82525050565b6000611f5b826125b4565b611f6581856125d7565b935083602082028501611f77856125a4565b8060005b85811015611fb35784840389528151611f948582611f2d565b9450611f9f836125ca565b925060208a01995050600181019050611f7b565b50829750879550505050505092915050565b611fce81612627565b82525050565b6000611fdf826125bf565b611fe981856125e8565b9350611ff981856020860161266c565b612002816127a7565b840191505092915050565b6000612018826125bf565b61202281856125f9565b935061203281856020860161266c565b61203b816127a7565b840191505092915050565b6000612051826125bf565b61205b818561260a565b935061206b81856020860161266c565b80840191505092915050565b60006120846026836125f9565b91507f4f776e61626c653a206e6577206f776e657220697320746865207a65726f206160008301527f64647265737300000000000000000000000000000000000000000000000000006020830152604082019050919050565b60006120ea6016836125f9565b91507f73657269616c206e6f74207265676973746572656420000000000000000000006000830152602082019050919050565b600061212a601f836125f9565b91507f4f6e6c7920526567697374657220436f6e74726163742063616e2063616c6c006000830152602082019050919050565b600061216a6013836125f9565b91507f6f6e6c792061646d696e2063616e2063616c6c000000000000000000000000006000830152602082019050919050565b60006121aa6015836125f9565b91507f6472756720686173206265656e207363616e6e656400000000000000000000006000830152602082019050919050565b60006121ea6020836125f9565b91507f4f776e61626c653a2063616c6c6572206973206e6f7420746865206f776e65726000830152602082019050919050565b600060808301600083015161223560008601826122d2565b506020830151848203602086015261224d8282611fd4565b915050604083015184820360408601526122678282611fd4565b915050606083015184820360608601526122818282611fd4565b9150508091505092915050565b600060408301600083015184820360008601526122ab8282611fd4565b915050602083015184820360208601526122c58282611f50565b9150508091505092915050565b6122db81612653565b82525050565b6122ea81612653565b82525050565b60006122fc8284612046565b915081905092915050565b600060208201905061231c6000830184611f41565b92915050565b60006020820190506123376000830184611fc5565b92915050565b60006020820190508181036000830152612357818461200d565b905092915050565b60006060820190508181036000830152612379818661200d565b9050818103602083015261238d818561200d565b905081810360408301526123a1818461200d565b9050949350505050565b600060208201905081810360008301526123c481612077565b9050919050565b600060208201905081810360008301526123e4816120dd565b9050919050565b600060208201905081810360008301526124048161211d565b9050919050565b600060208201905081810360008301526124248161215d565b9050919050565b600060208201905081810360008301526124448161219d565b9050919050565b60006020820190508181036000830152612464816121dd565b9050919050565b60006040820190508181036000830152612485818561221d565b90508181036020830152612499818461228e565b90509392505050565b60006020820190506124b760008301846122e1565b92915050565b60006080820190506124d260008301876122e1565b81810360208301526124e4818661200d565b905081810360408301526124f8818561200d565b9050818103606083015261250c818461200d565b905095945050505050565b6000604051905081810181811067ffffffffffffffff8211171561253e5761253d612778565b5b8060405250919050565b600067ffffffffffffffff82111561256357612562612778565b5b602082029050602081019050919050565b600067ffffffffffffffff82111561258f5761258e612778565b5b601f19601f8301169050602081019050919050565b6000819050602082019050919050565b600081519050919050565b600081519050919050565b6000602082019050919050565b600082825260208201905092915050565b600082825260208201905092915050565b600082825260208201905092915050565b600081905092915050565b600061262082612633565b9050919050565b60008115159050919050565b600073ffffffffffffffffffffffffffffffffffffffff82169050919050565b6000819050919050565b82818337600083830152505050565b60005b8381101561268a57808201518184015260208101905061266f565b83811115612699576000848401525b50505050565b600060028204905060018216806126b757607f821691505b602082108114156126cb576126ca612749565b5b50919050565b60006126dc82612653565b91507fffffffffffffffffffffffffffffffffffffffffffffffffffffffffffffffff82141561270f5761270e61271a565b5b600182019050919050565b7f4e487b7100000000000000000000000000000000000000000000000000000000600052601160045260246000fd5b7f4e487b7100000000000000000000000000000000000000000000000000000000600052602260045260246000fd5b7f4e487b7100000000000000000000000000000000000000000000000000000000600052604160045260246000fd5b6000601f19601f8301169050919050565b6127c181612615565b81146127cc57600080fd5b50565b6127d881612653565b81146127e357600080fd5b5056fea264697066735822122044b6f47a719b61e8d53ad29784e54a49e74110740fc18898ce7d51a41251a02864736f6c63430008000033",
  "immutableReferences": {},
  "source": "// SPDX-License-Identifier: MIT\r\npragma solidity ^0.8.0;\r\n\r\nimport \"@openzeppelin/contracts/token/ERC20/IERC20.sol\";\r\nimport \"@openzeppelin/contracts/access/Ownable.sol\";\r\n\r\npragma experimental ABIEncoderV2;\r\n\r\ncontract Ndu is Ownable {\r\n\r\n    uint companyCount;\r\n    // address owner;\r\n    address admin;\r\n    address public registerContract;\r\n    uint public balance;\r\n\r\n    event Scanned(string serialNumber, string companyDetails, string DrugDetails);\r\n    \r\n    constructor()  {\r\n        admin = msg.sender;\r\n    }\r\n\r\n    // function receive() external payable {\r\n    //     balance = msg.value;\r\n    // }\r\n    \r\n    \r\n    // This represents a single Company \r\n    struct Company {\r\n        uint id;\r\n        string Name;\r\n        string ISOnumber;\r\n        string ipfsHashOfCompanyDetails;\r\n    }\r\n\r\n    // This represents a single drug\r\n    struct Drug {\r\n        string ipfsHashOfDrugDetails;\r\n        string[] serialNumbers;\r\n    }\r\n\r\n\r\n\r\n    Company[] public registerdCompanies;\r\n\r\n    // This keeps track of a registered company Id\r\n    mapping(uint => Company) public companyId;\r\n\r\n    \r\n\r\n    // companies variable stores a 'Company' struct for each possible address\r\n    // mapping(address => Company) public companies;\r\n\r\n\r\n\r\n\r\n    // keep track of registered serial\r\n    mapping(string => bool) public storedSerial;\r\n\r\n\r\n    // keep track of products registered by a company\r\n    mapping(string => Company ) public drugProduced;\r\n\r\n    // keep track of Scanned Products\r\n    mapping(string => bool) public serialScanned;\r\n\r\n\r\n    // keep track of drug details\r\n    mapping(string => Drug) public drugDetails;\r\n\r\n    mapping(uint => Drug) public DrugToRegisteredCompanies;\r\n\r\n\r\n    modifier onlyAdmin(){\r\n        require(msg.sender == admin, \"only admin can call\");\r\n        _;\r\n    }\r\n    \r\n\r\n    // struct Peter {\r\n    //     string ipfsHashOfDrugDetails;\r\n    //     string[] serialNumbers;\r\n    // }\r\n\r\n    // mapping (uint=>Peter) private peters;\r\n    \r\n\r\n    function register(uint _id, string memory _name, string memory _isonumber, string memory _ipfsHashOfCompanyDetails ) public {\r\n        require(msg.sender == registerContract, \"Only Register Contract can call\");\r\n        // companies[_callerCompanyAddress] = Company(_id, _name, _isonumber, _ipfsHashOfCompanyDetails);\r\n        companyId[_id] = Company(_id, _name, _isonumber, _ipfsHashOfCompanyDetails);\r\n        registerdCompanies.push(Company(_id, _name, _isonumber, _ipfsHashOfCompanyDetails));\r\n        // registered[_callerCompanyAddress] = true;\r\n    }\r\n\r\n     \r\n\r\n    function registerSerial(uint _id, string[] memory _serialNumbers, string memory _ipfsHashOfDrugDetails) public {\r\n        require(msg.sender == registerContract, \"Only Register Contract can call\");\r\n        // require(registered[_caller], \"company address not registered\");\r\n        // peters[_id].ipfsHashOfDrugDetails = _ipfsHashOfDrugDetails;\r\n        // peters[_id].serialNumbers = _serialNumbers;\r\n        for(uint i = 0; i < _serialNumbers.length; i++) {\r\n            Company storage company = companyId[_id];\r\n            drugProduced[_serialNumbers[i]] = company;\r\n            drugDetails[_serialNumbers[i]] = Drug(_ipfsHashOfDrugDetails, _serialNumbers);\r\n            storedSerial[_serialNumbers[i]] = true;\r\n\r\n        }\r\n        DrugToRegisteredCompanies[_id] = Drug(_ipfsHashOfDrugDetails, _serialNumbers);\r\n        \r\n    }\r\n\r\n\r\n\r\n    function scanProduct(string memory _serialNumber ) public  returns(Company memory, Drug memory)\r\n\r\n        {\r\n            require(storedSerial[_serialNumber], \"serial not registered \");\r\n            require(!serialScanned[_serialNumber], \"drug has been scanned\");\r\n            Company memory company = drugProduced[_serialNumber];\r\n            Drug memory drug = drugDetails[_serialNumber];\r\n            updateStatus(_serialNumber);\r\n\r\n\r\n            emit Scanned(_serialNumber, company.ipfsHashOfCompanyDetails, drug.ipfsHashOfDrugDetails );\r\n\r\n\r\n            return (company, drug);\r\n\r\n                \r\n        }\r\n        \r\n        \r\n        \r\n    function updateStatus(string memory _serialNumber) internal {\r\n        serialScanned[_serialNumber] = true;\r\n    }\r\n    \r\n    function checkStatus(string memory _serialNumber) public view  {\r\n        require(storedSerial[_serialNumber], \"serial not registered \");\r\n        require(!serialScanned[_serialNumber], \"drug has been scanned\");\r\n    }\r\n\r\n    \r\n\r\n    function setAdmin(address _newAdmin) public onlyAdmin {\r\n        admin = _newAdmin;\r\n    }\r\n\r\n    function setRegisterContract(address _registerContract) public onlyAdmin {\r\n        registerContract = _registerContract;\r\n    }\r\n\r\n  \r\n\r\n}\r\n\r\n\r\ncontract Register {\r\n\r\n    IERC20 governanceToken;\r\n    uint public minimumTokenRequired;\r\n    address public admin;\r\n    Ndu public ndu;\r\n    \r\n    // this keeps track of company address registerd\r\n    mapping(address => bool) public registered;\r\n    \r\n    \r\n    \r\n    mapping(address => uint) public companyId;\r\n\r\n    // events\r\n    event companyRegister(address indexed _companyAddress, string _name, string _isonumber, string _ipfsHashOfCompanyDetails );\r\n    event drugRegister(address indexed _sender, string[] _serialNumbers, string ipfsHashOfDrugDetails);\r\n\r\n\r\n\r\n\r\n    constructor(address _governanceToken, address payable _nduContract,  uint _minimumTokenRequired) {\r\n        governanceToken = IERC20(_governanceToken);\r\n        admin = msg.sender;\r\n        ndu = Ndu(_nduContract);\r\n        minimumTokenRequired = _minimumTokenRequired;\r\n    }\r\n\r\n\r\n    modifier onlyAdmin(){\r\n        require(msg.sender == admin, \"only admin can call\");\r\n        _;\r\n    }\r\n\r\n\r\n\r\n\r\n\r\n    function registerCompany( uint256 _id, string memory _name, string memory _isonumber, string memory _ipfsHashOfCompanyDetails ) public  {\r\n        require(governanceToken.balanceOf(msg.sender) >= minimumTokenRequired, \"insufficient balance\");\r\n        governanceToken.transferFrom(msg.sender, admin, minimumTokenRequired);\r\n        \r\n        ndu.register( _id,_name,_isonumber,_ipfsHashOfCompanyDetails);\r\n\r\n        companyId[msg.sender] = _id;\r\n        registered[msg.sender] = true;\r\n\r\n        emit companyRegister(msg.sender, _name, _isonumber, _ipfsHashOfCompanyDetails);\r\n    }\r\n    \r\n\r\n\r\n\r\n\r\n    function registerSerialNumber( string[] memory _serialNumbers, string memory _ipfsHashOfDrugDetails ) public {\r\n        require(registered[msg.sender], \"Caller not registered\");\r\n        uint _id = companyId[msg.sender];\r\n         ndu.registerSerial(_id,_serialNumbers,_ipfsHashOfDrugDetails);\r\n\r\n        emit drugRegister(msg.sender, _serialNumbers, _ipfsHashOfDrugDetails);\r\n    }\r\n\r\n\r\n\r\n    function setMinimumTokenRequired(uint _minimumTokenrequired) public onlyAdmin {\r\n        minimumTokenRequired = _minimumTokenrequired;\r\n    }\r\n}\r\n\r\n\r\n// contract ScanProduct {\r\n//     IERC20 public governanceToken;\r\n//     Ndu public ndu;\r\n//     address public admin;\r\n    \r\n//     constructor(address payable _nduContract, address _governanceToken) {\r\n//         governanceToken = IERC20(_governanceToken);\r\n//         ndu = Ndu(_nduContract);\r\n//         admin = msg.sender;\r\n        \r\n        \r\n//     }\r\n    \r\n//     function Scan(string memory _serialNumber) public {\r\n//         // scan Product\r\n//         ndu.scanProduct(_serialNumber);\r\n//         // update scan status\r\n//         // ndu.updateStatus(_serialNumber);\r\n//     }\r\n// }",
  "sourcePath": "C:\\Users\\CHIDIEBERE-PC\\Desktop\\projects\\Blockchain\\app-for-drug-validation-\\contracts\\Ndu.sol",
  "compiler": {
    "name": "solc",
    "version": "0.8.0+commit.c7dfd78e.Emscripten.clang"
  },
  "schemaVersion": "3.4.3",
  "updatedAt": "2021-11-01T03:50:45.269Z",
  "networkType": "ethereum",
  "devdoc": {
    "kind": "dev",
    "methods": {
      "owner()": {
        "details": "Returns the address of the current owner."
      },
      "renounceOwnership()": {
        "details": "Leaves the contract without owner. It will not be possible to call `onlyOwner` functions anymore. Can only be called by the current owner. NOTE: Renouncing ownership will leave the contract without an owner, thereby removing any functionality that is only available to the owner."
      },
      "transferOwnership(address)": {
        "details": "Transfers ownership of the contract to a new account (`newOwner`). Can only be called by the current owner."
      }
    },
    "version": 1
  },
  "userdoc": {
    "kind": "user",
    "methods": {},
    "version": 1
  }
}