{
  "contractName": "Ndu",
  "abi": [
    {
      "inputs": [],
      "stateMutability": "nonpayable",
      "type": "constructor"
    },
    {
      "anonymous": false,
      "inputs": [
        {
          "indexed": true,
          "internalType": "address",
          "name": "previousOwner",
          "type": "address"
        },
        {
          "indexed": true,
          "internalType": "address",
          "name": "newOwner",
          "type": "address"
        }
      ],
      "name": "OwnershipTransferred",
      "type": "event"
    },
    {
      "inputs": [],
      "name": "balance",
      "outputs": [
        {
          "internalType": "uint256",
          "name": "",
          "type": "uint256"
        }
      ],
      "stateMutability": "view",
      "type": "function",
      "constant": true
    },
    {
      "inputs": [
        {
          "internalType": "uint256",
          "name": "",
          "type": "uint256"
        }
      ],
      "name": "companyId",
      "outputs": [
        {
          "internalType": "uint256",
          "name": "id",
          "type": "uint256"
        },
        {
          "internalType": "string",
          "name": "Name",
          "type": "string"
        },
        {
          "internalType": "string",
          "name": "ISOnumber",
          "type": "string"
        },
        {
          "internalType": "string",
          "name": "ipfsHashOfCompanyDetails",
          "type": "string"
        }
      ],
      "stateMutability": "view",
      "type": "function",
      "constant": true
    },
    {
      "inputs": [
        {
          "internalType": "uint256",
          "name": "",
          "type": "uint256"
        }
      ],
      "name": "drugDetails",
      "outputs": [
        {
          "internalType": "string",
          "name": "ipfsHashOfDrugDetails",
          "type": "string"
        }
      ],
      "stateMutability": "view",
      "type": "function",
      "constant": true
    },
    {
      "inputs": [
        {
          "internalType": "uint256",
          "name": "",
          "type": "uint256"
        }
      ],
      "name": "drugProduced",
      "outputs": [
        {
          "internalType": "uint256",
          "name": "id",
          "type": "uint256"
        },
        {
          "internalType": "string",
          "name": "Name",
          "type": "string"
        },
        {
          "internalType": "string",
          "name": "ISOnumber",
          "type": "string"
        },
        {
          "internalType": "string",
          "name": "ipfsHashOfCompanyDetails",
          "type": "string"
        }
      ],
      "stateMutability": "view",
      "type": "function",
      "constant": true
    },
    {
      "inputs": [],
      "name": "owner",
      "outputs": [
        {
          "internalType": "address",
          "name": "",
          "type": "address"
        }
      ],
      "stateMutability": "view",
      "type": "function",
      "constant": true
    },
    {
      "inputs": [],
      "name": "registerContract",
      "outputs": [
        {
          "internalType": "address",
          "name": "",
          "type": "address"
        }
      ],
      "stateMutability": "view",
      "type": "function",
      "constant": true
    },
    {
      "inputs": [
        {
          "internalType": "uint256",
          "name": "",
          "type": "uint256"
        }
      ],
      "name": "registerdCompanies",
      "outputs": [
        {
          "internalType": "uint256",
          "name": "id",
          "type": "uint256"
        },
        {
          "internalType": "string",
          "name": "Name",
          "type": "string"
        },
        {
          "internalType": "string",
          "name": "ISOnumber",
          "type": "string"
        },
        {
          "internalType": "string",
          "name": "ipfsHashOfCompanyDetails",
          "type": "string"
        }
      ],
      "stateMutability": "view",
      "type": "function",
      "constant": true
    },
    {
      "inputs": [],
      "name": "renounceOwnership",
      "outputs": [],
      "stateMutability": "nonpayable",
      "type": "function"
    },
    {
      "inputs": [
        {
          "internalType": "uint256",
          "name": "",
          "type": "uint256"
        }
      ],
      "name": "serialScanned",
      "outputs": [
        {
          "internalType": "bool",
          "name": "",
          "type": "bool"
        }
      ],
      "stateMutability": "view",
      "type": "function",
      "constant": true
    },
    {
      "inputs": [
        {
          "internalType": "uint256",
          "name": "",
          "type": "uint256"
        }
      ],
      "name": "storedSerial",
      "outputs": [
        {
          "internalType": "bool",
          "name": "",
          "type": "bool"
        }
      ],
      "stateMutability": "view",
      "type": "function",
      "constant": true
    },
    {
      "inputs": [
        {
          "internalType": "address",
          "name": "newOwner",
          "type": "address"
        }
      ],
      "name": "transferOwnership",
      "outputs": [],
      "stateMutability": "nonpayable",
      "type": "function"
    },
    {
      "inputs": [
        {
          "internalType": "uint256",
          "name": "_id",
          "type": "uint256"
        },
        {
          "internalType": "string",
          "name": "_name",
          "type": "string"
        },
        {
          "internalType": "string",
          "name": "_isonumber",
          "type": "string"
        },
        {
          "internalType": "string",
          "name": "_ipfsHashOfCompanyDetails",
          "type": "string"
        }
      ],
      "name": "register",
      "outputs": [],
      "stateMutability": "nonpayable",
      "type": "function"
    },
    {
      "inputs": [
        {
          "internalType": "uint256",
          "name": "_id",
          "type": "uint256"
        },
        {
          "internalType": "uint256",
          "name": "_serialNumber",
          "type": "uint256"
        },
        {
          "internalType": "string",
          "name": "_ipfsHashOfDrugDetails",
          "type": "string"
        }
      ],
      "name": "registerSerial",
      "outputs": [],
      "stateMutability": "nonpayable",
      "type": "function"
    },
    {
      "inputs": [
        {
          "internalType": "uint256",
          "name": "_serialNumber",
          "type": "uint256"
        }
      ],
      "name": "scanProduct",
      "outputs": [
        {
          "components": [
            {
              "internalType": "uint256",
              "name": "id",
              "type": "uint256"
            },
            {
              "internalType": "string",
              "name": "Name",
              "type": "string"
            },
            {
              "internalType": "string",
              "name": "ISOnumber",
              "type": "string"
            },
            {
              "internalType": "string",
              "name": "ipfsHashOfCompanyDetails",
              "type": "string"
            }
          ],
          "internalType": "struct Ndu.Company",
          "name": "",
          "type": "tuple"
        },
        {
          "components": [
            {
              "internalType": "string",
              "name": "ipfsHashOfDrugDetails",
              "type": "string"
            }
          ],
          "internalType": "struct Ndu.Drug",
          "name": "",
          "type": "tuple"
        }
      ],
      "stateMutability": "view",
      "type": "function",
      "constant": true
    },
    {
      "inputs": [
        {
          "internalType": "uint256",
          "name": "_serialNumber",
          "type": "uint256"
        }
      ],
      "name": "updateStatus",
      "outputs": [],
      "stateMutability": "nonpayable",
      "type": "function"
    },
    {
      "inputs": [
        {
          "internalType": "uint256",
          "name": "_serialNumber",
          "type": "uint256"
        }
      ],
      "name": "checkStatus",
      "outputs": [],
      "stateMutability": "nonpayable",
      "type": "function"
    },
    {
      "inputs": [
        {
          "internalType": "address",
          "name": "_newAdmin",
          "type": "address"
        }
      ],
      "name": "setAdmin",
      "outputs": [],
      "stateMutability": "nonpayable",
      "type": "function"
    },
    {
      "inputs": [
        {
          "internalType": "address",
          "name": "_registerContract",
          "type": "address"
        }
      ],
      "name": "setRegisterContract",
      "outputs": [],
      "stateMutability": "nonpayable",
      "type": "function"
    }
  ],
  "bytecode": "0x608060405234801561001057600080fd5b5061002d61002261007360201b60201c565b61007b60201b60201c565b33600260006101000a81548173ffffffffffffffffffffffffffffffffffffffff021916908373ffffffffffffffffffffffffffffffffffffffff16021790555061013f565b600033905090565b60008060009054906101000a900473ffffffffffffffffffffffffffffffffffffffff169050816000806101000a81548173ffffffffffffffffffffffffffffffffffffffff021916908373ffffffffffffffffffffffffffffffffffffffff1602179055508173ffffffffffffffffffffffffffffffffffffffff168173ffffffffffffffffffffffffffffffffffffffff167f8be0079c531659141344cd1fd0a4f28419497f9722a3daafe3b4186f6b6457e060405160405180910390a35050565b6120a5806200014f6000396000f3fe608060405234801561001057600080fd5b50600436106101165760003560e01c80637feffff3116100a2578063d61e720111610071578063d61e7201146102e8578063e150a2e814610304578063e23843ac14610320578063e396979514610351578063f2fde38b1461038157610116565b80637feffff31461025b5780638da5cb5b14610279578063a49f668914610297578063b69ef8a8146102ca57610116565b80632858c764116100e95780632858c764146101e15780633d59a0e2146101fd5780636c1bea5114610219578063704b6c0214610235578063715018a61461025157610116565b80630b3ef19a1461011b5780631a9081c21461014e5780631c7715791461017e578063269f732a146101b1575b600080fd5b6101356004803603810190610130919061183a565b61039d565b6040516101459493929190611e2e565b60405180910390f35b6101686004803603810190610163919061183a565b610565565b6040516101759190611cda565b60405180910390f35b6101986004803603810190610193919061183a565b61060b565b6040516101a89493929190611e2e565b60405180910390f35b6101cb60048036038101906101c6919061183a565b6107e3565b6040516101d89190611cbf565b60405180910390f35b6101fb60048036038101906101f6919061183a565b610803565b005b61021760048036038101906102129190611863565b6108c7565b005b610233600480360381019061022e919061190e565b610aa4565b005b61024f600480360381019061024a9190611811565b610c40565b005b610259610d14565b005b610263610d9c565b6040516102709190611ca4565b60405180910390f35b610281610dc2565b60405161028e9190611ca4565b60405180910390f35b6102b160048036038101906102ac919061183a565b610deb565b6040516102c19493929190611e2e565b60405180910390f35b6102d2610fb3565b6040516102df9190611e13565b60405180910390f35b61030260048036038101906102fd919061183a565b610fb9565b005b61031e60048036038101906103199190611811565b610fe8565b005b61033a6004803603810190610335919061183a565b6110bc565b604051610348929190611ddc565b60405180910390f35b61036b6004803603810190610366919061183a565b611430565b6040516103789190611cbf565b60405180910390f35b61039b60048036038101906103969190611811565b611450565b005b60066020528060005260406000206000915090508060000154908060010180546103c690611fa0565b80601f01602080910402602001604051908101604052809291908181526020018280546103f290611fa0565b801561043f5780601f106104145761010080835404028352916020019161043f565b820191906000526020600020905b81548152906001019060200180831161042257829003601f168201915b50505050509080600201805461045490611fa0565b80601f016020809104026020016040519081016040528092919081815260200182805461048090611fa0565b80156104cd5780601f106104a2576101008083540402835291602001916104cd565b820191906000526020600020905b8154815290600101906020018083116104b057829003601f168201915b5050505050908060030180546104e290611fa0565b80601f016020809104026020016040519081016040528092919081815260200182805461050e90611fa0565b801561055b5780601f106105305761010080835404028352916020019161055b565b820191906000526020600020905b81548152906001019060200180831161053e57829003601f168201915b5050505050905084565b600a60205280600052604060002060009150905080600001805461058890611fa0565b80601f01602080910402602001604051908101604052809291908181526020018280546105b490611fa0565b80156106015780601f106105d657610100808354040283529160200191610601565b820191906000526020600020905b8154815290600101906020018083116105e457829003601f168201915b5050505050905081565b6005818154811061061b57600080fd5b906000526020600020906004020160009150905080600001549080600101805461064490611fa0565b80601f016020809104026020016040519081016040528092919081815260200182805461067090611fa0565b80156106bd5780601f10610692576101008083540402835291602001916106bd565b820191906000526020600020905b8154815290600101906020018083116106a057829003601f168201915b5050505050908060020180546106d290611fa0565b80601f01602080910402602001604051908101604052809291908181526020018280546106fe90611fa0565b801561074b5780601f106107205761010080835404028352916020019161074b565b820191906000526020600020905b81548152906001019060200180831161072e57829003601f168201915b50505050509080600301805461076090611fa0565b80601f016020809104026020016040519081016040528092919081815260200182805461078c90611fa0565b80156107d95780601f106107ae576101008083540402835291602001916107d9565b820191906000526020600020905b8154815290600101906020018083116107bc57829003601f168201915b5050505050905084565b60076020528060005260406000206000915054906101000a900460ff1681565b6007600082815260200190815260200160002060009054906101000a900460ff16610863576040517f08c379a000000000000000000000000000000000000000000000000000000000815260040161085a90611d1c565b60405180910390fd5b6009600082815260200190815260200160002060009054906101000a900460ff16156108c4576040517f08c379a00000000000000000000000000000000000000000000000000000000081526004016108bb90611d9c565b60405180910390fd5b50565b600360009054906101000a900473ffffffffffffffffffffffffffffffffffffffff1673ffffffffffffffffffffffffffffffffffffffff163373ffffffffffffffffffffffffffffffffffffffff1614610957576040517f08c379a000000000000000000000000000000000000000000000000000000000815260040161094e90611d3c565b60405180910390fd5b604051806080016040528085815260200184815260200183815260200182815250600660008681526020019081526020016000206000820151816000015560208201518160010190805190602001906109b1929190611614565b5060408201518160020190805190602001906109ce929190611614565b5060608201518160030190805190602001906109eb929190611614565b5090505060056040518060800160405280868152602001858152602001848152602001838152509080600181540180825580915050600190039060005260206000209060040201600090919091909150600082015181600001556020820151816001019080519060200190610a61929190611614565b506040820151816002019080519060200190610a7e929190611614565b506060820151816003019080519060200190610a9b929190611614565b50505050505050565b600360009054906101000a900473ffffffffffffffffffffffffffffffffffffffff1673ffffffffffffffffffffffffffffffffffffffff163373ffffffffffffffffffffffffffffffffffffffff1614610b34576040517f08c379a0000000000000000000000000000000000000000000000000000000008152600401610b2b90611d3c565b60405180910390fd5b60006006600085815260200190815260200160002090508060086000858152602001908152602001600020600082015481600001556001820181600101908054610b7d90611fa0565b610b8892919061169a565b506002820181600201908054610b9d90611fa0565b610ba892919061169a565b506003820181600301908054610bbd90611fa0565b610bc892919061169a565b50905050604051806020016040528083815250600a60008581526020019081526020016000206000820151816000019080519060200190610c0a929190611614565b5090505060016007600085815260200190815260200160002060006101000a81548160ff02191690831515021790555050505050565b600260009054906101000a900473ffffffffffffffffffffffffffffffffffffffff1673ffffffffffffffffffffffffffffffffffffffff163373ffffffffffffffffffffffffffffffffffffffff1614610cd0576040517f08c379a0000000000000000000000000000000000000000000000000000000008152600401610cc790611d5c565b60405180910390fd5b80600260006101000a81548173ffffffffffffffffffffffffffffffffffffffff021916908373ffffffffffffffffffffffffffffffffffffffff16021790555050565b610d1c611548565b73ffffffffffffffffffffffffffffffffffffffff16610d3a610dc2565b73ffffffffffffffffffffffffffffffffffffffff1614610d90576040517f08c379a0000000000000000000000000000000000000000000000000000000008152600401610d8790611dbc565b60405180910390fd5b610d9a6000611550565b565b600360009054906101000a900473ffffffffffffffffffffffffffffffffffffffff1681565b60008060009054906101000a900473ffffffffffffffffffffffffffffffffffffffff16905090565b6008602052806000526040600020600091509050806000015490806001018054610e1490611fa0565b80601f0160208091040260200160405190810160405280929190818152602001828054610e4090611fa0565b8015610e8d5780601f10610e6257610100808354040283529160200191610e8d565b820191906000526020600020905b815481529060010190602001808311610e7057829003601f168201915b505050505090806002018054610ea290611fa0565b80601f0160208091040260200160405190810160405280929190818152602001828054610ece90611fa0565b8015610f1b5780601f10610ef057610100808354040283529160200191610f1b565b820191906000526020600020905b815481529060010190602001808311610efe57829003601f168201915b505050505090806003018054610f3090611fa0565b80601f0160208091040260200160405190810160405280929190818152602001828054610f5c90611fa0565b8015610fa95780601f10610f7e57610100808354040283529160200191610fa9565b820191906000526020600020905b815481529060010190602001808311610f8c57829003601f168201915b5050505050905084565b60045481565b60016009600083815260200190815260200160002060006101000a81548160ff02191690831515021790555050565b600260009054906101000a900473ffffffffffffffffffffffffffffffffffffffff1673ffffffffffffffffffffffffffffffffffffffff163373ffffffffffffffffffffffffffffffffffffffff1614611078576040517f08c379a000000000000000000000000000000000000000000000000000000000815260040161106f90611d5c565b60405180910390fd5b80600360006101000a81548173ffffffffffffffffffffffffffffffffffffffff021916908373ffffffffffffffffffffffffffffffffffffffff16021790555050565b6110c4611727565b6110cc61174f565b6007600084815260200190815260200160002060009054906101000a900460ff1661112c576040517f08c379a000000000000000000000000000000000000000000000000000000000815260040161112390611d7c565b60405180910390fd5b6009600084815260200190815260200160002060009054906101000a900460ff161561118d576040517f08c379a000000000000000000000000000000000000000000000000000000000815260040161118490611d9c565b60405180910390fd5b600060086000858152602001908152602001600020604051806080016040529081600082015481526020016001820180546111c790611fa0565b80601f01602080910402602001604051908101604052809291908181526020018280546111f390611fa0565b80156112405780601f1061121557610100808354040283529160200191611240565b820191906000526020600020905b81548152906001019060200180831161122357829003601f168201915b5050505050815260200160028201805461125990611fa0565b80601f016020809104026020016040519081016040528092919081815260200182805461128590611fa0565b80156112d25780601f106112a7576101008083540402835291602001916112d2565b820191906000526020600020905b8154815290600101906020018083116112b557829003601f168201915b505050505081526020016003820180546112eb90611fa0565b80601f016020809104026020016040519081016040528092919081815260200182805461131790611fa0565b80156113645780601f1061133957610100808354040283529160200191611364565b820191906000526020600020905b81548152906001019060200180831161134757829003601f168201915b50505050508152505090506000600a600086815260200190815260200160002060405180602001604052908160008201805461139f90611fa0565b80601f01602080910402602001604051908101604052809291908181526020018280546113cb90611fa0565b80156114185780601f106113ed57610100808354040283529160200191611418565b820191906000526020600020905b8154815290600101906020018083116113fb57829003601f168201915b50505050508152505090508181935093505050915091565b60096020528060005260406000206000915054906101000a900460ff1681565b611458611548565b73ffffffffffffffffffffffffffffffffffffffff16611476610dc2565b73ffffffffffffffffffffffffffffffffffffffff16146114cc576040517f08c379a00000000000000000000000000000000000000000000000000000000081526004016114c390611dbc565b60405180910390fd5b600073ffffffffffffffffffffffffffffffffffffffff168173ffffffffffffffffffffffffffffffffffffffff16141561153c576040517f08c379a000000000000000000000000000000000000000000000000000000000815260040161153390611cfc565b60405180910390fd5b61154581611550565b50565b600033905090565b60008060009054906101000a900473ffffffffffffffffffffffffffffffffffffffff169050816000806101000a81548173ffffffffffffffffffffffffffffffffffffffff021916908373ffffffffffffffffffffffffffffffffffffffff1602179055508173ffffffffffffffffffffffffffffffffffffffff168173ffffffffffffffffffffffffffffffffffffffff167f8be0079c531659141344cd1fd0a4f28419497f9722a3daafe3b4186f6b6457e060405160405180910390a35050565b82805461162090611fa0565b90600052602060002090601f0160209004810192826116425760008555611689565b82601f1061165b57805160ff1916838001178555611689565b82800160010185558215611689579182015b8281111561168857825182559160200191906001019061166d565b5b5090506116969190611762565b5090565b8280546116a690611fa0565b90600052602060002090601f0160209004810192826116c85760008555611716565b82601f106116d95780548555611716565b8280016001018555821561171657600052602060002091601f016020900482015b828111156117155782548255916001019190600101906116fa565b5b5090506117239190611762565b5090565b6040518060800160405280600081526020016060815260200160608152602001606081525090565b6040518060200160405280606081525090565b5b8082111561177b576000816000905550600101611763565b5090565b600061179261178d84611eb9565b611e88565b9050828152602081018484840111156117aa57600080fd5b6117b5848285611f5e565b509392505050565b6000813590506117cc81612041565b92915050565b600082601f8301126117e357600080fd5b81356117f384826020860161177f565b91505092915050565b60008135905061180b81612058565b92915050565b60006020828403121561182357600080fd5b6000611831848285016117bd565b91505092915050565b60006020828403121561184c57600080fd5b600061185a848285016117fc565b91505092915050565b6000806000806080858703121561187957600080fd5b6000611887878288016117fc565b945050602085013567ffffffffffffffff8111156118a457600080fd5b6118b0878288016117d2565b935050604085013567ffffffffffffffff8111156118cd57600080fd5b6118d9878288016117d2565b925050606085013567ffffffffffffffff8111156118f657600080fd5b611902878288016117d2565b91505092959194509250565b60008060006060848603121561192357600080fd5b6000611931868287016117fc565b9350506020611942868287016117fc565b925050604084013567ffffffffffffffff81111561195f57600080fd5b61196b868287016117d2565b9150509250925092565b61197e81611f16565b82525050565b61198d81611f28565b82525050565b600061199e82611ee9565b6119a88185611ef4565b93506119b8818560208601611f6d565b6119c181612030565b840191505092915050565b60006119d782611ee9565b6119e18185611f05565b93506119f1818560208601611f6d565b6119fa81612030565b840191505092915050565b6000611a12602683611f05565b91507f4f776e61626c653a206e6577206f776e657220697320746865207a65726f206160008301527f64647265737300000000000000000000000000000000000000000000000000006020830152604082019050919050565b6000611a78601683611f05565b91507f73657269616c206e6f74207265676973746572656420000000000000000000006000830152602082019050919050565b6000611ab8601f83611f05565b91507f4f6e6c7920526567697374657220436f6e74726163742063616e2063616c6c006000830152602082019050919050565b6000611af8601383611f05565b91507f6f6e6c792061646d696e2063616e2063616c6c000000000000000000000000006000830152602082019050919050565b6000611b38601983611f05565b91507f73657269616c206973206e6f74207265676973746572656420000000000000006000830152602082019050919050565b6000611b78601583611f05565b91507f6472756720686173206265656e207363616e6e656400000000000000000000006000830152602082019050919050565b6000611bb8602083611f05565b91507f4f776e61626c653a2063616c6c6572206973206e6f7420746865206f776e65726000830152602082019050919050565b6000608083016000830151611c036000860182611c86565b5060208301518482036020860152611c1b8282611993565b91505060408301518482036040860152611c358282611993565b91505060608301518482036060860152611c4f8282611993565b9150508091505092915050565b60006020830160008301518482036000860152611c798282611993565b9150508091505092915050565b611c8f81611f54565b82525050565b611c9e81611f54565b82525050565b6000602082019050611cb96000830184611975565b92915050565b6000602082019050611cd46000830184611984565b92915050565b60006020820190508181036000830152611cf481846119cc565b905092915050565b60006020820190508181036000830152611d1581611a05565b9050919050565b60006020820190508181036000830152611d3581611a6b565b9050919050565b60006020820190508181036000830152611d5581611aab565b9050919050565b60006020820190508181036000830152611d7581611aeb565b9050919050565b60006020820190508181036000830152611d9581611b2b565b9050919050565b60006020820190508181036000830152611db581611b6b565b9050919050565b60006020820190508181036000830152611dd581611bab565b9050919050565b60006040820190508181036000830152611df68185611beb565b90508181036020830152611e0a8184611c5c565b90509392505050565b6000602082019050611e286000830184611c95565b92915050565b6000608082019050611e436000830187611c95565b8181036020830152611e5581866119cc565b90508181036040830152611e6981856119cc565b90508181036060830152611e7d81846119cc565b905095945050505050565b6000604051905081810181811067ffffffffffffffff82111715611eaf57611eae612001565b5b8060405250919050565b600067ffffffffffffffff821115611ed457611ed3612001565b5b601f19601f8301169050602081019050919050565b600081519050919050565b600082825260208201905092915050565b600082825260208201905092915050565b6000611f2182611f34565b9050919050565b60008115159050919050565b600073ffffffffffffffffffffffffffffffffffffffff82169050919050565b6000819050919050565b82818337600083830152505050565b60005b83811015611f8b578082015181840152602081019050611f70565b83811115611f9a576000848401525b50505050565b60006002820490506001821680611fb857607f821691505b60208210811415611fcc57611fcb611fd2565b5b50919050565b7f4e487b7100000000000000000000000000000000000000000000000000000000600052602260045260246000fd5b7f4e487b7100000000000000000000000000000000000000000000000000000000600052604160045260246000fd5b6000601f19601f8301169050919050565b61204a81611f16565b811461205557600080fd5b50565b61206181611f54565b811461206c57600080fd5b5056fea264697066735822122027b22c629cc0259015605f2a39d754dde4fca7a74233e409426563c5b9f01bcb64736f6c63430008000033",
  "immutableReferences": {},
  "source": "// SPDX-License-Identifier: MIT\r\npragma solidity 0.8.0;\r\n\r\nimport \"@openzeppelin/contracts/token/ERC20/IERC20.sol\";\r\nimport \"@openzeppelin/contracts/access/Ownable.sol\";\r\n\r\npragma experimental ABIEncoderV2;\r\n\r\ncontract Ndu is Ownable {\r\n\r\n    uint companyCount;\r\n    // address owner;\r\n    address admin;\r\n    address public registerContract;\r\n    uint public balance;\r\n    \r\n    constructor() public {\r\n        admin = msg.sender;\r\n    }\r\n\r\n    // function receive() external payable {\r\n    //     balance = msg.value;\r\n    // }\r\n    \r\n    \r\n    // This represents a single Company \r\n    struct Company {\r\n        uint id;\r\n        string Name;\r\n        string ISOnumber;\r\n        string ipfsHashOfCompanyDetails;\r\n    }\r\n\r\n    // This represents a single drug\r\n    struct Drug {\r\n        string ipfsHashOfDrugDetails;\r\n    }\r\n\r\n\r\n\r\n    Company[] public registerdCompanies;\r\n\r\n    // This keeps track of a registered company Id\r\n    mapping(uint => Company) public companyId;\r\n\r\n    \r\n\r\n    // companies variable stores a 'Company' struct for each possible address\r\n    // mapping(address => Company) public companies;\r\n\r\n\r\n\r\n\r\n    // keep track of registered serial\r\n    mapping(uint => bool) public storedSerial;\r\n\r\n\r\n    // keep track of products registered by a company\r\n    mapping(uint => Company ) public drugProduced;\r\n\r\n    // keep track of Scanned Products\r\n    mapping(uint => bool) public serialScanned;\r\n\r\n\r\n    // keep track of drug details\r\n    mapping(uint => Drug) public drugDetails;\r\n\r\n\r\n    modifier onlyAdmin(){\r\n        require(msg.sender == admin, \"only admin can call\");\r\n        _;\r\n    }\r\n    \r\n    \r\n\r\n    function register(uint _id, string memory _name, string memory _isonumber, string memory _ipfsHashOfCompanyDetails ) public {\r\n        require(msg.sender == registerContract, \"Only Register Contract can call\");\r\n        // companies[_callerCompanyAddress] = Company(_id, _name, _isonumber, _ipfsHashOfCompanyDetails);\r\n        companyId[_id] = Company(_id, _name, _isonumber, _ipfsHashOfCompanyDetails);\r\n        registerdCompanies.push(Company(_id, _name, _isonumber, _ipfsHashOfCompanyDetails));\r\n        // registered[_callerCompanyAddress] = true;\r\n    }\r\n\r\n     \r\n\r\n    function registerSerial(uint _id, uint _serialNumber, string memory _ipfsHashOfDrugDetails) public {\r\n        require(msg.sender == registerContract, \"Only Register Contract can call\");\r\n        // require(registered[_caller], \"company address not registered\");\r\n        Company storage company = companyId[_id];\r\n        drugProduced[_serialNumber] = company;\r\n        drugDetails[_serialNumber] = Drug(_ipfsHashOfDrugDetails);\r\n        storedSerial[_serialNumber] = true;\r\n    }\r\n\r\n\r\n\r\n    function scanProduct(uint _serialNumber ) public view  returns(Company memory, Drug memory)\r\n\r\n        {\r\n            require(storedSerial[_serialNumber], \"serial is not registered \");\r\n            require(!serialScanned[_serialNumber], \"drug has been scanned\");\r\n            Company memory company = drugProduced[_serialNumber];\r\n            Drug memory drug = drugDetails[_serialNumber];\r\n            \r\n            return (company, drug) ;\r\n                \r\n        }\r\n        \r\n        \r\n        \r\n    function updateStatus(uint _serialNumber) public {\r\n        serialScanned[_serialNumber] = true;\r\n    }\r\n    \r\n    function checkStatus(uint _serialNumber) public  {\r\n        require(storedSerial[_serialNumber], \"serial not registered \");\r\n        require(!serialScanned[_serialNumber], \"drug has been scanned\");\r\n    }\r\n\r\n    \r\n\r\n    function setAdmin(address _newAdmin) public onlyAdmin {\r\n        admin = _newAdmin;\r\n    }\r\n\r\n    function setRegisterContract(address _registerContract) public onlyAdmin {\r\n        registerContract = _registerContract;\r\n    }\r\n\r\n  \r\n\r\n}\r\n\r\n\r\ncontract Register {\r\n\r\n    IERC20 governanceToken;\r\n    uint public minimumTokenRequired;\r\n    address public admin;\r\n    Ndu public ndu;\r\n    \r\n    // this keeps track of company address registerd\r\n    mapping(address => bool) public registered;\r\n    \r\n    \r\n    \r\n    mapping(address => uint) public companyId;\r\n\r\n    // events\r\n    event companyRegister(address indexed _companyAddress, string _name, string _isonumber, string _ipfsHashOfCompanyDetails );\r\n    event drugRegister(address indexed _sender, uint indexed _serialNumber, string ipfsHashOfDrugDetails);\r\n\r\n\r\n\r\n\r\n    constructor(address _governanceToken, address payable _nduContract,  uint _minimumTokenRequired) public {\r\n        governanceToken = IERC20(_governanceToken);\r\n        admin = msg.sender;\r\n        ndu = Ndu(_nduContract);\r\n        minimumTokenRequired = _minimumTokenRequired;\r\n    }\r\n\r\n\r\n    modifier onlyAdmin(){\r\n        require(msg.sender == admin, \"only admin can call\");\r\n        _;\r\n    }\r\n\r\n\r\n\r\n\r\n\r\n    function registerCompany( uint256 _id, string memory _name, string memory _isonumber, string memory _ipfsHashOfCompanyDetails ) public  {\r\n        require(governanceToken.balanceOf(msg.sender) >= minimumTokenRequired, \"insufficient balance\");\r\n        governanceToken.transferFrom(msg.sender, admin, minimumTokenRequired);\r\n        \r\n        ndu.register( _id,_name,_isonumber,_ipfsHashOfCompanyDetails);\r\n\r\n        companyId[msg.sender] = _id;\r\n        registered[msg.sender] = true;\r\n\r\n        emit companyRegister(msg.sender, _name, _isonumber, _ipfsHashOfCompanyDetails);\r\n    }\r\n    \r\n\r\n\r\n\r\n\r\n    function registerSerialNumber( uint _serialNumber, string memory _ipfsHashOfDrugDetails ) public {\r\n        require(registered[msg.sender], \"Caller not registered\");\r\n        uint _id = companyId[msg.sender];\r\n         ndu.registerSerial(_id,_serialNumber,_ipfsHashOfDrugDetails);\r\n\r\n        emit drugRegister(msg.sender, _serialNumber, _ipfsHashOfDrugDetails);\r\n    }\r\n\r\n\r\n\r\n    function setMinimumTokenRequired(uint _minimumTokenrequired) public onlyAdmin {\r\n        minimumTokenRequired = _minimumTokenrequired;\r\n    }\r\n}\r\n\r\n\r\ncontract ScanProduct {\r\n    IERC20 public governanceToken;\r\n    Ndu public ndu;\r\n    address public admin;\r\n    \r\n    constructor(address payable _nduContract, address _governanceToken) public {\r\n        governanceToken = IERC20(_governanceToken);\r\n        ndu = Ndu(_nduContract);\r\n        admin = msg.sender;\r\n        \r\n        \r\n    }\r\n    \r\n    function Scan(uint _serialNumber) public {\r\n        // scan Product\r\n        ndu.scanProduct(_serialNumber);\r\n        // update scan status\r\n        ndu.updateStatus(_serialNumber);\r\n    }\r\n}",
  "sourcePath": "C:\\Users\\CHIDIEBERE-PC\\Desktop\\projects\\Blockchain\\app-for-drug-validation-\\contracts\\Ndu.sol",
  "compiler": {
    "name": "solc",
    "version": "0.8.0+commit.c7dfd78e.Emscripten.clang"
  },
  "schemaVersion": "3.4.3",
  "updatedAt": "2021-10-30T00:05:10.957Z",
  "networkType": "ethereum",
  "devdoc": {
    "kind": "dev",
    "methods": {
      "owner()": {
        "details": "Returns the address of the current owner."
      },
      "renounceOwnership()": {
        "details": "Leaves the contract without owner. It will not be possible to call `onlyOwner` functions anymore. Can only be called by the current owner. NOTE: Renouncing ownership will leave the contract without an owner, thereby removing any functionality that is only available to the owner."
      },
      "transferOwnership(address)": {
        "details": "Transfers ownership of the contract to a new account (`newOwner`). Can only be called by the current owner."
      }
    },
    "version": 1
  },
  "userdoc": {
    "kind": "user",
    "methods": {},
    "version": 1
  }
}