{
  "contractName": "Ndu",
  "abi": [
    {
      "inputs": [],
      "stateMutability": "nonpayable",
      "type": "constructor"
    },
    {
      "anonymous": false,
      "inputs": [
        {
          "indexed": true,
          "internalType": "address",
          "name": "previousOwner",
          "type": "address"
        },
        {
          "indexed": true,
          "internalType": "address",
          "name": "newOwner",
          "type": "address"
        }
      ],
      "name": "OwnershipTransferred",
      "type": "event"
    },
    {
      "anonymous": false,
      "inputs": [
        {
          "indexed": false,
          "internalType": "string",
          "name": "serialNumber",
          "type": "string"
        },
        {
          "indexed": false,
          "internalType": "string",
          "name": "companyDetails",
          "type": "string"
        },
        {
          "indexed": false,
          "internalType": "string",
          "name": "DrugDetails",
          "type": "string"
        }
      ],
      "name": "Scanned",
      "type": "event"
    },
    {
      "inputs": [],
      "name": "balance",
      "outputs": [
        {
          "internalType": "uint256",
          "name": "",
          "type": "uint256"
        }
      ],
      "stateMutability": "view",
      "type": "function",
      "constant": true
    },
    {
      "inputs": [
        {
          "internalType": "uint256",
          "name": "",
          "type": "uint256"
        }
      ],
      "name": "company",
      "outputs": [
        {
          "internalType": "uint256",
          "name": "id",
          "type": "uint256"
        },
        {
          "internalType": "string",
          "name": "name",
          "type": "string"
        },
        {
          "internalType": "string",
          "name": "isoNumber",
          "type": "string"
        },
        {
          "internalType": "string",
          "name": "ipfsHashOfCompanyDetails",
          "type": "string"
        },
        {
          "internalType": "uint256",
          "name": "date",
          "type": "uint256"
        }
      ],
      "stateMutability": "view",
      "type": "function",
      "constant": true
    },
    {
      "inputs": [
        {
          "internalType": "string",
          "name": "",
          "type": "string"
        }
      ],
      "name": "drugDetails",
      "outputs": [
        {
          "internalType": "string",
          "name": "",
          "type": "string"
        }
      ],
      "stateMutability": "view",
      "type": "function",
      "constant": true
    },
    {
      "inputs": [
        {
          "internalType": "string",
          "name": "",
          "type": "string"
        }
      ],
      "name": "drugProduced",
      "outputs": [
        {
          "internalType": "uint256",
          "name": "id",
          "type": "uint256"
        },
        {
          "internalType": "string",
          "name": "name",
          "type": "string"
        },
        {
          "internalType": "string",
          "name": "isoNumber",
          "type": "string"
        },
        {
          "internalType": "string",
          "name": "ipfsHashOfCompanyDetails",
          "type": "string"
        },
        {
          "internalType": "uint256",
          "name": "date",
          "type": "uint256"
        }
      ],
      "stateMutability": "view",
      "type": "function",
      "constant": true
    },
    {
      "inputs": [
        {
          "internalType": "string",
          "name": "",
          "type": "string"
        },
        {
          "internalType": "uint256",
          "name": "",
          "type": "uint256"
        }
      ],
      "name": "drugSerials",
      "outputs": [
        {
          "internalType": "string",
          "name": "",
          "type": "string"
        }
      ],
      "stateMutability": "view",
      "type": "function",
      "constant": true
    },
    {
      "inputs": [],
      "name": "owner",
      "outputs": [
        {
          "internalType": "address",
          "name": "",
          "type": "address"
        }
      ],
      "stateMutability": "view",
      "type": "function",
      "constant": true
    },
    {
      "inputs": [],
      "name": "registerContract",
      "outputs": [
        {
          "internalType": "address",
          "name": "",
          "type": "address"
        }
      ],
      "stateMutability": "view",
      "type": "function",
      "constant": true
    },
    {
      "inputs": [
        {
          "internalType": "uint256",
          "name": "",
          "type": "uint256"
        }
      ],
      "name": "registerdCompanies",
      "outputs": [
        {
          "internalType": "uint256",
          "name": "id",
          "type": "uint256"
        },
        {
          "internalType": "string",
          "name": "name",
          "type": "string"
        },
        {
          "internalType": "string",
          "name": "isoNumber",
          "type": "string"
        },
        {
          "internalType": "string",
          "name": "ipfsHashOfCompanyDetails",
          "type": "string"
        },
        {
          "internalType": "uint256",
          "name": "date",
          "type": "uint256"
        }
      ],
      "stateMutability": "view",
      "type": "function",
      "constant": true
    },
    {
      "inputs": [],
      "name": "renounceOwnership",
      "outputs": [],
      "stateMutability": "nonpayable",
      "type": "function"
    },
    {
      "inputs": [
        {
          "internalType": "string",
          "name": "",
          "type": "string"
        }
      ],
      "name": "serialScanned",
      "outputs": [
        {
          "internalType": "bool",
          "name": "",
          "type": "bool"
        }
      ],
      "stateMutability": "view",
      "type": "function",
      "constant": true
    },
    {
      "inputs": [
        {
          "internalType": "string",
          "name": "",
          "type": "string"
        }
      ],
      "name": "storedSerial",
      "outputs": [
        {
          "internalType": "bool",
          "name": "",
          "type": "bool"
        }
      ],
      "stateMutability": "view",
      "type": "function",
      "constant": true
    },
    {
      "inputs": [
        {
          "internalType": "address",
          "name": "newOwner",
          "type": "address"
        }
      ],
      "name": "transferOwnership",
      "outputs": [],
      "stateMutability": "nonpayable",
      "type": "function"
    },
    {
      "inputs": [
        {
          "internalType": "uint256",
          "name": "_id",
          "type": "uint256"
        },
        {
          "internalType": "string",
          "name": "_name",
          "type": "string"
        },
        {
          "internalType": "string",
          "name": "_isonumber",
          "type": "string"
        },
        {
          "internalType": "string",
          "name": "_ipfsHashOfCompanyDetails",
          "type": "string"
        }
      ],
      "name": "register",
      "outputs": [],
      "stateMutability": "nonpayable",
      "type": "function"
    },
    {
      "inputs": [
        {
          "internalType": "uint256",
          "name": "_id",
          "type": "uint256"
        },
        {
          "internalType": "string[]",
          "name": "_serialNumbers",
          "type": "string[]"
        },
        {
          "internalType": "string",
          "name": "_ipfsHashOfDrugDetails",
          "type": "string"
        }
      ],
      "name": "registerSerial",
      "outputs": [],
      "stateMutability": "nonpayable",
      "type": "function"
    },
    {
      "inputs": [
        {
          "internalType": "string",
          "name": "_serialNumber",
          "type": "string"
        }
      ],
      "name": "scanProduct",
      "outputs": [
        {
          "components": [
            {
              "internalType": "uint256",
              "name": "id",
              "type": "uint256"
            },
            {
              "internalType": "string",
              "name": "name",
              "type": "string"
            },
            {
              "internalType": "string",
              "name": "isoNumber",
              "type": "string"
            },
            {
              "internalType": "string",
              "name": "ipfsHashOfCompanyDetails",
              "type": "string"
            },
            {
              "internalType": "uint256",
              "name": "date",
              "type": "uint256"
            }
          ],
          "internalType": "struct Ndu.Company",
          "name": "",
          "type": "tuple"
        },
        {
          "internalType": "string",
          "name": "",
          "type": "string"
        }
      ],
      "stateMutability": "nonpayable",
      "type": "function"
    },
    {
      "inputs": [
        {
          "internalType": "string",
          "name": "_serialNumber",
          "type": "string"
        }
      ],
      "name": "checkStatus",
      "outputs": [],
      "stateMutability": "view",
      "type": "function",
      "constant": true
    },
    {
      "inputs": [
        {
          "internalType": "address",
          "name": "_newAdmin",
          "type": "address"
        }
      ],
      "name": "setAdmin",
      "outputs": [],
      "stateMutability": "nonpayable",
      "type": "function"
    },
    {
      "inputs": [
        {
          "internalType": "address",
          "name": "_registerContract",
          "type": "address"
        }
      ],
      "name": "setRegisterContract",
      "outputs": [],
      "stateMutability": "nonpayable",
      "type": "function"
    }
  ],
  "bytecode": "0x60806040523480156200001157600080fd5b5062000032620000266200007960201b60201c565b6200008160201b60201c565b33600260006101000a81548173ffffffffffffffffffffffffffffffffffffffff021916908373ffffffffffffffffffffffffffffffffffffffff16021790555062000145565b600033905090565b60008060009054906101000a900473ffffffffffffffffffffffffffffffffffffffff169050816000806101000a81548173ffffffffffffffffffffffffffffffffffffffff021916908373ffffffffffffffffffffffffffffffffffffffff1602179055508173ffffffffffffffffffffffffffffffffffffffff168173ffffffffffffffffffffffffffffffffffffffff167f8be0079c531659141344cd1fd0a4f28419497f9722a3daafe3b4186f6b6457e060405160405180910390a35050565b6127e780620001556000396000f3fe608060405234801561001057600080fd5b50600436106101165760003560e01c80638da5cb5b116100a2578063c10b15e711610071578063c10b15e7146102e7578063e150a2e814610317578063eacebba314610333578063f2fde38b14610367578063f7e7ce4d1461038357610116565b80638da5cb5b1461025b5780639b49cef514610279578063b69ef8a814610295578063b98709c5146102b357610116565b806344b0a995116100e957806344b0a995146101cb5780634be1218d146101e7578063704b6c0214610217578063715018a6146102335780637feffff31461023d57610116565b80631c7715791461011b5780631f45a6d11461014f57806320e97dc71461017f5780633d59a0e2146101af575b600080fd5b61013560048036038101906101309190611e8a565b6103b4565b6040516101469594939291906124b3565b60405180910390f35b61016960048036038101906101649190611df5565b610592565b6040516101769190612318565b60405180910390f35b61019960048036038101906101949190611df5565b6105c8565b6040516101a69190612333565b60405180910390f35b6101c960048036038101906101c49190611f32565b61067e565b005b6101e560048036038101906101e09190611df5565b61087b565b005b61020160048036038101906101fc9190611e36565b610955565b60405161020e9190612333565b60405180910390f35b610231600480360381019061022c9190611dcc565b610a24565b005b61023b610af8565b005b610245610b80565b60405161025291906122fd565b60405180910390f35b610263610ba6565b60405161027091906122fd565b60405180910390f35b610293600480360381019061028e9190611eb3565b610bcf565b005b61029d611085565b6040516102aa9190612498565b60405180910390f35b6102cd60048036038101906102c89190611df5565b61108b565b6040516102de9594939291906124b3565b60405180910390f35b61030160048036038101906102fc9190611df5565b61126f565b60405161030e9190612318565b60405180910390f35b610331600480360381019061032c9190611dcc565b6112a5565b005b61034d60048036038101906103489190611e8a565b611379565b60405161035e9594939291906124b3565b60405180910390f35b610381600480360381019061037c9190611dcc565b611547565b005b61039d60048036038101906103989190611df5565b61163f565b6040516103ab929190612461565b60405180910390f35b600581815481106103c457600080fd5b90600052602060002090600502016000915090508060000154908060010180546103ed9061266a565b80601f01602080910402602001604051908101604052809291908181526020018280546104199061266a565b80156104665780601f1061043b57610100808354040283529160200191610466565b820191906000526020600020905b81548152906001019060200180831161044957829003601f168201915b50505050509080600201805461047b9061266a565b80601f01602080910402602001604051908101604052809291908181526020018280546104a79061266a565b80156104f45780601f106104c9576101008083540402835291602001916104f4565b820191906000526020600020905b8154815290600101906020018083116104d757829003601f168201915b5050505050908060030180546105099061266a565b80601f01602080910402602001604051908101604052809291908181526020018280546105359061266a565b80156105825780601f1061055757610100808354040283529160200191610582565b820191906000526020600020905b81548152906001019060200180831161056557829003601f168201915b5050505050908060040154905085565b6008818051602081018201805184825260208301602085012081835280955050505050506000915054906101000a900460ff1681565b600b8180516020810182018051848252602083016020850120818352809550505050505060009150905080546105fd9061266a565b80601f01602080910402602001604051908101604052809291908181526020018280546106299061266a565b80156106765780601f1061064b57610100808354040283529160200191610676565b820191906000526020600020905b81548152906001019060200180831161065957829003601f168201915b505050505081565b600360009054906101000a900473ffffffffffffffffffffffffffffffffffffffff1673ffffffffffffffffffffffffffffffffffffffff163373ffffffffffffffffffffffffffffffffffffffff161461070e576040517f08c379a0000000000000000000000000000000000000000000000000000000008152600401610705906123e1565b60405180910390fd5b6040518060a00160405280858152602001848152602001838152602001828152602001428152506006600086815260200190815260200160002060008201518160000155602082015181600101908051906020019061076e929190611b1d565b50604082015181600201908051906020019061078b929190611b1d565b5060608201518160030190805190602001906107a8929190611b1d565b506080820151816004015590505060056040518060a0016040528086815260200185815260200184815260200183815260200142815250908060018154018082558091505060019003906000526020600020906005020160009091909190915060008201518160000155602082015181600101908051906020019061082e929190611b1d565b50604082015181600201908051906020019061084b929190611b1d565b506060820151816003019080519060200190610868929190611b1d565b5060808201518160040155505050505050565b60088160405161088b91906122e6565b908152602001604051809103902060009054906101000a900460ff166108e6576040517f08c379a00000000000000000000000000000000000000000000000000000000081526004016108dd906123c1565b60405180910390fd5b600a816040516108f691906122e6565b908152602001604051809103902060009054906101000a900460ff1615610952576040517f08c379a000000000000000000000000000000000000000000000000000000000815260040161094990612421565b60405180910390fd5b50565b600c82805160208101820180518482526020830160208501208183528095505050505050818154811061098757600080fd5b906000526020600020016000915091505080546109a39061266a565b80601f01602080910402602001604051908101604052809291908181526020018280546109cf9061266a565b8015610a1c5780601f106109f157610100808354040283529160200191610a1c565b820191906000526020600020905b8154815290600101906020018083116109ff57829003601f168201915b505050505081565b600260009054906101000a900473ffffffffffffffffffffffffffffffffffffffff1673ffffffffffffffffffffffffffffffffffffffff163373ffffffffffffffffffffffffffffffffffffffff1614610ab4576040517f08c379a0000000000000000000000000000000000000000000000000000000008152600401610aab90612401565b60405180910390fd5b80600260006101000a81548173ffffffffffffffffffffffffffffffffffffffff021916908373ffffffffffffffffffffffffffffffffffffffff16021790555050565b610b00611a17565b73ffffffffffffffffffffffffffffffffffffffff16610b1e610ba6565b73ffffffffffffffffffffffffffffffffffffffff1614610b74576040517f08c379a0000000000000000000000000000000000000000000000000000000008152600401610b6b90612441565b60405180910390fd5b610b7e6000611a1f565b565b600360009054906101000a900473ffffffffffffffffffffffffffffffffffffffff1681565b60008060009054906101000a900473ffffffffffffffffffffffffffffffffffffffff16905090565b600360009054906101000a900473ffffffffffffffffffffffffffffffffffffffff1673ffffffffffffffffffffffffffffffffffffffff163373ffffffffffffffffffffffffffffffffffffffff1614610c5f576040517f08c379a0000000000000000000000000000000000000000000000000000000008152600401610c56906123e1565b60405180910390fd5b6000600660008581526020019081526020016000206040518060a001604052908160008201548152602001600182018054610c999061266a565b80601f0160208091040260200160405190810160405280929190818152602001828054610cc59061266a565b8015610d125780601f10610ce757610100808354040283529160200191610d12565b820191906000526020600020905b815481529060010190602001808311610cf557829003601f168201915b50505050508152602001600282018054610d2b9061266a565b80601f0160208091040260200160405190810160405280929190818152602001828054610d579061266a565b8015610da45780601f10610d7957610100808354040283529160200191610da4565b820191906000526020600020905b815481529060010190602001808311610d8757829003601f168201915b50505050508152602001600382018054610dbd9061266a565b80601f0160208091040260200160405190810160405280929190818152602001828054610de99061266a565b8015610e365780601f10610e0b57610100808354040283529160200191610e36565b820191906000526020600020905b815481529060010190602001808311610e1957829003601f168201915b5050505050815260200160048201548152505090506000604051806080016040528086815260200184815260200185815260200142815250905083600c84604051610e8191906122e6565b90815260200160405180910390209080519060200190610ea2929190611ba3565b5060005b845181101561107d57826009868381518110610eeb577f4e487b7100000000000000000000000000000000000000000000000000000000600052603260045260246000fd5b6020026020010151604051610f0091906122e6565b9081526020016040518091039020600082015181600001556020820151816001019080519060200190610f34929190611b1d565b506040820151816002019080519060200190610f51929190611b1d565b506060820151816003019080519060200190610f6e929190611b1d565b50608082015181600401559050508160200151600b868381518110610fbc577f4e487b7100000000000000000000000000000000000000000000000000000000600052603260045260246000fd5b6020026020010151604051610fd191906122e6565b90815260200160405180910390209080519060200190610ff2929190611b1d565b5060016008868381518110611030577f4e487b7100000000000000000000000000000000000000000000000000000000600052603260045260246000fd5b602002602001015160405161104591906122e6565b908152602001604051809103902060006101000a81548160ff02191690831515021790555080806110759061269c565b915050610ea6565b505050505050565b60045481565b6009818051602081018201805184825260208301602085012081835280955050505050506000915090508060000154908060010180546110ca9061266a565b80601f01602080910402602001604051908101604052809291908181526020018280546110f69061266a565b80156111435780601f1061111857610100808354040283529160200191611143565b820191906000526020600020905b81548152906001019060200180831161112657829003601f168201915b5050505050908060020180546111589061266a565b80601f01602080910402602001604051908101604052809291908181526020018280546111849061266a565b80156111d15780601f106111a6576101008083540402835291602001916111d1565b820191906000526020600020905b8154815290600101906020018083116111b457829003601f168201915b5050505050908060030180546111e69061266a565b80601f01602080910402602001604051908101604052809291908181526020018280546112129061266a565b801561125f5780601f106112345761010080835404028352916020019161125f565b820191906000526020600020905b81548152906001019060200180831161124257829003601f168201915b5050505050908060040154905085565b600a818051602081018201805184825260208301602085012081835280955050505050506000915054906101000a900460ff1681565b600260009054906101000a900473ffffffffffffffffffffffffffffffffffffffff1673ffffffffffffffffffffffffffffffffffffffff163373ffffffffffffffffffffffffffffffffffffffff1614611335576040517f08c379a000000000000000000000000000000000000000000000000000000000815260040161132c90612401565b60405180910390fd5b80600360006101000a81548173ffffffffffffffffffffffffffffffffffffffff021916908373ffffffffffffffffffffffffffffffffffffffff16021790555050565b60066020528060005260406000206000915090508060000154908060010180546113a29061266a565b80601f01602080910402602001604051908101604052809291908181526020018280546113ce9061266a565b801561141b5780601f106113f05761010080835404028352916020019161141b565b820191906000526020600020905b8154815290600101906020018083116113fe57829003601f168201915b5050505050908060020180546114309061266a565b80601f016020809104026020016040519081016040528092919081815260200182805461145c9061266a565b80156114a95780601f1061147e576101008083540402835291602001916114a9565b820191906000526020600020905b81548152906001019060200180831161148c57829003601f168201915b5050505050908060030180546114be9061266a565b80601f01602080910402602001604051908101604052809291908181526020018280546114ea9061266a565b80156115375780601f1061150c57610100808354040283529160200191611537565b820191906000526020600020905b81548152906001019060200180831161151a57829003601f168201915b5050505050908060040154905085565b61154f611a17565b73ffffffffffffffffffffffffffffffffffffffff1661156d610ba6565b73ffffffffffffffffffffffffffffffffffffffff16146115c3576040517f08c379a00000000000000000000000000000000000000000000000000000000081526004016115ba90612441565b60405180910390fd5b600073ffffffffffffffffffffffffffffffffffffffff168173ffffffffffffffffffffffffffffffffffffffff161415611633576040517f08c379a000000000000000000000000000000000000000000000000000000000815260040161162a906123a1565b60405180910390fd5b61163c81611a1f565b50565b611647611c03565b606060088360405161165991906122e6565b908152602001604051809103902060009054906101000a900460ff166116b4576040517f08c379a00000000000000000000000000000000000000000000000000000000081526004016116ab906123c1565b60405180910390fd5b600a836040516116c491906122e6565b908152602001604051809103902060009054906101000a900460ff1615611720576040517f08c379a000000000000000000000000000000000000000000000000000000000815260040161171790612421565b60405180910390fd5b600060098460405161173291906122e6565b90815260200160405180910390206040518060a0016040529081600082015481526020016001820180546117659061266a565b80601f01602080910402602001604051908101604052809291908181526020018280546117919061266a565b80156117de5780601f106117b3576101008083540402835291602001916117de565b820191906000526020600020905b8154815290600101906020018083116117c157829003601f168201915b505050505081526020016002820180546117f79061266a565b80601f01602080910402602001604051908101604052809291908181526020018280546118239061266a565b80156118705780601f1061184557610100808354040283529160200191611870565b820191906000526020600020905b81548152906001019060200180831161185357829003601f168201915b505050505081526020016003820180546118899061266a565b80601f01602080910402602001604051908101604052809291908181526020018280546118b59061266a565b80156119025780601f106118d757610100808354040283529160200191611902565b820191906000526020600020905b8154815290600101906020018083116118e557829003601f168201915b5050505050815260200160048201548152505090506000600b8560405161192991906122e6565b908152602001604051809103902080546119429061266a565b80601f016020809104026020016040519081016040528092919081815260200182805461196e9061266a565b80156119bb5780601f10611990576101008083540402835291602001916119bb565b820191906000526020600020905b81548152906001019060200180831161199e57829003601f168201915b505050505090506119cb85611ae3565b7f295f0b6190822d4ea9023a4638aeb3dfdbf3ca1dc2d3b001548b03983845288485836060015183604051611a0293929190612355565b60405180910390a18181935093505050915091565b600033905090565b60008060009054906101000a900473ffffffffffffffffffffffffffffffffffffffff169050816000806101000a81548173ffffffffffffffffffffffffffffffffffffffff021916908373ffffffffffffffffffffffffffffffffffffffff1602179055508173ffffffffffffffffffffffffffffffffffffffff168173ffffffffffffffffffffffffffffffffffffffff167f8be0079c531659141344cd1fd0a4f28419497f9722a3daafe3b4186f6b6457e060405160405180910390a35050565b6001600a82604051611af591906122e6565b908152602001604051809103902060006101000a81548160ff02191690831515021790555050565b828054611b299061266a565b90600052602060002090601f016020900481019282611b4b5760008555611b92565b82601f10611b6457805160ff1916838001178555611b92565b82800160010185558215611b92579182015b82811115611b91578251825591602001919060010190611b76565b5b509050611b9f9190611c32565b5090565b828054828255906000526020600020908101928215611bf2579160200282015b82811115611bf1578251829080519060200190611be1929190611b1d565b5091602001919060010190611bc3565b5b509050611bff9190611c4f565b5090565b6040518060a0016040528060008152602001606081526020016060815260200160608152602001600081525090565b5b80821115611c4b576000816000905550600101611c33565b5090565b5b80821115611c6f5760008181611c669190611c73565b50600101611c50565b5090565b508054611c7f9061266a565b6000825580601f10611c915750611cb0565b601f016020900490600052602060002090810190611caf9190611c32565b5b50565b6000611cc6611cc18461254c565b61251b565b9050808382526020820190508260005b85811015611d065781358501611cec8882611d8d565b845260208401935060208301925050600181019050611cd6565b5050509392505050565b6000611d23611d1e84612578565b61251b565b905082815260208101848484011115611d3b57600080fd5b611d46848285612628565b509392505050565b600081359050611d5d81612783565b92915050565b600082601f830112611d7457600080fd5b8135611d84848260208601611cb3565b91505092915050565b600082601f830112611d9e57600080fd5b8135611dae848260208601611d10565b91505092915050565b600081359050611dc68161279a565b92915050565b600060208284031215611dde57600080fd5b6000611dec84828501611d4e565b91505092915050565b600060208284031215611e0757600080fd5b600082013567ffffffffffffffff811115611e2157600080fd5b611e2d84828501611d8d565b91505092915050565b60008060408385031215611e4957600080fd5b600083013567ffffffffffffffff811115611e6357600080fd5b611e6f85828601611d8d565b9250506020611e8085828601611db7565b9150509250929050565b600060208284031215611e9c57600080fd5b6000611eaa84828501611db7565b91505092915050565b600080600060608486031215611ec857600080fd5b6000611ed686828701611db7565b935050602084013567ffffffffffffffff811115611ef357600080fd5b611eff86828701611d63565b925050604084013567ffffffffffffffff811115611f1c57600080fd5b611f2886828701611d8d565b9150509250925092565b60008060008060808587031215611f4857600080fd5b6000611f5687828801611db7565b945050602085013567ffffffffffffffff811115611f7357600080fd5b611f7f87828801611d8d565b935050604085013567ffffffffffffffff811115611f9c57600080fd5b611fa887828801611d8d565b925050606085013567ffffffffffffffff811115611fc557600080fd5b611fd187828801611d8d565b91505092959194509250565b611fe6816125e0565b82525050565b611ff5816125f2565b82525050565b6000612006826125a8565b61201081856125b3565b9350612020818560208601612637565b61202981612772565b840191505092915050565b600061203f826125a8565b61204981856125c4565b9350612059818560208601612637565b61206281612772565b840191505092915050565b6000612078826125a8565b61208281856125d5565b9350612092818560208601612637565b80840191505092915050565b60006120ab6026836125c4565b91507f4f776e61626c653a206e6577206f776e657220697320746865207a65726f206160008301527f64647265737300000000000000000000000000000000000000000000000000006020830152604082019050919050565b60006121116016836125c4565b91507f73657269616c206e6f74207265676973746572656420000000000000000000006000830152602082019050919050565b6000612151601f836125c4565b91507f4f6e6c7920526567697374657220436f6e74726163742063616e2063616c6c006000830152602082019050919050565b60006121916013836125c4565b91507f6f6e6c792061646d696e2063616e2063616c6c000000000000000000000000006000830152602082019050919050565b60006121d16015836125c4565b91507f6472756720686173206265656e207363616e6e656400000000000000000000006000830152602082019050919050565b60006122116020836125c4565b91507f4f776e61626c653a2063616c6c6572206973206e6f7420746865206f776e65726000830152602082019050919050565b600060a08301600083015161225c60008601826122c8565b50602083015184820360208601526122748282611ffb565b9150506040830151848203604086015261228e8282611ffb565b915050606083015184820360608601526122a88282611ffb565b91505060808301516122bd60808601826122c8565b508091505092915050565b6122d18161261e565b82525050565b6122e08161261e565b82525050565b60006122f2828461206d565b915081905092915050565b60006020820190506123126000830184611fdd565b92915050565b600060208201905061232d6000830184611fec565b92915050565b6000602082019050818103600083015261234d8184612034565b905092915050565b6000606082019050818103600083015261236f8186612034565b905081810360208301526123838185612034565b905081810360408301526123978184612034565b9050949350505050565b600060208201905081810360008301526123ba8161209e565b9050919050565b600060208201905081810360008301526123da81612104565b9050919050565b600060208201905081810360008301526123fa81612144565b9050919050565b6000602082019050818103600083015261241a81612184565b9050919050565b6000602082019050818103600083015261243a816121c4565b9050919050565b6000602082019050818103600083015261245a81612204565b9050919050565b6000604082019050818103600083015261247b8185612244565b9050818103602083015261248f8184612034565b90509392505050565b60006020820190506124ad60008301846122d7565b92915050565b600060a0820190506124c860008301886122d7565b81810360208301526124da8187612034565b905081810360408301526124ee8186612034565b905081810360608301526125028185612034565b905061251160808301846122d7565b9695505050505050565b6000604051905081810181811067ffffffffffffffff8211171561254257612541612743565b5b8060405250919050565b600067ffffffffffffffff82111561256757612566612743565b5b602082029050602081019050919050565b600067ffffffffffffffff82111561259357612592612743565b5b601f19601f8301169050602081019050919050565b600081519050919050565b600082825260208201905092915050565b600082825260208201905092915050565b600081905092915050565b60006125eb826125fe565b9050919050565b60008115159050919050565b600073ffffffffffffffffffffffffffffffffffffffff82169050919050565b6000819050919050565b82818337600083830152505050565b60005b8381101561265557808201518184015260208101905061263a565b83811115612664576000848401525b50505050565b6000600282049050600182168061268257607f821691505b6020821081141561269657612695612714565b5b50919050565b60006126a78261261e565b91507fffffffffffffffffffffffffffffffffffffffffffffffffffffffffffffffff8214156126da576126d96126e5565b5b600182019050919050565b7f4e487b7100000000000000000000000000000000000000000000000000000000600052601160045260246000fd5b7f4e487b7100000000000000000000000000000000000000000000000000000000600052602260045260246000fd5b7f4e487b7100000000000000000000000000000000000000000000000000000000600052604160045260246000fd5b6000601f19601f8301169050919050565b61278c816125e0565b811461279757600080fd5b50565b6127a38161261e565b81146127ae57600080fd5b5056fea2646970667358221220ae45034d7ef5ba9ca658961fa1ad93a3d208594b42db4e0ca539eca8df9fd29464736f6c63430008000033",
  "immutableReferences": {},
  "source": "// SPDX-License-Identifier: MIT\r\npragma solidity ^0.8.0;\r\n\r\nimport \"@openzeppelin/contracts/token/ERC20/IERC20.sol\";\r\nimport \"@openzeppelin/contracts/access/Ownable.sol\";\r\nimport \"@openzeppelin/contracts/utils/Counters.sol\";\r\n\r\npragma experimental ABIEncoderV2;\r\n\r\ncontract Ndu is Ownable {\r\n    uint256 companyCount;\r\n    // address owner;\r\n    address admin;\r\n    address public registerContract;\r\n    uint256 public balance;\r\n\r\n    event Scanned(string serialNumber, string companyDetails, string DrugDetails);\r\n    \r\n    constructor()  {\r\n        admin = msg.sender;\r\n\r\n    }\r\n\r\n    // function receive() external payable {\r\n    //     balance = msg.value;\r\n    // }\r\n    \r\n    \r\n    // This represents a single Company \r\n    struct Company {\r\n        uint256 id;\r\n        string name;\r\n        string isoNumber;\r\n        string ipfsHashOfCompanyDetails;\r\n        uint256 date;\r\n    }\r\n\r\n    // This represents a single drug\r\n    struct Drug {\r\n        uint256 id;\r\n        string ipfsHashOfDrugDetails;\r\n        string[] serialNumbers;\r\n        uint256 date;\r\n    }\r\n\r\n\r\n\r\n    Company[] public registerdCompanies;\r\n\r\n    // This keeps track of a registered company Id\r\n    \r\n    mapping(uint256 => Company) public company;\r\n\r\n    mapping(address => bool) private registered;\r\n\r\n    \r\n\r\n    // companies variable stores a 'Company' struct for each possible address\r\n    // mapping(address => Company) public companies;\r\n\r\n\r\n\r\n\r\n    // keep track of registered serial\r\n    mapping(string => bool) public storedSerial;\r\n\r\n\r\n    // keep track of products registered by a company\r\n    mapping(string => Company ) public drugProduced;\r\n\r\n    // keep track of Scanned Products\r\n    mapping(string => bool) public serialScanned;\r\n\r\n\r\n    // keep track of drug details\r\n    mapping(string => string) public drugDetails;\r\n    mapping(string => string[]) public drugSerials;\r\n\r\n    // mapping(uint256 => Serials) public DrugToRegisteredCompanies;\r\n\r\n    \r\n\r\n\r\n    modifier onlyAdmin(){\r\n        require(msg.sender == admin, \"only admin can call\");\r\n        _;\r\n    }\r\n    \r\n\r\n    \r\n\r\n    function register(uint256 _id, string memory _name, string memory _isonumber, string memory _ipfsHashOfCompanyDetails ) public {\r\n        require(msg.sender == registerContract, \"Only Register Contract can call\");\r\n        company[_id] = Company(_id, _name, _isonumber, _ipfsHashOfCompanyDetails, block.timestamp);\r\n        // registerdCompanies.push(company[_id]);\r\n        registerdCompanies.push(Company(_id, _name, _isonumber, _ipfsHashOfCompanyDetails, block.timestamp));   \r\n    }\r\n\r\n     \r\n\r\n    function registerSerial(uint256 _id, string[] memory _serialNumbers, string memory _ipfsHashOfDrugDetails) public {\r\n        require(msg.sender == registerContract, \"Only Register Contract can call\");\r\n\r\n        Company memory comp = company[_id];\r\n        Drug memory drug =  Drug(_id, _ipfsHashOfDrugDetails, _serialNumbers,  block.timestamp);\r\n        drugSerials[_ipfsHashOfDrugDetails] = _serialNumbers;\r\n\r\n        for(uint256 i = 0; i < _serialNumbers.length; i++) {\r\n            \r\n            drugProduced[_serialNumbers[i]] = comp;\r\n            drugDetails[_serialNumbers[i]] = drug.ipfsHashOfDrugDetails;\r\n            storedSerial[_serialNumbers[i]] = true;\r\n        }\r\n\r\n    }\r\n\r\n\r\n\r\n    function scanProduct(string memory _serialNumber ) public  returns(Company memory, string memory)\r\n\r\n    {\r\n            require(storedSerial[_serialNumber], \"serial not registered \");\r\n            require(!serialScanned[_serialNumber], \"drug has been scanned\");\r\n            Company memory drugCompany = drugProduced[_serialNumber];\r\n            string memory drugIpfsHash = drugDetails[_serialNumber];\r\n            updateStatus(_serialNumber);\r\n\r\n\r\n            emit Scanned(_serialNumber, drugCompany.ipfsHashOfCompanyDetails, drugIpfsHash );\r\n\r\n\r\n            return (drugCompany, drugIpfsHash);\r\n\r\n                \r\n    }\r\n\r\n    // function getSerials(string memory _ipfsHashOfDrugDetails) public view returns(string[] memory) {\r\n\r\n\r\n    // }\r\n        \r\n        \r\n        \r\n    function updateStatus(string memory _serialNumber) internal {\r\n        serialScanned[_serialNumber] = true;\r\n    }\r\n    \r\n    function checkStatus(string memory _serialNumber) public view  {\r\n        require(storedSerial[_serialNumber], \"serial not registered \");\r\n        require(!serialScanned[_serialNumber], \"drug has been scanned\");\r\n    }\r\n\r\n    \r\n\r\n    function setAdmin(address _newAdmin) public onlyAdmin {\r\n        admin = _newAdmin;\r\n    }\r\n\r\n    function setRegisterContract(address _registerContract) public onlyAdmin {\r\n        registerContract = _registerContract;\r\n    }\r\n\r\n  \r\n\r\n}\r\n\r\n\r\ncontract Register {\r\n    using Counters for Counters.Counter;\r\n\r\n    // variables\r\n    Counters.Counter private drugIds;\r\n    Counters.Counter private pharmacyIds;\r\n\r\n    IERC20 nduToken;\r\n    uint256 public minimumTokenRequired;\r\n    address public admin;\r\n    Ndu public ndu;\r\n    \r\n    // this keeps track of company address registerd\r\n    mapping(address => bool) public registered;\r\n\r\n    mapping(address => string[]) public hashesRegistered;\r\n\r\n    mapping(string => string[]) public serials;\r\n    \r\n    \r\n    \r\n    mapping(address => uint256) public companyId;\r\n\r\n    // events\r\n    event companyRegister(address indexed _companyAddress, string _name, string _isonumber, string _ipfsHashOfCompanyDetails );\r\n    event drugRegister(address indexed _sender, string[] _serialNumbers, string ipfsHashOfDrugDetails);\r\n\r\n\r\n\r\n\r\n    constructor(address _governanceToken, address payable _nduContract,  uint256 _minimumTokenRequired) {\r\n        nduToken = IERC20(_governanceToken);\r\n        admin = msg.sender;\r\n        ndu = Ndu(_nduContract);\r\n        minimumTokenRequired = _minimumTokenRequired;\r\n        drugIds.increment();\r\n        pharmacyIds.increment();\r\n    }\r\n\r\n\r\n    modifier onlyAdmin(){\r\n        require(msg.sender == admin, \"only admin can call\");\r\n        _;\r\n    }\r\n\r\n\r\n\r\n\r\n\r\n    function registerCompany(string memory _name, string memory _isonumber, string memory _ipfsHashOfCompanyDetails ) public  {\r\n        // require(nduToken.balanceOf(msg.sender) >= minimumTokenRequired, \"insufficient balance\");\r\n        nduToken.transferFrom(msg.sender, admin, minimumTokenRequired);\r\n\r\n        uint256 newPharmacyId = pharmacyIds.current();\r\n        companyId[msg.sender] = newPharmacyId;\r\n        \r\n        ndu.register(newPharmacyId, _name,_isonumber,_ipfsHashOfCompanyDetails);\r\n\r\n        registered[msg.sender] = true;\r\n        pharmacyIds.increment();\r\n\r\n        emit companyRegister(msg.sender, _name, _isonumber, _ipfsHashOfCompanyDetails);\r\n    }\r\n    \r\n\r\n\r\n\r\n\r\n    function registerSerialNumber(string[] memory _serialNumbers, string memory _ipfsHashOfDrugDetails ) public {\r\n        require(registered[msg.sender], \"Caller not registered\");\r\n\r\n        uint256 newDrugId = drugIds.current();\r\n\r\n         ndu.registerSerial(newDrugId, _serialNumbers,_ipfsHashOfDrugDetails);\r\n\r\n        hashesRegistered[msg.sender].push(_ipfsHashOfDrugDetails);\r\n        serials[_ipfsHashOfDrugDetails] = _serialNumbers;\r\n\r\n        drugIds.increment();\r\n\r\n        emit drugRegister(msg.sender, _serialNumbers, _ipfsHashOfDrugDetails);\r\n    }\r\n\r\n\r\n    function getAllHashesRegistered() public view returns(string[] memory) {\r\n        return hashesRegistered[msg.sender];\r\n    }\r\n\r\n    function getAllSerials(string memory _hash) public view returns(string[] memory) {\r\n        return serials[_hash];\r\n    }\r\n\r\n\r\n\r\n    function setMinimumTokenRequired(uint256 _minimumTokenrequired) public onlyAdmin {\r\n        minimumTokenRequired = _minimumTokenrequired;\r\n    }\r\n}\r\n\r\n\r\n// contract ScanProduct {\r\n//     IERC20 public nduToken;\r\n//     Ndu public ndu;\r\n//     address public admin;\r\n    \r\n//     constructor(address payable _nduContract, address _governanceToken) {\r\n//         nduToken = IERC20(_governanceToken);\r\n//         ndu = Ndu(_nduContract);\r\n//         admin = msg.sender;\r\n        \r\n        \r\n//     }\r\n    \r\n//     function Scan(string memory _serialNumber) public {\r\n//         // scan Product\r\n//         ndu.scanProduct(_serialNumber);\r\n//         // update scan status\r\n//         // ndu.updateStatus(_serialNumber);\r\n//     }\r\n// }",
  "sourcePath": "/mnt/c/Users/chuks/Desktop/Project/test/app-for-drug-validation-/contracts/Ndu.sol",
  "compiler": {
    "name": "solc",
    "version": "0.8.0+commit.c7dfd78e.Emscripten.clang"
  },
  "schemaVersion": "3.4.3",
  "updatedAt": "2021-11-27T12:33:02.065Z",
  "networkType": "ethereum",
  "devdoc": {
    "kind": "dev",
    "methods": {
      "owner()": {
        "details": "Returns the address of the current owner."
      },
      "renounceOwnership()": {
        "details": "Leaves the contract without owner. It will not be possible to call `onlyOwner` functions anymore. Can only be called by the current owner. NOTE: Renouncing ownership will leave the contract without an owner, thereby removing any functionality that is only available to the owner."
      },
      "transferOwnership(address)": {
        "details": "Transfers ownership of the contract to a new account (`newOwner`). Can only be called by the current owner."
      }
    },
    "version": 1
  },
  "userdoc": {
    "kind": "user",
    "methods": {},
    "version": 1
  }
}