{
  "contractName": "Register",
  "abi": [
    {
      "inputs": [
        {
          "internalType": "address",
          "name": "_governanceToken",
          "type": "address"
        },
        {
          "internalType": "address payable",
          "name": "_nduContract",
          "type": "address"
        },
        {
          "internalType": "uint256",
          "name": "_minimumTokenRequired",
          "type": "uint256"
        }
      ],
      "stateMutability": "nonpayable",
      "type": "constructor"
    },
    {
      "anonymous": false,
      "inputs": [
        {
          "indexed": true,
          "internalType": "address",
          "name": "_companyAddress",
          "type": "address"
        },
        {
          "indexed": false,
          "internalType": "string",
          "name": "_name",
          "type": "string"
        },
        {
          "indexed": false,
          "internalType": "string",
          "name": "_isonumber",
          "type": "string"
        },
        {
          "indexed": false,
          "internalType": "string",
          "name": "_ipfsHashOfCompanyDetails",
          "type": "string"
        }
      ],
      "name": "companyRegister",
      "type": "event"
    },
    {
      "anonymous": false,
      "inputs": [
        {
          "indexed": true,
          "internalType": "address",
          "name": "_sender",
          "type": "address"
        },
        {
          "indexed": false,
          "internalType": "string[]",
          "name": "_serialNumbers",
          "type": "string[]"
        },
        {
          "indexed": false,
          "internalType": "string",
          "name": "ipfsHashOfDrugDetails",
          "type": "string"
        }
      ],
      "name": "drugRegister",
      "type": "event"
    },
    {
      "inputs": [],
      "name": "admin",
      "outputs": [
        {
          "internalType": "address",
          "name": "",
          "type": "address"
        }
      ],
      "stateMutability": "view",
      "type": "function",
      "constant": true
    },
    {
      "inputs": [
        {
          "internalType": "address",
          "name": "",
          "type": "address"
        }
      ],
      "name": "companyId",
      "outputs": [
        {
          "internalType": "uint256",
          "name": "",
          "type": "uint256"
        }
      ],
      "stateMutability": "view",
      "type": "function",
      "constant": true
    },
    {
      "inputs": [
        {
          "internalType": "address",
          "name": "",
          "type": "address"
        },
        {
          "internalType": "uint256",
          "name": "",
          "type": "uint256"
        }
      ],
      "name": "hashesRegistered",
      "outputs": [
        {
          "internalType": "string",
          "name": "",
          "type": "string"
        }
      ],
      "stateMutability": "view",
      "type": "function",
      "constant": true
    },
    {
      "inputs": [],
      "name": "minimumTokenRequired",
      "outputs": [
        {
          "internalType": "uint256",
          "name": "",
          "type": "uint256"
        }
      ],
      "stateMutability": "view",
      "type": "function",
      "constant": true
    },
    {
      "inputs": [],
      "name": "ndu",
      "outputs": [
        {
          "internalType": "contract Ndu",
          "name": "",
          "type": "address"
        }
      ],
      "stateMutability": "view",
      "type": "function",
      "constant": true
    },
    {
      "inputs": [
        {
          "internalType": "address",
          "name": "",
          "type": "address"
        }
      ],
      "name": "registered",
      "outputs": [
        {
          "internalType": "bool",
          "name": "",
          "type": "bool"
        }
      ],
      "stateMutability": "view",
      "type": "function",
      "constant": true
    },
    {
      "inputs": [
        {
          "internalType": "string",
          "name": "",
          "type": "string"
        },
        {
          "internalType": "uint256",
          "name": "",
          "type": "uint256"
        }
      ],
      "name": "serials",
      "outputs": [
        {
          "internalType": "string",
          "name": "",
          "type": "string"
        }
      ],
      "stateMutability": "view",
      "type": "function",
      "constant": true
    },
    {
      "inputs": [
        {
          "internalType": "uint256",
          "name": "_id",
          "type": "uint256"
        },
        {
          "internalType": "string",
          "name": "_name",
          "type": "string"
        },
        {
          "internalType": "string",
          "name": "_isonumber",
          "type": "string"
        },
        {
          "internalType": "string",
          "name": "_ipfsHashOfCompanyDetails",
          "type": "string"
        }
      ],
      "name": "registerCompany",
      "outputs": [],
      "stateMutability": "nonpayable",
      "type": "function"
    },
    {
      "inputs": [
        {
          "internalType": "string[]",
          "name": "_serialNumbers",
          "type": "string[]"
        },
        {
          "internalType": "string",
          "name": "_ipfsHashOfDrugDetails",
          "type": "string"
        }
      ],
      "name": "registerSerialNumber",
      "outputs": [],
      "stateMutability": "nonpayable",
      "type": "function"
    },
    {
      "inputs": [],
      "name": "getAllHashesRegistered",
      "outputs": [
        {
          "internalType": "string[]",
          "name": "",
          "type": "string[]"
        }
      ],
      "stateMutability": "view",
      "type": "function",
      "constant": true
    },
    {
      "inputs": [
        {
          "internalType": "string",
          "name": "_hash",
          "type": "string"
        }
      ],
      "name": "getAllSerials",
      "outputs": [
        {
          "internalType": "string[]",
          "name": "",
          "type": "string[]"
        }
      ],
      "stateMutability": "view",
      "type": "function",
      "constant": true
    },
    {
      "inputs": [
        {
          "internalType": "uint256",
          "name": "_minimumTokenrequired",
          "type": "uint256"
        }
      ],
      "name": "setMinimumTokenRequired",
      "outputs": [],
      "stateMutability": "nonpayable",
      "type": "function"
    }
  ],
  "bytecode": "0x60806040523480156200001157600080fd5b5060405162001bd238038062001bd283398181016040528101906200003791906200014e565b826000806101000a81548173ffffffffffffffffffffffffffffffffffffffff021916908373ffffffffffffffffffffffffffffffffffffffff16021790555033600260006101000a81548173ffffffffffffffffffffffffffffffffffffffff021916908373ffffffffffffffffffffffffffffffffffffffff16021790555081600360006101000a81548173ffffffffffffffffffffffffffffffffffffffff021916908373ffffffffffffffffffffffffffffffffffffffff1602179055508060018190555050505062000244565b6000815190506200011a81620001f6565b92915050565b600081519050620001318162000210565b92915050565b60008151905062000148816200022a565b92915050565b6000806000606084860312156200016457600080fd5b6000620001748682870162000109565b9350506020620001878682870162000120565b92505060406200019a8682870162000137565b9150509250925092565b6000620001b182620001cc565b9050919050565b6000620001c582620001cc565b9050919050565b600073ffffffffffffffffffffffffffffffffffffffff82169050919050565b6000819050919050565b6200020181620001a4565b81146200020d57600080fd5b50565b6200021b81620001b8565b81146200022757600080fd5b50565b6200023581620001ec565b81146200024157600080fd5b50565b61197e80620002546000396000f3fe608060405234801561001057600080fd5b50600436106100b45760003560e01c8063b2dd5c0711610071578063b2dd5c07146101a3578063c2dc1e23146101d3578063d0a6e86c146101ef578063de3900681461020b578063f21aba1c1461023b578063f851a44014610257576100b4565b8063099d8924146100b95780631609831e146100e95780631766826d146101195780631e66e73914610149578063604e6421146101675780637886211314610185575b600080fd5b6100d360048036038101906100ce9190610fab565b610275565b6040516100e0919061152e565b60405180910390f35b61010360048036038101906100fe91906110bd565b61032e565b604051610110919061152e565b60405180910390f35b610133600480360381019061012e919061107c565b6103fd565b604051610140919061149f565b60405180910390f35b6101516104f4565b60405161015e919061149f565b60405180910390f35b61016f61060a565b60405161017c9190611513565b60405180910390f35b61018d610630565b60405161019a91906115fc565b60405180910390f35b6101bd60048036038101906101b89190610f82565b610636565b6040516101ca91906114f8565b60405180910390f35b6101ed60048036038101906101e89190611163565b610656565b005b61020960048036038101906102049190610fe7565b61099e565b005b61022560048036038101906102209190610f82565b610c00565b60405161023291906115fc565b60405180910390f35b61025560048036038101906102509190611111565b610c18565b005b61025f610cb2565b60405161026c919061144d565b60405180910390f35b6005602052816000526040600020818154811061029157600080fd5b906000526020600020016000915091505080546102ad90611862565b80601f01602080910402602001604051908101604052809291908181526020018280546102d990611862565b80156103265780601f106102fb57610100808354040283529160200191610326565b820191906000526020600020905b81548152906001019060200180831161030957829003601f168201915b505050505081565b600682805160208101820180518482526020830160208501208183528095505050505050818154811061036057600080fd5b9060005260206000200160009150915050805461037c90611862565b80601f01602080910402602001604051908101604052809291908181526020018280546103a890611862565b80156103f55780601f106103ca576101008083540402835291602001916103f5565b820191906000526020600020905b8154815290600101906020018083116103d857829003601f168201915b505050505081565b606060068260405161040f9190611436565b9081526020016040518091039020805480602002602001604051908101604052809291908181526020016000905b828210156104e957838290600052602060002001805461045c90611862565b80601f016020809104026020016040519081016040528092919081815260200182805461048890611862565b80156104d55780601f106104aa576101008083540402835291602001916104d5565b820191906000526020600020905b8154815290600101906020018083116104b857829003601f168201915b50505050508152602001906001019061043d565b505050509050919050565b6060600560003373ffffffffffffffffffffffffffffffffffffffff1673ffffffffffffffffffffffffffffffffffffffff168152602001908152602001600020805480602002602001604051908101604052809291908181526020016000905b8282101561060157838290600052602060002001805461057490611862565b80601f01602080910402602001604051908101604052809291908181526020018280546105a090611862565b80156105ed5780601f106105c2576101008083540402835291602001916105ed565b820191906000526020600020905b8154815290600101906020018083116105d057829003601f168201915b505050505081526020019060010190610555565b50505050905090565b600360009054906101000a900473ffffffffffffffffffffffffffffffffffffffff1681565b60015481565b60046020528060005260406000206000915054906101000a900460ff1681565b60015460008054906101000a900473ffffffffffffffffffffffffffffffffffffffff1673ffffffffffffffffffffffffffffffffffffffff166370a08231336040518263ffffffff1660e01b81526004016106b2919061144d565b60206040518083038186803b1580156106ca57600080fd5b505afa1580156106de573d6000803e3d6000fd5b505050506040513d601f19601f82011682018060405250810190610702919061113a565b1015610743576040517f08c379a000000000000000000000000000000000000000000000000000000000815260040161073a906115dc565b60405180910390fd5b60008054906101000a900473ffffffffffffffffffffffffffffffffffffffff1673ffffffffffffffffffffffffffffffffffffffff166323b872dd33600260009054906101000a900473ffffffffffffffffffffffffffffffffffffffff166001546040518463ffffffff1660e01b81526004016107c493929190611468565b602060405180830381600087803b1580156107de57600080fd5b505af11580156107f2573d6000803e3d6000fd5b505050506040513d601f19601f820116820180604052508101906108169190611053565b50600360009054906101000a900473ffffffffffffffffffffffffffffffffffffffff1673ffffffffffffffffffffffffffffffffffffffff16633d59a0e2858585856040518563ffffffff1660e01b8152600401610878949392919061165c565b600060405180830381600087803b15801561089257600080fd5b505af11580156108a6573d6000803e3d6000fd5b5050505083600760003373ffffffffffffffffffffffffffffffffffffffff1673ffffffffffffffffffffffffffffffffffffffff168152602001908152602001600020819055506001600460003373ffffffffffffffffffffffffffffffffffffffff1673ffffffffffffffffffffffffffffffffffffffff16815260200190815260200160002060006101000a81548160ff0219169083151502179055503373ffffffffffffffffffffffffffffffffffffffff167f80bc43a6c446477e14ab33da8158b5fd63ef4f3a1200adf3f31fb2a6a6d88cf284848460405161099093929190611550565b60405180910390a250505050565b600460003373ffffffffffffffffffffffffffffffffffffffff1673ffffffffffffffffffffffffffffffffffffffff16815260200190815260200160002060009054906101000a900460ff16610a2a576040517f08c379a0000000000000000000000000000000000000000000000000000000008152600401610a21906115bc565b60405180910390fd5b6000600760003373ffffffffffffffffffffffffffffffffffffffff1673ffffffffffffffffffffffffffffffffffffffff168152602001908152602001600020549050600360009054906101000a900473ffffffffffffffffffffffffffffffffffffffff1673ffffffffffffffffffffffffffffffffffffffff16639b49cef58285856040518463ffffffff1660e01b8152600401610acd93929190611617565b600060405180830381600087803b158015610ae757600080fd5b505af1158015610afb573d6000803e3d6000fd5b50505050600560003373ffffffffffffffffffffffffffffffffffffffff1673ffffffffffffffffffffffffffffffffffffffff16815260200190815260200160002082908060018154018082558091505060019003906000526020600020016000909190919091509080519060200190610b77929190610cd8565b5082600683604051610b899190611436565b90815260200160405180910390209080519060200190610baa929190610d5e565b503373ffffffffffffffffffffffffffffffffffffffff167f6e12654a0983fe02fbc27b073e596ea320953bea3b292e0575fd1bbf748216708484604051610bf39291906114c1565b60405180910390a2505050565b60076020528060005260406000206000915090505481565b600260009054906101000a900473ffffffffffffffffffffffffffffffffffffffff1673ffffffffffffffffffffffffffffffffffffffff163373ffffffffffffffffffffffffffffffffffffffff1614610ca8576040517f08c379a0000000000000000000000000000000000000000000000000000000008152600401610c9f9061159c565b60405180910390fd5b8060018190555050565b600260009054906101000a900473ffffffffffffffffffffffffffffffffffffffff1681565b828054610ce490611862565b90600052602060002090601f016020900481019282610d065760008555610d4d565b82601f10610d1f57805160ff1916838001178555610d4d565b82800160010185558215610d4d579182015b82811115610d4c578251825591602001919060010190610d31565b5b509050610d5a9190610dbe565b5090565b828054828255906000526020600020908101928215610dad579160200282015b82811115610dac578251829080519060200190610d9c929190610cd8565b5091602001919060010190610d7e565b5b509050610dba9190610ddb565b5090565b5b80821115610dd7576000816000905550600101610dbf565b5090565b5b80821115610dfb5760008181610df29190610dff565b50600101610ddc565b5090565b508054610e0b90611862565b6000825580601f10610e1d5750610e3c565b601f016020900490600052602060002090810190610e3b9190610dbe565b5b50565b6000610e52610e4d846116e7565b6116b6565b9050808382526020820190508260005b85811015610e925781358501610e788882610f2e565b845260208401935060208301925050600181019050610e62565b5050509392505050565b6000610eaf610eaa84611713565b6116b6565b905082815260208101848484011115610ec757600080fd5b610ed2848285611820565b509392505050565b600081359050610ee981611903565b92915050565b600082601f830112610f0057600080fd5b8135610f10848260208601610e3f565b91505092915050565b600081519050610f288161191a565b92915050565b600082601f830112610f3f57600080fd5b8135610f4f848260208601610e9c565b91505092915050565b600081359050610f6781611931565b92915050565b600081519050610f7c81611931565b92915050565b600060208284031215610f9457600080fd5b6000610fa284828501610eda565b91505092915050565b60008060408385031215610fbe57600080fd5b6000610fcc85828601610eda565b9250506020610fdd85828601610f58565b9150509250929050565b60008060408385031215610ffa57600080fd5b600083013567ffffffffffffffff81111561101457600080fd5b61102085828601610eef565b925050602083013567ffffffffffffffff81111561103d57600080fd5b61104985828601610f2e565b9150509250929050565b60006020828403121561106557600080fd5b600061107384828501610f19565b91505092915050565b60006020828403121561108e57600080fd5b600082013567ffffffffffffffff8111156110a857600080fd5b6110b484828501610f2e565b91505092915050565b600080604083850312156110d057600080fd5b600083013567ffffffffffffffff8111156110ea57600080fd5b6110f685828601610f2e565b925050602061110785828601610f58565b9150509250929050565b60006020828403121561112357600080fd5b600061113184828501610f58565b91505092915050565b60006020828403121561114c57600080fd5b600061115a84828501610f6d565b91505092915050565b6000806000806080858703121561117957600080fd5b600061118787828801610f58565b945050602085013567ffffffffffffffff8111156111a457600080fd5b6111b087828801610f2e565b935050604085013567ffffffffffffffff8111156111cd57600080fd5b6111d987828801610f2e565b925050606085013567ffffffffffffffff8111156111f657600080fd5b61120287828801610f2e565b91505092959194509250565b600061121a83836112c4565b905092915050565b61122b816117b4565b82525050565b600061123c82611753565b6112468185611776565b93508360208202850161125885611743565b8060005b858110156112945784840389528151611275858261120e565b945061128083611769565b925060208a0199505060018101905061125c565b50829750879550505050505092915050565b6112af816117c6565b82525050565b6112be816117fc565b82525050565b60006112cf8261175e565b6112d98185611787565b93506112e981856020860161182f565b6112f2816118f2565b840191505092915050565b60006113088261175e565b6113128185611798565b935061132281856020860161182f565b61132b816118f2565b840191505092915050565b60006113418261175e565b61134b81856117a9565b935061135b81856020860161182f565b80840191505092915050565b6000611374601383611798565b91507f6f6e6c792061646d696e2063616e2063616c6c000000000000000000000000006000830152602082019050919050565b60006113b4601583611798565b91507f43616c6c6572206e6f74207265676973746572656400000000000000000000006000830152602082019050919050565b60006113f4601483611798565b91507f696e73756666696369656e742062616c616e63650000000000000000000000006000830152602082019050919050565b611430816117f2565b82525050565b60006114428284611336565b915081905092915050565b60006020820190506114626000830184611222565b92915050565b600060608201905061147d6000830186611222565b61148a6020830185611222565b6114976040830184611427565b949350505050565b600060208201905081810360008301526114b98184611231565b905092915050565b600060408201905081810360008301526114db8185611231565b905081810360208301526114ef81846112fd565b90509392505050565b600060208201905061150d60008301846112a6565b92915050565b600060208201905061152860008301846112b5565b92915050565b6000602082019050818103600083015261154881846112fd565b905092915050565b6000606082019050818103600083015261156a81866112fd565b9050818103602083015261157e81856112fd565b9050818103604083015261159281846112fd565b9050949350505050565b600060208201905081810360008301526115b581611367565b9050919050565b600060208201905081810360008301526115d5816113a7565b9050919050565b600060208201905081810360008301526115f5816113e7565b9050919050565b60006020820190506116116000830184611427565b92915050565b600060608201905061162c6000830186611427565b818103602083015261163e8185611231565b9050818103604083015261165281846112fd565b9050949350505050565b60006080820190506116716000830187611427565b818103602083015261168381866112fd565b9050818103604083015261169781856112fd565b905081810360608301526116ab81846112fd565b905095945050505050565b6000604051905081810181811067ffffffffffffffff821117156116dd576116dc6118c3565b5b8060405250919050565b600067ffffffffffffffff821115611702576117016118c3565b5b602082029050602081019050919050565b600067ffffffffffffffff82111561172e5761172d6118c3565b5b601f19601f8301169050602081019050919050565b6000819050602082019050919050565b600081519050919050565b600081519050919050565b6000602082019050919050565b600082825260208201905092915050565b600082825260208201905092915050565b600082825260208201905092915050565b600081905092915050565b60006117bf826117d2565b9050919050565b60008115159050919050565b600073ffffffffffffffffffffffffffffffffffffffff82169050919050565b6000819050919050565b60006118078261180e565b9050919050565b6000611819826117d2565b9050919050565b82818337600083830152505050565b60005b8381101561184d578082015181840152602081019050611832565b8381111561185c576000848401525b50505050565b6000600282049050600182168061187a57607f821691505b6020821081141561188e5761188d611894565b5b50919050565b7f4e487b7100000000000000000000000000000000000000000000000000000000600052602260045260246000fd5b7f4e487b7100000000000000000000000000000000000000000000000000000000600052604160045260246000fd5b6000601f19601f8301169050919050565b61190c816117b4565b811461191757600080fd5b50565b611923816117c6565b811461192e57600080fd5b50565b61193a816117f2565b811461194557600080fd5b5056fea264697066735822122078aa6bf52e6c572928a6e1fb21c25241733bf48623ed7ef192ffd5a8eb29489264736f6c63430008000033",
  "immutableReferences": {},
  "source": "// SPDX-License-Identifier: MIT\r\npragma solidity ^0.8.0;\r\n\r\nimport \"@openzeppelin/contracts/token/ERC20/IERC20.sol\";\r\nimport \"@openzeppelin/contracts/access/Ownable.sol\";\r\n\r\npragma experimental ABIEncoderV2;\r\n\r\ncontract Ndu is Ownable {\r\n\r\n    uint companyCount;\r\n    // address owner;\r\n    address admin;\r\n    address public registerContract;\r\n    uint public balance;\r\n\r\n    event Scanned(string serialNumber, string companyDetails, string DrugDetails);\r\n    \r\n    constructor()  {\r\n        admin = msg.sender;\r\n    }\r\n\r\n    // function receive() external payable {\r\n    //     balance = msg.value;\r\n    // }\r\n    \r\n    \r\n    // This represents a single Company \r\n    struct Company {\r\n        uint id;\r\n        string Name;\r\n        string ISOnumber;\r\n        string ipfsHashOfCompanyDetails;\r\n    }\r\n\r\n    // This represents a single drug\r\n    struct Drug {\r\n        string ipfsHashOfDrugDetails;\r\n        string[] serialNumbers;\r\n    }\r\n\r\n\r\n\r\n    Company[] public registerdCompanies;\r\n\r\n    // This keeps track of a registered company Id\r\n    mapping(uint => Company) public companyId;\r\n\r\n    \r\n\r\n    // companies variable stores a 'Company' struct for each possible address\r\n    // mapping(address => Company) public companies;\r\n\r\n\r\n\r\n\r\n    // keep track of registered serial\r\n    mapping(string => bool) public storedSerial;\r\n\r\n\r\n    // keep track of products registered by a company\r\n    mapping(string => Company ) public drugProduced;\r\n\r\n    // keep track of Scanned Products\r\n    mapping(string => bool) public serialScanned;\r\n\r\n\r\n    // keep track of drug details\r\n    mapping(string => Drug) public drugDetails;\r\n\r\n    // mapping(uint => Serials) public DrugToRegisteredCompanies;\r\n\r\n    \r\n\r\n\r\n    modifier onlyAdmin(){\r\n        require(msg.sender == admin, \"only admin can call\");\r\n        _;\r\n    }\r\n    \r\n\r\n    // string[] public Serials;\r\n    \r\n\r\n    function register(uint _id, string memory _name, string memory _isonumber, string memory _ipfsHashOfCompanyDetails ) public {\r\n        require(msg.sender == registerContract, \"Only Register Contract can call\");\r\n        // companies[_callerCompanyAddress] = Company(_id, _name, _isonumber, _ipfsHashOfCompanyDetails);\r\n        companyId[_id] = Company(_id, _name, _isonumber, _ipfsHashOfCompanyDetails);\r\n        registerdCompanies.push(Company(_id, _name, _isonumber, _ipfsHashOfCompanyDetails));\r\n        // registered[_callerCompanyAddress] = true;\r\n    }\r\n\r\n     \r\n\r\n    function registerSerial(uint _id, string[] memory _serialNumbers, string memory _ipfsHashOfDrugDetails) public {\r\n        require(msg.sender == registerContract, \"Only Register Contract can call\");\r\n        // require(registered[_caller], \"company address not registered\");\r\n        // peters[_id].ipfsHashOfDrugDetails = _ipfsHashOfDrugDetails;\r\n        // peters[_id].serialNumbers = _serialNumbers;\r\n        for(uint i = 0; i < _serialNumbers.length; i++) {\r\n            Company storage company = companyId[_id];\r\n            drugProduced[_serialNumbers[i]] = company;\r\n            drugDetails[_serialNumbers[i]] = Drug(_ipfsHashOfDrugDetails, _serialNumbers);\r\n            storedSerial[_serialNumbers[i]] = true;\r\n\r\n        }\r\n        \r\n        \r\n    }\r\n\r\n\r\n\r\n    function scanProduct(string memory _serialNumber ) public  returns(Company memory, Drug memory)\r\n\r\n        {\r\n            require(storedSerial[_serialNumber], \"serial not registered \");\r\n            require(!serialScanned[_serialNumber], \"drug has been scanned\");\r\n            Company memory company = drugProduced[_serialNumber];\r\n            Drug memory drug = drugDetails[_serialNumber];\r\n            updateStatus(_serialNumber);\r\n\r\n\r\n            emit Scanned(_serialNumber, company.ipfsHashOfCompanyDetails, drug.ipfsHashOfDrugDetails );\r\n\r\n\r\n            return (company, drug);\r\n\r\n                \r\n        }\r\n        \r\n        \r\n        \r\n    function updateStatus(string memory _serialNumber) internal {\r\n        serialScanned[_serialNumber] = true;\r\n    }\r\n    \r\n    function checkStatus(string memory _serialNumber) public view  {\r\n        require(storedSerial[_serialNumber], \"serial not registered \");\r\n        require(!serialScanned[_serialNumber], \"drug has been scanned\");\r\n    }\r\n\r\n    \r\n\r\n    function setAdmin(address _newAdmin) public onlyAdmin {\r\n        admin = _newAdmin;\r\n    }\r\n\r\n    function setRegisterContract(address _registerContract) public onlyAdmin {\r\n        registerContract = _registerContract;\r\n    }\r\n\r\n  \r\n\r\n}\r\n\r\n\r\ncontract Register {\r\n\r\n    IERC20 governanceToken;\r\n    uint public minimumTokenRequired;\r\n    address public admin;\r\n    Ndu public ndu;\r\n    \r\n    // this keeps track of company address registerd\r\n    mapping(address => bool) public registered;\r\n\r\n    mapping(address => string[]) public hashesRegistered;\r\n\r\n    mapping(string => string[]) public serials;\r\n    \r\n    \r\n    \r\n    mapping(address => uint) public companyId;\r\n\r\n    // events\r\n    event companyRegister(address indexed _companyAddress, string _name, string _isonumber, string _ipfsHashOfCompanyDetails );\r\n    event drugRegister(address indexed _sender, string[] _serialNumbers, string ipfsHashOfDrugDetails);\r\n\r\n\r\n\r\n\r\n    constructor(address _governanceToken, address payable _nduContract,  uint _minimumTokenRequired) {\r\n        governanceToken = IERC20(_governanceToken);\r\n        admin = msg.sender;\r\n        ndu = Ndu(_nduContract);\r\n        minimumTokenRequired = _minimumTokenRequired;\r\n    }\r\n\r\n\r\n    modifier onlyAdmin(){\r\n        require(msg.sender == admin, \"only admin can call\");\r\n        _;\r\n    }\r\n\r\n\r\n\r\n\r\n\r\n    function registerCompany( uint256 _id, string memory _name, string memory _isonumber, string memory _ipfsHashOfCompanyDetails ) public  {\r\n        require(governanceToken.balanceOf(msg.sender) >= minimumTokenRequired, \"insufficient balance\");\r\n        governanceToken.transferFrom(msg.sender, admin, minimumTokenRequired);\r\n        \r\n        ndu.register( _id,_name,_isonumber,_ipfsHashOfCompanyDetails);\r\n\r\n        companyId[msg.sender] = _id;\r\n        registered[msg.sender] = true;\r\n\r\n        emit companyRegister(msg.sender, _name, _isonumber, _ipfsHashOfCompanyDetails);\r\n    }\r\n    \r\n\r\n\r\n\r\n\r\n    function registerSerialNumber( string[] memory _serialNumbers, string memory _ipfsHashOfDrugDetails ) public {\r\n        require(registered[msg.sender], \"Caller not registered\");\r\n        uint _id = companyId[msg.sender];\r\n         ndu.registerSerial(_id,_serialNumbers,_ipfsHashOfDrugDetails);\r\n\r\n         hashesRegistered[msg.sender].push(_ipfsHashOfDrugDetails);\r\n        serials[_ipfsHashOfDrugDetails] = _serialNumbers;\r\n\r\n        emit drugRegister(msg.sender, _serialNumbers, _ipfsHashOfDrugDetails);\r\n    }\r\n\r\n    function getAllHashesRegistered() public view returns(string[] memory) {\r\n        return hashesRegistered[msg.sender];\r\n    }\r\n\r\n    function getAllSerials(string memory _hash) public view returns(string[] memory) {\r\n        return serials[_hash];\r\n    }\r\n\r\n\r\n\r\n    function setMinimumTokenRequired(uint _minimumTokenrequired) public onlyAdmin {\r\n        minimumTokenRequired = _minimumTokenrequired;\r\n    }\r\n}\r\n\r\n\r\n// contract ScanProduct {\r\n//     IERC20 public governanceToken;\r\n//     Ndu public ndu;\r\n//     address public admin;\r\n    \r\n//     constructor(address payable _nduContract, address _governanceToken) {\r\n//         governanceToken = IERC20(_governanceToken);\r\n//         ndu = Ndu(_nduContract);\r\n//         admin = msg.sender;\r\n        \r\n        \r\n//     }\r\n    \r\n//     function Scan(string memory _serialNumber) public {\r\n//         // scan Product\r\n//         ndu.scanProduct(_serialNumber);\r\n//         // update scan status\r\n//         // ndu.updateStatus(_serialNumber);\r\n//     }\r\n// }",
  "sourcePath": "C:\\Users\\CHIDIEBERE-PC\\Desktop\\projects\\Blockchain\\app-for-drug-validation-\\contracts\\Ndu.sol",
  "compiler": {
    "name": "solc",
    "version": "0.8.0+commit.c7dfd78e.Emscripten.clang"
  },
  "schemaVersion": "3.4.3",
  "updatedAt": "2021-11-02T01:45:02.316Z",
  "networkType": "ethereum",
  "devdoc": {
    "kind": "dev",
    "methods": {},
    "version": 1
  },
  "userdoc": {
    "kind": "user",
    "methods": {},
    "version": 1
  }
}