{
  "contractName": "Register",
  "abi": [
    {
      "inputs": [
        {
          "internalType": "address",
          "name": "_governanceToken",
          "type": "address"
        },
        {
          "internalType": "address payable",
          "name": "_nduContract",
          "type": "address"
        },
        {
          "internalType": "uint256",
          "name": "_minimumTokenRequired",
          "type": "uint256"
        }
      ],
      "stateMutability": "nonpayable",
      "type": "constructor"
    },
    {
      "anonymous": false,
      "inputs": [
        {
          "indexed": true,
          "internalType": "address",
          "name": "_companyAddress",
          "type": "address"
        },
        {
          "indexed": false,
          "internalType": "string",
          "name": "_name",
          "type": "string"
        },
        {
          "indexed": false,
          "internalType": "string",
          "name": "_isonumber",
          "type": "string"
        },
        {
          "indexed": false,
          "internalType": "string",
          "name": "_ipfsHashOfCompanyDetails",
          "type": "string"
        }
      ],
      "name": "companyRegister",
      "type": "event"
    },
    {
      "anonymous": false,
      "inputs": [
        {
          "indexed": true,
          "internalType": "address",
          "name": "_sender",
          "type": "address"
        },
        {
          "indexed": false,
          "internalType": "string[]",
          "name": "_serialNumbers",
          "type": "string[]"
        },
        {
          "indexed": false,
          "internalType": "string",
          "name": "ipfsHashOfDrugDetails",
          "type": "string"
        }
      ],
      "name": "drugRegister",
      "type": "event"
    },
    {
      "inputs": [],
      "name": "admin",
      "outputs": [
        {
          "internalType": "address",
          "name": "",
          "type": "address"
        }
      ],
      "stateMutability": "view",
      "type": "function",
      "constant": true
    },
    {
      "inputs": [
        {
          "internalType": "address",
          "name": "",
          "type": "address"
        }
      ],
      "name": "companyId",
      "outputs": [
        {
          "internalType": "uint256",
          "name": "",
          "type": "uint256"
        }
      ],
      "stateMutability": "view",
      "type": "function",
      "constant": true
    },
    {
      "inputs": [],
      "name": "minimumTokenRequired",
      "outputs": [
        {
          "internalType": "uint256",
          "name": "",
          "type": "uint256"
        }
      ],
      "stateMutability": "view",
      "type": "function",
      "constant": true
    },
    {
      "inputs": [],
      "name": "ndu",
      "outputs": [
        {
          "internalType": "contract Ndu",
          "name": "",
          "type": "address"
        }
      ],
      "stateMutability": "view",
      "type": "function",
      "constant": true
    },
    {
      "inputs": [
        {
          "internalType": "address",
          "name": "",
          "type": "address"
        }
      ],
      "name": "registered",
      "outputs": [
        {
          "internalType": "bool",
          "name": "",
          "type": "bool"
        }
      ],
      "stateMutability": "view",
      "type": "function",
      "constant": true
    },
    {
      "inputs": [
        {
          "internalType": "uint256",
          "name": "_id",
          "type": "uint256"
        },
        {
          "internalType": "string",
          "name": "_name",
          "type": "string"
        },
        {
          "internalType": "string",
          "name": "_isonumber",
          "type": "string"
        },
        {
          "internalType": "string",
          "name": "_ipfsHashOfCompanyDetails",
          "type": "string"
        }
      ],
      "name": "registerCompany",
      "outputs": [],
      "stateMutability": "nonpayable",
      "type": "function"
    },
    {
      "inputs": [
        {
          "internalType": "string[]",
          "name": "_serialNumbers",
          "type": "string[]"
        },
        {
          "internalType": "string",
          "name": "_ipfsHashOfDrugDetails",
          "type": "string"
        }
      ],
      "name": "registerSerialNumber",
      "outputs": [],
      "stateMutability": "nonpayable",
      "type": "function"
    },
    {
      "inputs": [
        {
          "internalType": "uint256",
          "name": "_minimumTokenrequired",
          "type": "uint256"
        }
      ],
      "name": "setMinimumTokenRequired",
      "outputs": [],
      "stateMutability": "nonpayable",
      "type": "function"
    }
  ],
  "bytecode": "0x60806040523480156200001157600080fd5b50604051620013873803806200138783398181016040528101906200003791906200014e565b826000806101000a81548173ffffffffffffffffffffffffffffffffffffffff021916908373ffffffffffffffffffffffffffffffffffffffff16021790555033600260006101000a81548173ffffffffffffffffffffffffffffffffffffffff021916908373ffffffffffffffffffffffffffffffffffffffff16021790555081600360006101000a81548173ffffffffffffffffffffffffffffffffffffffff021916908373ffffffffffffffffffffffffffffffffffffffff1602179055508060018190555050505062000244565b6000815190506200011a81620001f6565b92915050565b600081519050620001318162000210565b92915050565b60008151905062000148816200022a565b92915050565b6000806000606084860312156200016457600080fd5b6000620001748682870162000109565b9350506020620001878682870162000120565b92505060406200019a8682870162000137565b9150509250925092565b6000620001b182620001cc565b9050919050565b6000620001c582620001cc565b9050919050565b600073ffffffffffffffffffffffffffffffffffffffff82169050919050565b6000819050919050565b6200020181620001a4565b81146200020d57600080fd5b50565b6200021b81620001b8565b81146200022757600080fd5b50565b6200023581620001ec565b81146200024157600080fd5b50565b61113380620002546000396000f3fe608060405234801561001057600080fd5b50600436106100885760003560e01c8063d0a6e86c1161005b578063d0a6e86c14610115578063de39006814610131578063f21aba1c14610161578063f851a4401461017d57610088565b8063604e64211461008d57806378862113146100ab578063b2dd5c07146100c9578063c2dc1e23146100f9575b600080fd5b61009561019b565b6040516100a29190610d56565b60405180910390f35b6100b36101c1565b6040516100c09190610e1d565b60405180910390f35b6100e360048036038101906100de9190610900565b6101c7565b6040516100f09190610d3b565b60405180910390f35b610113600480360381019061010e9190610a10565b6101e7565b005b61012f600480360381019061012a9190610929565b61052f565b005b61014b60048036038101906101469190610900565b6106e5565b6040516101589190610e1d565b60405180910390f35b61017b600480360381019061017691906109be565b6106fd565b005b610185610797565b6040516101929190610cb2565b60405180910390f35b600360009054906101000a900473ffffffffffffffffffffffffffffffffffffffff1681565b60015481565b60046020528060005260406000206000915054906101000a900460ff1681565b60015460008054906101000a900473ffffffffffffffffffffffffffffffffffffffff1673ffffffffffffffffffffffffffffffffffffffff166370a08231336040518263ffffffff1660e01b81526004016102439190610cb2565b60206040518083038186803b15801561025b57600080fd5b505afa15801561026f573d6000803e3d6000fd5b505050506040513d601f19601f8201168201806040525081019061029391906109e7565b10156102d4576040517f08c379a00000000000000000000000000000000000000000000000000000000081526004016102cb90610dfd565b60405180910390fd5b60008054906101000a900473ffffffffffffffffffffffffffffffffffffffff1673ffffffffffffffffffffffffffffffffffffffff166323b872dd33600260009054906101000a900473ffffffffffffffffffffffffffffffffffffffff166001546040518463ffffffff1660e01b815260040161035593929190610ccd565b602060405180830381600087803b15801561036f57600080fd5b505af1158015610383573d6000803e3d6000fd5b505050506040513d601f19601f820116820180604052508101906103a79190610995565b50600360009054906101000a900473ffffffffffffffffffffffffffffffffffffffff1673ffffffffffffffffffffffffffffffffffffffff16633d59a0e2858585856040518563ffffffff1660e01b81526004016104099493929190610e7d565b600060405180830381600087803b15801561042357600080fd5b505af1158015610437573d6000803e3d6000fd5b5050505083600560003373ffffffffffffffffffffffffffffffffffffffff1673ffffffffffffffffffffffffffffffffffffffff168152602001908152602001600020819055506001600460003373ffffffffffffffffffffffffffffffffffffffff1673ffffffffffffffffffffffffffffffffffffffff16815260200190815260200160002060006101000a81548160ff0219169083151502179055503373ffffffffffffffffffffffffffffffffffffffff167f80bc43a6c446477e14ab33da8158b5fd63ef4f3a1200adf3f31fb2a6a6d88cf284848460405161052193929190610d71565b60405180910390a250505050565b600460003373ffffffffffffffffffffffffffffffffffffffff1673ffffffffffffffffffffffffffffffffffffffff16815260200190815260200160002060009054906101000a900460ff166105bb576040517f08c379a00000000000000000000000000000000000000000000000000000000081526004016105b290610ddd565b60405180910390fd5b6000600560003373ffffffffffffffffffffffffffffffffffffffff1673ffffffffffffffffffffffffffffffffffffffff168152602001908152602001600020549050600360009054906101000a900473ffffffffffffffffffffffffffffffffffffffff1673ffffffffffffffffffffffffffffffffffffffff16639b49cef58285856040518463ffffffff1660e01b815260040161065e93929190610e38565b600060405180830381600087803b15801561067857600080fd5b505af115801561068c573d6000803e3d6000fd5b505050503373ffffffffffffffffffffffffffffffffffffffff167f6e12654a0983fe02fbc27b073e596ea320953bea3b292e0575fd1bbf7482167084846040516106d8929190610d04565b60405180910390a2505050565b60056020528060005260406000206000915090505481565b600260009054906101000a900473ffffffffffffffffffffffffffffffffffffffff1673ffffffffffffffffffffffffffffffffffffffff163373ffffffffffffffffffffffffffffffffffffffff161461078d576040517f08c379a000000000000000000000000000000000000000000000000000000000815260040161078490610dbd565b60405180910390fd5b8060018190555050565b600260009054906101000a900473ffffffffffffffffffffffffffffffffffffffff1681565b60006107d06107cb84610f08565b610ed7565b9050808382526020820190508260005b8581101561081057813585016107f688826108ac565b8452602084019350602083019250506001810190506107e0565b5050509392505050565b600061082d61082884610f34565b610ed7565b90508281526020810184848401111561084557600080fd5b610850848285611036565b509392505050565b600081359050610867816110b8565b92915050565b600082601f83011261087e57600080fd5b813561088e8482602086016107bd565b91505092915050565b6000815190506108a6816110cf565b92915050565b600082601f8301126108bd57600080fd5b81356108cd84826020860161081a565b91505092915050565b6000813590506108e5816110e6565b92915050565b6000815190506108fa816110e6565b92915050565b60006020828403121561091257600080fd5b600061092084828501610858565b91505092915050565b6000806040838503121561093c57600080fd5b600083013567ffffffffffffffff81111561095657600080fd5b6109628582860161086d565b925050602083013567ffffffffffffffff81111561097f57600080fd5b61098b858286016108ac565b9150509250929050565b6000602082840312156109a757600080fd5b60006109b584828501610897565b91505092915050565b6000602082840312156109d057600080fd5b60006109de848285016108d6565b91505092915050565b6000602082840312156109f957600080fd5b6000610a07848285016108eb565b91505092915050565b60008060008060808587031215610a2657600080fd5b6000610a34878288016108d6565b945050602085013567ffffffffffffffff811115610a5157600080fd5b610a5d878288016108ac565b935050604085013567ffffffffffffffff811115610a7a57600080fd5b610a86878288016108ac565b925050606085013567ffffffffffffffff811115610aa357600080fd5b610aaf878288016108ac565b91505092959194509250565b6000610ac78383610b71565b905092915050565b610ad881610fca565b82525050565b6000610ae982610f74565b610af38185610f97565b935083602082028501610b0585610f64565b8060005b85811015610b415784840389528151610b228582610abb565b9450610b2d83610f8a565b925060208a01995050600181019050610b09565b50829750879550505050505092915050565b610b5c81610fdc565b82525050565b610b6b81611012565b82525050565b6000610b7c82610f7f565b610b868185610fa8565b9350610b96818560208601611045565b610b9f816110a7565b840191505092915050565b6000610bb582610f7f565b610bbf8185610fb9565b9350610bcf818560208601611045565b610bd8816110a7565b840191505092915050565b6000610bf0601383610fb9565b91507f6f6e6c792061646d696e2063616e2063616c6c000000000000000000000000006000830152602082019050919050565b6000610c30601583610fb9565b91507f43616c6c6572206e6f74207265676973746572656400000000000000000000006000830152602082019050919050565b6000610c70601483610fb9565b91507f696e73756666696369656e742062616c616e63650000000000000000000000006000830152602082019050919050565b610cac81611008565b82525050565b6000602082019050610cc76000830184610acf565b92915050565b6000606082019050610ce26000830186610acf565b610cef6020830185610acf565b610cfc6040830184610ca3565b949350505050565b60006040820190508181036000830152610d1e8185610ade565b90508181036020830152610d328184610baa565b90509392505050565b6000602082019050610d506000830184610b53565b92915050565b6000602082019050610d6b6000830184610b62565b92915050565b60006060820190508181036000830152610d8b8186610baa565b90508181036020830152610d9f8185610baa565b90508181036040830152610db38184610baa565b9050949350505050565b60006020820190508181036000830152610dd681610be3565b9050919050565b60006020820190508181036000830152610df681610c23565b9050919050565b60006020820190508181036000830152610e1681610c63565b9050919050565b6000602082019050610e326000830184610ca3565b92915050565b6000606082019050610e4d6000830186610ca3565b8181036020830152610e5f8185610ade565b90508181036040830152610e738184610baa565b9050949350505050565b6000608082019050610e926000830187610ca3565b8181036020830152610ea48186610baa565b90508181036040830152610eb88185610baa565b90508181036060830152610ecc8184610baa565b905095945050505050565b6000604051905081810181811067ffffffffffffffff82111715610efe57610efd611078565b5b8060405250919050565b600067ffffffffffffffff821115610f2357610f22611078565b5b602082029050602081019050919050565b600067ffffffffffffffff821115610f4f57610f4e611078565b5b601f19601f8301169050602081019050919050565b6000819050602082019050919050565b600081519050919050565b600081519050919050565b6000602082019050919050565b600082825260208201905092915050565b600082825260208201905092915050565b600082825260208201905092915050565b6000610fd582610fe8565b9050919050565b60008115159050919050565b600073ffffffffffffffffffffffffffffffffffffffff82169050919050565b6000819050919050565b600061101d82611024565b9050919050565b600061102f82610fe8565b9050919050565b82818337600083830152505050565b60005b83811015611063578082015181840152602081019050611048565b83811115611072576000848401525b50505050565b7f4e487b7100000000000000000000000000000000000000000000000000000000600052604160045260246000fd5b6000601f19601f8301169050919050565b6110c181610fca565b81146110cc57600080fd5b50565b6110d881610fdc565b81146110e357600080fd5b50565b6110ef81611008565b81146110fa57600080fd5b5056fea26469706673582212207004808305b29106c33fe4bb356727700e6e949040452b8cbfc3b6266c31337c64736f6c63430008000033",
  "immutableReferences": {},
  "source": "// SPDX-License-Identifier: MIT\r\npragma solidity ^0.8.0;\r\n\r\nimport \"@openzeppelin/contracts/token/ERC20/IERC20.sol\";\r\nimport \"@openzeppelin/contracts/access/Ownable.sol\";\r\n\r\npragma experimental ABIEncoderV2;\r\n\r\ncontract Ndu is Ownable {\r\n\r\n    uint companyCount;\r\n    // address owner;\r\n    address admin;\r\n    address public registerContract;\r\n    uint public balance;\r\n\r\n    event Scanned(string serialNumber, string companyDetails, string DrugDetails);\r\n    \r\n    constructor()  {\r\n        admin = msg.sender;\r\n    }\r\n\r\n    // function receive() external payable {\r\n    //     balance = msg.value;\r\n    // }\r\n    \r\n    \r\n    // This represents a single Company \r\n    struct Company {\r\n        uint id;\r\n        string Name;\r\n        string ISOnumber;\r\n        string ipfsHashOfCompanyDetails;\r\n    }\r\n\r\n    // This represents a single drug\r\n    struct Drug {\r\n        string ipfsHashOfDrugDetails;\r\n        string[] serialNumbers;\r\n    }\r\n\r\n\r\n\r\n    Company[] public registerdCompanies;\r\n\r\n    // This keeps track of a registered company Id\r\n    mapping(uint => Company) public companyId;\r\n\r\n    \r\n\r\n    // companies variable stores a 'Company' struct for each possible address\r\n    // mapping(address => Company) public companies;\r\n\r\n\r\n\r\n\r\n    // keep track of registered serial\r\n    mapping(string => bool) public storedSerial;\r\n\r\n\r\n    // keep track of products registered by a company\r\n    mapping(string => Company ) public drugProduced;\r\n\r\n    // keep track of Scanned Products\r\n    mapping(string => bool) public serialScanned;\r\n\r\n\r\n    // keep track of drug details\r\n    mapping(string => Drug) public drugDetails;\r\n\r\n    mapping(uint => Drug) public DrugToRegisteredCompanies;\r\n\r\n\r\n    modifier onlyAdmin(){\r\n        require(msg.sender == admin, \"only admin can call\");\r\n        _;\r\n    }\r\n    \r\n\r\n    // struct Peter {\r\n    //     string ipfsHashOfDrugDetails;\r\n    //     string[] serialNumbers;\r\n    // }\r\n\r\n    // mapping (uint=>Peter) private peters;\r\n    \r\n\r\n    function register(uint _id, string memory _name, string memory _isonumber, string memory _ipfsHashOfCompanyDetails ) public {\r\n        require(msg.sender == registerContract, \"Only Register Contract can call\");\r\n        // companies[_callerCompanyAddress] = Company(_id, _name, _isonumber, _ipfsHashOfCompanyDetails);\r\n        companyId[_id] = Company(_id, _name, _isonumber, _ipfsHashOfCompanyDetails);\r\n        registerdCompanies.push(Company(_id, _name, _isonumber, _ipfsHashOfCompanyDetails));\r\n        // registered[_callerCompanyAddress] = true;\r\n    }\r\n\r\n     \r\n\r\n    function registerSerial(uint _id, string[] memory _serialNumbers, string memory _ipfsHashOfDrugDetails) public {\r\n        require(msg.sender == registerContract, \"Only Register Contract can call\");\r\n        // require(registered[_caller], \"company address not registered\");\r\n        // peters[_id].ipfsHashOfDrugDetails = _ipfsHashOfDrugDetails;\r\n        // peters[_id].serialNumbers = _serialNumbers;\r\n        for(uint i = 0; i < _serialNumbers.length; i++) {\r\n            Company storage company = companyId[_id];\r\n            drugProduced[_serialNumbers[i]] = company;\r\n            drugDetails[_serialNumbers[i]] = Drug(_ipfsHashOfDrugDetails, _serialNumbers);\r\n            storedSerial[_serialNumbers[i]] = true;\r\n\r\n        }\r\n        DrugToRegisteredCompanies[_id] = Drug(_ipfsHashOfDrugDetails, _serialNumbers);\r\n        \r\n    }\r\n\r\n\r\n\r\n    function scanProduct(string memory _serialNumber ) public  returns(Company memory, Drug memory)\r\n\r\n        {\r\n            require(storedSerial[_serialNumber], \"serial not registered \");\r\n            require(!serialScanned[_serialNumber], \"drug has been scanned\");\r\n            Company memory company = drugProduced[_serialNumber];\r\n            Drug memory drug = drugDetails[_serialNumber];\r\n            updateStatus(_serialNumber);\r\n\r\n\r\n            emit Scanned(_serialNumber, company.ipfsHashOfCompanyDetails, drug.ipfsHashOfDrugDetails );\r\n\r\n\r\n            return (company, drug);\r\n\r\n                \r\n        }\r\n        \r\n        \r\n        \r\n    function updateStatus(string memory _serialNumber) internal {\r\n        serialScanned[_serialNumber] = true;\r\n    }\r\n    \r\n    function checkStatus(string memory _serialNumber) public view  {\r\n        require(storedSerial[_serialNumber], \"serial not registered \");\r\n        require(!serialScanned[_serialNumber], \"drug has been scanned\");\r\n    }\r\n\r\n    \r\n\r\n    function setAdmin(address _newAdmin) public onlyAdmin {\r\n        admin = _newAdmin;\r\n    }\r\n\r\n    function setRegisterContract(address _registerContract) public onlyAdmin {\r\n        registerContract = _registerContract;\r\n    }\r\n\r\n  \r\n\r\n}\r\n\r\n\r\ncontract Register {\r\n\r\n    IERC20 governanceToken;\r\n    uint public minimumTokenRequired;\r\n    address public admin;\r\n    Ndu public ndu;\r\n    \r\n    // this keeps track of company address registerd\r\n    mapping(address => bool) public registered;\r\n    \r\n    \r\n    \r\n    mapping(address => uint) public companyId;\r\n\r\n    // events\r\n    event companyRegister(address indexed _companyAddress, string _name, string _isonumber, string _ipfsHashOfCompanyDetails );\r\n    event drugRegister(address indexed _sender, string[] _serialNumbers, string ipfsHashOfDrugDetails);\r\n\r\n\r\n\r\n\r\n    constructor(address _governanceToken, address payable _nduContract,  uint _minimumTokenRequired) {\r\n        governanceToken = IERC20(_governanceToken);\r\n        admin = msg.sender;\r\n        ndu = Ndu(_nduContract);\r\n        minimumTokenRequired = _minimumTokenRequired;\r\n    }\r\n\r\n\r\n    modifier onlyAdmin(){\r\n        require(msg.sender == admin, \"only admin can call\");\r\n        _;\r\n    }\r\n\r\n\r\n\r\n\r\n\r\n    function registerCompany( uint256 _id, string memory _name, string memory _isonumber, string memory _ipfsHashOfCompanyDetails ) public  {\r\n        require(governanceToken.balanceOf(msg.sender) >= minimumTokenRequired, \"insufficient balance\");\r\n        governanceToken.transferFrom(msg.sender, admin, minimumTokenRequired);\r\n        \r\n        ndu.register( _id,_name,_isonumber,_ipfsHashOfCompanyDetails);\r\n\r\n        companyId[msg.sender] = _id;\r\n        registered[msg.sender] = true;\r\n\r\n        emit companyRegister(msg.sender, _name, _isonumber, _ipfsHashOfCompanyDetails);\r\n    }\r\n    \r\n\r\n\r\n\r\n\r\n    function registerSerialNumber( string[] memory _serialNumbers, string memory _ipfsHashOfDrugDetails ) public {\r\n        require(registered[msg.sender], \"Caller not registered\");\r\n        uint _id = companyId[msg.sender];\r\n         ndu.registerSerial(_id,_serialNumbers,_ipfsHashOfDrugDetails);\r\n\r\n        emit drugRegister(msg.sender, _serialNumbers, _ipfsHashOfDrugDetails);\r\n    }\r\n\r\n\r\n\r\n    function setMinimumTokenRequired(uint _minimumTokenrequired) public onlyAdmin {\r\n        minimumTokenRequired = _minimumTokenrequired;\r\n    }\r\n}\r\n\r\n\r\n// contract ScanProduct {\r\n//     IERC20 public governanceToken;\r\n//     Ndu public ndu;\r\n//     address public admin;\r\n    \r\n//     constructor(address payable _nduContract, address _governanceToken) {\r\n//         governanceToken = IERC20(_governanceToken);\r\n//         ndu = Ndu(_nduContract);\r\n//         admin = msg.sender;\r\n        \r\n        \r\n//     }\r\n    \r\n//     function Scan(string memory _serialNumber) public {\r\n//         // scan Product\r\n//         ndu.scanProduct(_serialNumber);\r\n//         // update scan status\r\n//         // ndu.updateStatus(_serialNumber);\r\n//     }\r\n// }",
  "sourcePath": "C:\\Users\\CHIDIEBERE-PC\\Desktop\\projects\\Blockchain\\app-for-drug-validation-\\contracts\\Ndu.sol",
  "compiler": {
    "name": "solc",
    "version": "0.8.0+commit.c7dfd78e.Emscripten.clang"
  },
  "schemaVersion": "3.4.3",
  "updatedAt": "2021-11-01T03:50:45.280Z",
  "networkType": "ethereum",
  "devdoc": {
    "kind": "dev",
    "methods": {},
    "version": 1
  },
  "userdoc": {
    "kind": "user",
    "methods": {},
    "version": 1
  }
}