{
  "contractName": "Register",
  "abi": [
    {
      "inputs": [
        {
          "internalType": "address",
          "name": "_governanceToken",
          "type": "address"
        },
        {
          "internalType": "address payable",
          "name": "_nduContract",
          "type": "address"
        },
        {
          "internalType": "uint256",
          "name": "_minimumTokenRequired",
          "type": "uint256"
        }
      ],
      "stateMutability": "nonpayable",
      "type": "constructor"
    },
    {
      "anonymous": false,
      "inputs": [
        {
          "indexed": true,
          "internalType": "address",
          "name": "_companyAddress",
          "type": "address"
        },
        {
          "indexed": false,
          "internalType": "string",
          "name": "_name",
          "type": "string"
        },
        {
          "indexed": false,
          "internalType": "string",
          "name": "_isonumber",
          "type": "string"
        },
        {
          "indexed": false,
          "internalType": "string",
          "name": "_ipfsHashOfCompanyDetails",
          "type": "string"
        }
      ],
      "name": "companyRegister",
      "type": "event"
    },
    {
      "anonymous": false,
      "inputs": [
        {
          "indexed": true,
          "internalType": "address",
          "name": "_sender",
          "type": "address"
        },
        {
          "indexed": true,
          "internalType": "uint256",
          "name": "_serialNumber",
          "type": "uint256"
        },
        {
          "indexed": false,
          "internalType": "string",
          "name": "ipfsHashOfDrugDetails",
          "type": "string"
        }
      ],
      "name": "drugRegister",
      "type": "event"
    },
    {
      "inputs": [],
      "name": "admin",
      "outputs": [
        {
          "internalType": "address",
          "name": "",
          "type": "address"
        }
      ],
      "stateMutability": "view",
      "type": "function",
      "constant": true
    },
    {
      "inputs": [
        {
          "internalType": "address",
          "name": "",
          "type": "address"
        }
      ],
      "name": "companyId",
      "outputs": [
        {
          "internalType": "uint256",
          "name": "",
          "type": "uint256"
        }
      ],
      "stateMutability": "view",
      "type": "function",
      "constant": true
    },
    {
      "inputs": [],
      "name": "minimumTokenRequired",
      "outputs": [
        {
          "internalType": "uint256",
          "name": "",
          "type": "uint256"
        }
      ],
      "stateMutability": "view",
      "type": "function",
      "constant": true
    },
    {
      "inputs": [],
      "name": "ndu",
      "outputs": [
        {
          "internalType": "contract Ndu",
          "name": "",
          "type": "address"
        }
      ],
      "stateMutability": "view",
      "type": "function",
      "constant": true
    },
    {
      "inputs": [
        {
          "internalType": "address",
          "name": "",
          "type": "address"
        }
      ],
      "name": "registered",
      "outputs": [
        {
          "internalType": "bool",
          "name": "",
          "type": "bool"
        }
      ],
      "stateMutability": "view",
      "type": "function",
      "constant": true
    },
    {
      "inputs": [
        {
          "internalType": "uint256",
          "name": "_id",
          "type": "uint256"
        },
        {
          "internalType": "string",
          "name": "_name",
          "type": "string"
        },
        {
          "internalType": "string",
          "name": "_isonumber",
          "type": "string"
        },
        {
          "internalType": "string",
          "name": "_ipfsHashOfCompanyDetails",
          "type": "string"
        }
      ],
      "name": "registerCompany",
      "outputs": [],
      "stateMutability": "nonpayable",
      "type": "function"
    },
    {
      "inputs": [
        {
          "internalType": "uint256",
          "name": "_serialNumber",
          "type": "uint256"
        },
        {
          "internalType": "string",
          "name": "_ipfsHashOfDrugDetails",
          "type": "string"
        }
      ],
      "name": "registerSerialNumber",
      "outputs": [],
      "stateMutability": "nonpayable",
      "type": "function"
    },
    {
      "inputs": [
        {
          "internalType": "uint256",
          "name": "_minimumTokenrequired",
          "type": "uint256"
        }
      ],
      "name": "setMinimumTokenRequired",
      "outputs": [],
      "stateMutability": "nonpayable",
      "type": "function"
    }
  ],
  "bytecode": "0x60806040523480156200001157600080fd5b50604051620011933803806200119383398181016040528101906200003791906200014e565b826000806101000a81548173ffffffffffffffffffffffffffffffffffffffff021916908373ffffffffffffffffffffffffffffffffffffffff16021790555033600260006101000a81548173ffffffffffffffffffffffffffffffffffffffff021916908373ffffffffffffffffffffffffffffffffffffffff16021790555081600360006101000a81548173ffffffffffffffffffffffffffffffffffffffff021916908373ffffffffffffffffffffffffffffffffffffffff1602179055508060018190555050505062000244565b6000815190506200011a81620001f6565b92915050565b600081519050620001318162000210565b92915050565b60008151905062000148816200022a565b92915050565b6000806000606084860312156200016457600080fd5b6000620001748682870162000109565b9350506020620001878682870162000120565b92505060406200019a8682870162000137565b9150509250925092565b6000620001b182620001cc565b9050919050565b6000620001c582620001cc565b9050919050565b600073ffffffffffffffffffffffffffffffffffffffff82169050919050565b6000819050919050565b6200020181620001a4565b81146200020d57600080fd5b50565b6200021b81620001b8565b81146200022757600080fd5b50565b6200023581620001ec565b81146200024157600080fd5b50565b610f3f80620002546000396000f3fe608060405234801561001057600080fd5b50600436106100885760003560e01c8063d3d0b72a1161005b578063d3d0b72a14610115578063de39006814610131578063f21aba1c14610161578063f851a4401461017d57610088565b8063604e64211461008d57806378862113146100ab578063b2dd5c07146100c9578063c2dc1e23146100f9575b600080fd5b61009561019b565b6040516100a29190610bbd565b60405180910390f35b6100b36101c1565b6040516100c09190610ca6565b60405180910390f35b6100e360048036038101906100de9190610878565b6101c7565b6040516100f09190610ba2565b60405180910390f35b610113600480360381019061010e9190610970565b6101e7565b005b61012f600480360381019061012a919061091c565b61052f565b005b61014b60048036038101906101469190610878565b6106e4565b6040516101589190610ca6565b60405180910390f35b61017b600480360381019061017691906108ca565b6106fc565b005b610185610796565b6040516101929190610b50565b60405180910390f35b600360009054906101000a900473ffffffffffffffffffffffffffffffffffffffff1681565b60015481565b60046020528060005260406000206000915054906101000a900460ff1681565b60015460008054906101000a900473ffffffffffffffffffffffffffffffffffffffff1673ffffffffffffffffffffffffffffffffffffffff166370a08231336040518263ffffffff1660e01b81526004016102439190610b50565b60206040518083038186803b15801561025b57600080fd5b505afa15801561026f573d6000803e3d6000fd5b505050506040513d601f19601f8201168201806040525081019061029391906108f3565b10156102d4576040517f08c379a00000000000000000000000000000000000000000000000000000000081526004016102cb90610c86565b60405180910390fd5b60008054906101000a900473ffffffffffffffffffffffffffffffffffffffff1673ffffffffffffffffffffffffffffffffffffffff166323b872dd33600260009054906101000a900473ffffffffffffffffffffffffffffffffffffffff166001546040518463ffffffff1660e01b815260040161035593929190610b6b565b602060405180830381600087803b15801561036f57600080fd5b505af1158015610383573d6000803e3d6000fd5b505050506040513d601f19601f820116820180604052508101906103a791906108a1565b50600360009054906101000a900473ffffffffffffffffffffffffffffffffffffffff1673ffffffffffffffffffffffffffffffffffffffff16633d59a0e2858585856040518563ffffffff1660e01b81526004016104099493929190610cc1565b600060405180830381600087803b15801561042357600080fd5b505af1158015610437573d6000803e3d6000fd5b5050505083600560003373ffffffffffffffffffffffffffffffffffffffff1673ffffffffffffffffffffffffffffffffffffffff168152602001908152602001600020819055506001600460003373ffffffffffffffffffffffffffffffffffffffff1673ffffffffffffffffffffffffffffffffffffffff16815260200190815260200160002060006101000a81548160ff0219169083151502179055503373ffffffffffffffffffffffffffffffffffffffff167f80bc43a6c446477e14ab33da8158b5fd63ef4f3a1200adf3f31fb2a6a6d88cf284848460405161052193929190610bfa565b60405180910390a250505050565b600460003373ffffffffffffffffffffffffffffffffffffffff1673ffffffffffffffffffffffffffffffffffffffff16815260200190815260200160002060009054906101000a900460ff166105bb576040517f08c379a00000000000000000000000000000000000000000000000000000000081526004016105b290610c66565b60405180910390fd5b6000600560003373ffffffffffffffffffffffffffffffffffffffff1673ffffffffffffffffffffffffffffffffffffffff168152602001908152602001600020549050600360009054906101000a900473ffffffffffffffffffffffffffffffffffffffff1673ffffffffffffffffffffffffffffffffffffffff16636c1bea518285856040518463ffffffff1660e01b815260040161065e93929190610d1b565b600060405180830381600087803b15801561067857600080fd5b505af115801561068c573d6000803e3d6000fd5b50505050823373ffffffffffffffffffffffffffffffffffffffff167f455d7e9509a86a3f466726343b7dea30a674e44b63f0894b051ceea130fa967b846040516106d79190610bd8565b60405180910390a3505050565b60056020528060005260406000206000915090505481565b600260009054906101000a900473ffffffffffffffffffffffffffffffffffffffff1673ffffffffffffffffffffffffffffffffffffffff163373ffffffffffffffffffffffffffffffffffffffff161461078c576040517f08c379a000000000000000000000000000000000000000000000000000000000815260040161078390610c46565b60405180910390fd5b8060018190555050565b600260009054906101000a900473ffffffffffffffffffffffffffffffffffffffff1681565b60006107cf6107ca84610d8a565b610d59565b9050828152602081018484840111156107e757600080fd5b6107f2848285610e42565b509392505050565b60008135905061080981610ec4565b92915050565b60008151905061081e81610edb565b92915050565b600082601f83011261083557600080fd5b81356108458482602086016107bc565b91505092915050565b60008135905061085d81610ef2565b92915050565b60008151905061087281610ef2565b92915050565b60006020828403121561088a57600080fd5b6000610898848285016107fa565b91505092915050565b6000602082840312156108b357600080fd5b60006108c18482850161080f565b91505092915050565b6000602082840312156108dc57600080fd5b60006108ea8482850161084e565b91505092915050565b60006020828403121561090557600080fd5b600061091384828501610863565b91505092915050565b6000806040838503121561092f57600080fd5b600061093d8582860161084e565b925050602083013567ffffffffffffffff81111561095a57600080fd5b61096685828601610824565b9150509250929050565b6000806000806080858703121561098657600080fd5b60006109948782880161084e565b945050602085013567ffffffffffffffff8111156109b157600080fd5b6109bd87828801610824565b935050604085013567ffffffffffffffff8111156109da57600080fd5b6109e687828801610824565b925050606085013567ffffffffffffffff811115610a0357600080fd5b610a0f87828801610824565b91505092959194509250565b610a2481610dd6565b82525050565b610a3381610de8565b82525050565b610a4281610e1e565b82525050565b6000610a5382610dba565b610a5d8185610dc5565b9350610a6d818560208601610e51565b610a7681610eb3565b840191505092915050565b6000610a8e601383610dc5565b91507f6f6e6c792061646d696e2063616e2063616c6c000000000000000000000000006000830152602082019050919050565b6000610ace601583610dc5565b91507f43616c6c6572206e6f74207265676973746572656400000000000000000000006000830152602082019050919050565b6000610b0e601483610dc5565b91507f696e73756666696369656e742062616c616e63650000000000000000000000006000830152602082019050919050565b610b4a81610e14565b82525050565b6000602082019050610b656000830184610a1b565b92915050565b6000606082019050610b806000830186610a1b565b610b8d6020830185610a1b565b610b9a6040830184610b41565b949350505050565b6000602082019050610bb76000830184610a2a565b92915050565b6000602082019050610bd26000830184610a39565b92915050565b60006020820190508181036000830152610bf28184610a48565b905092915050565b60006060820190508181036000830152610c148186610a48565b90508181036020830152610c288185610a48565b90508181036040830152610c3c8184610a48565b9050949350505050565b60006020820190508181036000830152610c5f81610a81565b9050919050565b60006020820190508181036000830152610c7f81610ac1565b9050919050565b60006020820190508181036000830152610c9f81610b01565b9050919050565b6000602082019050610cbb6000830184610b41565b92915050565b6000608082019050610cd66000830187610b41565b8181036020830152610ce88186610a48565b90508181036040830152610cfc8185610a48565b90508181036060830152610d108184610a48565b905095945050505050565b6000606082019050610d306000830186610b41565b610d3d6020830185610b41565b8181036040830152610d4f8184610a48565b9050949350505050565b6000604051905081810181811067ffffffffffffffff82111715610d8057610d7f610e84565b5b8060405250919050565b600067ffffffffffffffff821115610da557610da4610e84565b5b601f19601f8301169050602081019050919050565b600081519050919050565b600082825260208201905092915050565b6000610de182610df4565b9050919050565b60008115159050919050565b600073ffffffffffffffffffffffffffffffffffffffff82169050919050565b6000819050919050565b6000610e2982610e30565b9050919050565b6000610e3b82610df4565b9050919050565b82818337600083830152505050565b60005b83811015610e6f578082015181840152602081019050610e54565b83811115610e7e576000848401525b50505050565b7f4e487b7100000000000000000000000000000000000000000000000000000000600052604160045260246000fd5b6000601f19601f8301169050919050565b610ecd81610dd6565b8114610ed857600080fd5b50565b610ee481610de8565b8114610eef57600080fd5b50565b610efb81610e14565b8114610f0657600080fd5b5056fea26469706673582212202b806fabf095358bf49519060e58456f900b7a44f834f562a96f3ba91ebbe21864736f6c63430008000033",
  "immutableReferences": {},
  "source": "// SPDX-License-Identifier: MIT\npragma solidity ^0.8.0;\n\npragma experimental ABIEncoderV2;\n\nimport '@openzeppelin/contracts/token/ERC20/IERC20.sol';\nimport '@openzeppelin/contracts/access/Ownable.sol';\nimport '@openzeppelin/contracts/utils/Context.sol';\n\n\n\ncontract Ndu is Ownable {\n\n    uint companyCount;\n    // address owner;\n    address admin;\n    address public registerContract;\n    uint public balance;\n    \n    receive() external payable {\n        balance = msg.value;\n    }\n    \n    constructor() public {\n        admin = msg.sender;\n    }\n    \n    \n\n\n    // This represents a single Company \n    struct Company {\n        uint id;\n        string Name;\n        string ISOnumber;\n        string ipfsHashOfCompanyDetails;\n    }\n\n    // This represents a single drug\n    struct Drug {\n        string ipfsHashOfDrugDetails;\n    }\n\n\n\n    Company[] public registerdCompanies;\n\n    // This keeps track of a registered company Id\n    mapping(uint => Company) public companyId;\n\n    \n\n    // companies variable stores a 'Company' struct for each possible address\n    // mapping(address => Company) public companies;\n\n\n\n\n    // keep track of registered serial\n    mapping(uint => bool) public storedSerial;\n\n\n    // keep track of products registered by a company\n    mapping(uint => Company ) public drugProduced;\n\n    // keep track of Scanned Products\n    mapping(uint => bool) public serialScanned;\n\n\n    // keep track of drug details\n    mapping(uint => Drug) public drugDetails;\n\n\n    modifier onlyAdmin(){\n        require(msg.sender == admin, \"only admin can call\");\n        _;\n    }\n    \n    \n\n    function register(uint _id, string memory _name, string memory _isonumber, string memory _ipfsHashOfCompanyDetails ) public {\n        require(msg.sender == registerContract, \"Only Register Contract can call\");\n        // companies[_callerCompanyAddress] = Company(_id, _name, _isonumber, _ipfsHashOfCompanyDetails);\n        companyId[_id] = Company(_id, _name, _isonumber, _ipfsHashOfCompanyDetails);\n        registerdCompanies.push(Company(_id, _name, _isonumber, _ipfsHashOfCompanyDetails));\n        // registered[_callerCompanyAddress] = true;\n    }\n\n     \n\n    function registerSerial(uint _id, uint _serialNumber, string memory _ipfsHashOfDrugDetails) public {\n        require(msg.sender == registerContract, \"Only Register Contract can call\");\n        // require(registered[_caller], \"company address not registered\");\n        Company storage company = companyId[_id];\n        drugProduced[_serialNumber] = company;\n        drugDetails[_serialNumber] = Drug(_ipfsHashOfDrugDetails);\n        storedSerial[_serialNumber] = true;\n    }\n\n\n\n    function scanProduct(uint _serialNumber ) public view  returns(Company memory, Drug memory)\n\n        {\n            require(storedSerial[_serialNumber], \"serial not registered \");\n            require(!serialScanned[_serialNumber], \"drug has been scanned\");\n            Company memory company = drugProduced[_serialNumber];\n            Drug memory drug = drugDetails[_serialNumber];\n            \n            return (company, drug) ;\n                \n        }\n        \n        \n        \n    function updateStatus(uint _serialNumber) public {\n        serialScanned[_serialNumber] = true;\n    }\n    \n    function checkStatus(uint _serialNumber) public  {\n        require(storedSerial[_serialNumber], \"serial not registered \");\n        require(!serialScanned[_serialNumber], \"drug has been scanned\");\n    }\n\n    \n\n    function setAdmin(address _newAdmin) public onlyAdmin {\n        admin = _newAdmin;\n    }\n\n    function setRegisterContract(address _registerContract) public onlyAdmin {\n        registerContract = _registerContract;\n    }\n\n  \n\n}\n\n\ncontract Register {\n\n    IERC20 governanceToken;\n    uint public minimumTokenRequired;\n    address public admin;\n    Ndu public ndu;\n    \n    // this keeps track of company address registerd\n    mapping(address => bool) public registered;\n    \n    \n    \n    mapping(address => uint) public companyId;\n\n    // events\n    event companyRegister(address indexed _companyAddress, string _name, string _isonumber, string _ipfsHashOfCompanyDetails );\n    event drugRegister(address indexed _sender, uint indexed _serialNumber, string ipfsHashOfDrugDetails);\n\n\n\n\n    constructor(address _governanceToken, address payable _nduContract,  uint _minimumTokenRequired) public {\n        governanceToken = IERC20(_governanceToken);\n        admin = msg.sender;\n        ndu = Ndu(_nduContract);\n        minimumTokenRequired = _minimumTokenRequired;\n    }\n\n\n    modifier onlyAdmin(){\n        require(msg.sender == admin, \"only admin can call\");\n        _;\n    }\n\n\n\n\n\n    function registerCompany( uint256 _id, string memory _name, string memory _isonumber, string memory _ipfsHashOfCompanyDetails ) public  {\n        require(governanceToken.balanceOf(msg.sender) >= minimumTokenRequired, \"insufficient balance\");\n        governanceToken.transferFrom(msg.sender, admin, minimumTokenRequired);\n        \n        ndu.register( _id,_name,_isonumber,_ipfsHashOfCompanyDetails);\n\n        companyId[msg.sender] = _id;\n        registered[msg.sender] = true;\n\n        emit companyRegister(msg.sender, _name, _isonumber, _ipfsHashOfCompanyDetails);\n    }\n    \n\n\n\n\n    function registerSerialNumber( uint _serialNumber, string memory _ipfsHashOfDrugDetails ) public {\n        require(registered[msg.sender], \"Caller not registered\");\n        uint _id = companyId[msg.sender];\n         ndu.registerSerial(_id,_serialNumber,_ipfsHashOfDrugDetails);\n\n        emit drugRegister(msg.sender, _serialNumber, _ipfsHashOfDrugDetails);\n    }\n\n\n\n    function setMinimumTokenRequired(uint _minimumTokenrequired) public onlyAdmin {\n        minimumTokenRequired = _minimumTokenrequired;\n    }\n}\n\n\n\n\n\n\ncontract ScanProduct {\n    IERC20 public governanceToken;\n    Ndu public ndu;\n    address public admin;\n    \n    constructor(address payable _nduContract, address _governanceToken) public {\n        governanceToken = IERC20(_governanceToken);\n        ndu = Ndu(_nduContract);\n        admin = msg.sender;\n        \n        \n    }\n    \n    function Scan(uint _serialNumber) public {\n        // scan Product\n        ndu.scanProduct(_serialNumber);\n        // update scan status\n        ndu.updateStatus(_serialNumber);\n    }\n}",
  "sourcePath": "/Users/joshuanwankwo/Desktop/project/ndu-web-server/contracts/ndu.sol",
  "compiler": {
    "name": "solc",
    "version": "0.8.0+commit.c7dfd78e.Emscripten.clang"
  },
  "schemaVersion": "3.4.3",
  "updatedAt": "2021-10-23T15:47:12.213Z",
  "networkType": "ethereum",
  "devdoc": {
    "kind": "dev",
    "methods": {},
    "version": 1
  },
  "userdoc": {
    "kind": "user",
    "methods": {},
    "version": 1
  }
}