{
  "contractName": "Register",
  "abi": [
    {
      "inputs": [
        {
          "internalType": "address",
          "name": "_governanceToken",
          "type": "address"
        },
        {
          "internalType": "address payable",
          "name": "_nduContract",
          "type": "address"
        },
        {
          "internalType": "uint256",
          "name": "_minimumTokenRequired",
          "type": "uint256"
        }
      ],
      "stateMutability": "nonpayable",
      "type": "constructor"
    },
    {
      "anonymous": false,
      "inputs": [
        {
          "indexed": true,
          "internalType": "address",
          "name": "_companyAddress",
          "type": "address"
        },
        {
          "indexed": false,
          "internalType": "string",
          "name": "_name",
          "type": "string"
        },
        {
          "indexed": false,
          "internalType": "string",
          "name": "_isonumber",
          "type": "string"
        },
        {
          "indexed": false,
          "internalType": "string",
          "name": "_ipfsHashOfCompanyDetails",
          "type": "string"
        }
      ],
      "name": "companyRegister",
      "type": "event"
    },
    {
      "anonymous": false,
      "inputs": [
        {
          "indexed": true,
          "internalType": "address",
          "name": "_sender",
          "type": "address"
        },
        {
          "indexed": false,
          "internalType": "string[]",
          "name": "_serialNumbers",
          "type": "string[]"
        },
        {
          "indexed": false,
          "internalType": "string",
          "name": "ipfsHashOfDrugDetails",
          "type": "string"
        }
      ],
      "name": "drugRegister",
      "type": "event"
    },
    {
      "inputs": [],
      "name": "admin",
      "outputs": [
        {
          "internalType": "address",
          "name": "",
          "type": "address"
        }
      ],
      "stateMutability": "view",
      "type": "function",
      "constant": true
    },
    {
      "inputs": [
        {
          "internalType": "address",
          "name": "",
          "type": "address"
        }
      ],
      "name": "companyId",
      "outputs": [
        {
          "internalType": "uint256",
          "name": "",
          "type": "uint256"
        }
      ],
      "stateMutability": "view",
      "type": "function",
      "constant": true
    },
    {
      "inputs": [
        {
          "internalType": "address",
          "name": "",
          "type": "address"
        },
        {
          "internalType": "uint256",
          "name": "",
          "type": "uint256"
        }
      ],
      "name": "hashesRegistered",
      "outputs": [
        {
          "internalType": "string",
          "name": "",
          "type": "string"
        }
      ],
      "stateMutability": "view",
      "type": "function",
      "constant": true
    },
    {
      "inputs": [],
      "name": "minimumTokenRequired",
      "outputs": [
        {
          "internalType": "uint256",
          "name": "",
          "type": "uint256"
        }
      ],
      "stateMutability": "view",
      "type": "function",
      "constant": true
    },
    {
      "inputs": [],
      "name": "ndu",
      "outputs": [
        {
          "internalType": "contract Ndu",
          "name": "",
          "type": "address"
        }
      ],
      "stateMutability": "view",
      "type": "function",
      "constant": true
    },
    {
      "inputs": [
        {
          "internalType": "address",
          "name": "",
          "type": "address"
        }
      ],
      "name": "registered",
      "outputs": [
        {
          "internalType": "bool",
          "name": "",
          "type": "bool"
        }
      ],
      "stateMutability": "view",
      "type": "function",
      "constant": true
    },
    {
      "inputs": [
        {
          "internalType": "string",
          "name": "",
          "type": "string"
        },
        {
          "internalType": "uint256",
          "name": "",
          "type": "uint256"
        }
      ],
      "name": "serials",
      "outputs": [
        {
          "internalType": "string",
          "name": "",
          "type": "string"
        }
      ],
      "stateMutability": "view",
      "type": "function",
      "constant": true
    },
    {
      "inputs": [
        {
          "internalType": "string",
          "name": "_name",
          "type": "string"
        },
        {
          "internalType": "string",
          "name": "_isonumber",
          "type": "string"
        },
        {
          "internalType": "string",
          "name": "_ipfsHashOfCompanyDetails",
          "type": "string"
        }
      ],
      "name": "registerCompany",
      "outputs": [],
      "stateMutability": "nonpayable",
      "type": "function"
    },
    {
      "inputs": [
        {
          "internalType": "string[]",
          "name": "_serialNumbers",
          "type": "string[]"
        },
        {
          "internalType": "string",
          "name": "_ipfsHashOfDrugDetails",
          "type": "string"
        }
      ],
      "name": "registerSerialNumber",
      "outputs": [],
      "stateMutability": "nonpayable",
      "type": "function"
    },
    {
      "inputs": [],
      "name": "getAllHashesRegistered",
      "outputs": [
        {
          "internalType": "string[]",
          "name": "",
          "type": "string[]"
        }
      ],
      "stateMutability": "view",
      "type": "function",
      "constant": true
    },
    {
      "inputs": [
        {
          "internalType": "string",
          "name": "_hash",
          "type": "string"
        }
      ],
      "name": "getAllSerials",
      "outputs": [
        {
          "internalType": "string[]",
          "name": "",
          "type": "string[]"
        }
      ],
      "stateMutability": "view",
      "type": "function",
      "constant": true
    },
    {
      "inputs": [
        {
          "internalType": "uint256",
          "name": "_minimumTokenrequired",
          "type": "uint256"
        }
      ],
      "name": "setMinimumTokenRequired",
      "outputs": [],
      "stateMutability": "nonpayable",
      "type": "function"
    }
  ],
  "bytecode": "0x60806040523480156200001157600080fd5b5060405162001a8a38038062001a8a833981810160405281019062000037919062000193565b82600260006101000a81548173ffffffffffffffffffffffffffffffffffffffff021916908373ffffffffffffffffffffffffffffffffffffffff16021790555033600460006101000a81548173ffffffffffffffffffffffffffffffffffffffff021916908373ffffffffffffffffffffffffffffffffffffffff16021790555081600560006101000a81548173ffffffffffffffffffffffffffffffffffffffff021916908373ffffffffffffffffffffffffffffffffffffffff160217905550806003819055506200011860006200013860201b62000bd91760201c565b6200012f60016200013860201b62000bd91760201c565b50505062000289565b6001816000016000828254019250508190555050565b6000815190506200015f816200023b565b92915050565b600081519050620001768162000255565b92915050565b6000815190506200018d816200026f565b92915050565b600080600060608486031215620001a957600080fd5b6000620001b9868287016200014e565b9350506020620001cc8682870162000165565b9250506040620001df868287016200017c565b9150509250925092565b6000620001f68262000211565b9050919050565b60006200020a8262000211565b9050919050565b600073ffffffffffffffffffffffffffffffffffffffff82169050919050565b6000819050919050565b6200024681620001e9565b81146200025257600080fd5b50565b6200026081620001fd565b81146200026c57600080fd5b50565b6200027a8162000231565b81146200028657600080fd5b50565b6117f180620002996000396000f3fe608060405234801561001057600080fd5b50600436106100b45760003560e01c8063b2dd5c0711610071578063b2dd5c07146101a3578063d0a6e86c146101d3578063d0b02074146101ef578063de3900681461020b578063f21aba1c1461023b578063f851a44014610257576100b4565b8063099d8924146100b95780631609831e146100e95780631766826d146101195780631e66e73914610149578063604e6421146101675780637886211314610185575b600080fd5b6100d360048036038101906100ce9190610ebb565b610275565b6040516100e091906113c1565b60405180910390f35b61010360048036038101906100fe9190611064565b61032e565b60405161011091906113c1565b60405180910390f35b610133600480360381019061012e9190610f8c565b6103fd565b6040516101409190611332565b60405180910390f35b6101516104f4565b60405161015e9190611332565b60405180910390f35b61016f61060a565b60405161017c91906113a6565b60405180910390f35b61018d610630565b60405161019a919061146f565b60405180910390f35b6101bd60048036038101906101b89190610e92565b610636565b6040516101ca919061138b565b60405180910390f35b6101ed60048036038101906101e89190610ef7565b610656565b005b61020960048036038101906102049190610fcd565b61088c565b005b61022560048036038101906102209190610e92565b610b01565b604051610232919061146f565b60405180910390f35b610255600480360381019061025091906110b8565b610b19565b005b61025f610bb3565b60405161026c91906112e0565b60405180910390f35b6007602052816000526040600020818154811061029157600080fd5b906000526020600020016000915091505080546102ad906116d5565b80601f01602080910402602001604051908101604052809291908181526020018280546102d9906116d5565b80156103265780601f106102fb57610100808354040283529160200191610326565b820191906000526020600020905b81548152906001019060200180831161030957829003601f168201915b505050505081565b600882805160208101820180518482526020830160208501208183528095505050505050818154811061036057600080fd5b9060005260206000200160009150915050805461037c906116d5565b80601f01602080910402602001604051908101604052809291908181526020018280546103a8906116d5565b80156103f55780601f106103ca576101008083540402835291602001916103f5565b820191906000526020600020905b8154815290600101906020018083116103d857829003601f168201915b505050505081565b606060088260405161040f91906112c9565b9081526020016040518091039020805480602002602001604051908101604052809291908181526020016000905b828210156104e957838290600052602060002001805461045c906116d5565b80601f0160208091040260200160405190810160405280929190818152602001828054610488906116d5565b80156104d55780601f106104aa576101008083540402835291602001916104d5565b820191906000526020600020905b8154815290600101906020018083116104b857829003601f168201915b50505050508152602001906001019061043d565b505050509050919050565b6060600760003373ffffffffffffffffffffffffffffffffffffffff1673ffffffffffffffffffffffffffffffffffffffff168152602001908152602001600020805480602002602001604051908101604052809291908181526020016000905b82821015610601578382906000526020600020018054610574906116d5565b80601f01602080910402602001604051908101604052809291908181526020018280546105a0906116d5565b80156105ed5780601f106105c2576101008083540402835291602001916105ed565b820191906000526020600020905b8154815290600101906020018083116105d057829003601f168201915b505050505081526020019060010190610555565b50505050905090565b600560009054906101000a900473ffffffffffffffffffffffffffffffffffffffff1681565b60035481565b60066020528060005260406000206000915054906101000a900460ff1681565b600660003373ffffffffffffffffffffffffffffffffffffffff1673ffffffffffffffffffffffffffffffffffffffff16815260200190815260200160002060009054906101000a900460ff166106e2576040517f08c379a00000000000000000000000000000000000000000000000000000000081526004016106d99061144f565b60405180910390fd5b60006106ee6000610bef565b9050600560009054906101000a900473ffffffffffffffffffffffffffffffffffffffff1673ffffffffffffffffffffffffffffffffffffffff16639b49cef58285856040518463ffffffff1660e01b815260040161074f9392919061148a565b600060405180830381600087803b15801561076957600080fd5b505af115801561077d573d6000803e3d6000fd5b50505050600760003373ffffffffffffffffffffffffffffffffffffffff1673ffffffffffffffffffffffffffffffffffffffff168152602001908152602001600020829080600181540180825580915050600190039060005260206000200160009091909190915090805190602001906107f9929190610bfd565b508260088360405161080b91906112c9565b9081526020016040518091039020908051906020019061082c929190610c83565b506108376000610bd9565b3373ffffffffffffffffffffffffffffffffffffffff167f6e12654a0983fe02fbc27b073e596ea320953bea3b292e0575fd1bbf74821670848460405161087f929190611354565b60405180910390a2505050565b600260009054906101000a900473ffffffffffffffffffffffffffffffffffffffff1673ffffffffffffffffffffffffffffffffffffffff166323b872dd33600460009054906101000a900473ffffffffffffffffffffffffffffffffffffffff166003546040518463ffffffff1660e01b815260040161090f939291906112fb565b602060405180830381600087803b15801561092957600080fd5b505af115801561093d573d6000803e3d6000fd5b505050506040513d601f19601f820116820180604052508101906109619190610f63565b50600061096e6001610bef565b905080600960003373ffffffffffffffffffffffffffffffffffffffff1673ffffffffffffffffffffffffffffffffffffffff16815260200190815260200160002081905550600560009054906101000a900473ffffffffffffffffffffffffffffffffffffffff1673ffffffffffffffffffffffffffffffffffffffff16633d59a0e2828686866040518563ffffffff1660e01b8152600401610a1594939291906114cf565b600060405180830381600087803b158015610a2f57600080fd5b505af1158015610a43573d6000803e3d6000fd5b505050506001600660003373ffffffffffffffffffffffffffffffffffffffff1673ffffffffffffffffffffffffffffffffffffffff16815260200190815260200160002060006101000a81548160ff021916908315150217905550610aa96001610bd9565b3373ffffffffffffffffffffffffffffffffffffffff167f80bc43a6c446477e14ab33da8158b5fd63ef4f3a1200adf3f31fb2a6a6d88cf2858585604051610af3939291906113e3565b60405180910390a250505050565b60096020528060005260406000206000915090505481565b600460009054906101000a900473ffffffffffffffffffffffffffffffffffffffff1673ffffffffffffffffffffffffffffffffffffffff163373ffffffffffffffffffffffffffffffffffffffff1614610ba9576040517f08c379a0000000000000000000000000000000000000000000000000000000008152600401610ba09061142f565b60405180910390fd5b8060038190555050565b600460009054906101000a900473ffffffffffffffffffffffffffffffffffffffff1681565b6001816000016000828254019250508190555050565b600081600001549050919050565b828054610c09906116d5565b90600052602060002090601f016020900481019282610c2b5760008555610c72565b82601f10610c4457805160ff1916838001178555610c72565b82800160010185558215610c72579182015b82811115610c71578251825591602001919060010190610c56565b5b509050610c7f9190610ce3565b5090565b828054828255906000526020600020908101928215610cd2579160200282015b82811115610cd1578251829080519060200190610cc1929190610bfd565b5091602001919060010190610ca3565b5b509050610cdf9190610d00565b5090565b5b80821115610cfc576000816000905550600101610ce4565b5090565b5b80821115610d205760008181610d179190610d24565b50600101610d01565b5090565b508054610d30906116d5565b6000825580601f10610d425750610d61565b601f016020900490600052602060002090810190610d609190610ce3565b5b50565b6000610d77610d728461155a565b611529565b9050808382526020820190508260005b85811015610db75781358501610d9d8882610e53565b845260208401935060208301925050600181019050610d87565b5050509392505050565b6000610dd4610dcf84611586565b611529565b905082815260208101848484011115610dec57600080fd5b610df7848285611693565b509392505050565b600081359050610e0e81611776565b92915050565b600082601f830112610e2557600080fd5b8135610e35848260208601610d64565b91505092915050565b600081519050610e4d8161178d565b92915050565b600082601f830112610e6457600080fd5b8135610e74848260208601610dc1565b91505092915050565b600081359050610e8c816117a4565b92915050565b600060208284031215610ea457600080fd5b6000610eb284828501610dff565b91505092915050565b60008060408385031215610ece57600080fd5b6000610edc85828601610dff565b9250506020610eed85828601610e7d565b9150509250929050565b60008060408385031215610f0a57600080fd5b600083013567ffffffffffffffff811115610f2457600080fd5b610f3085828601610e14565b925050602083013567ffffffffffffffff811115610f4d57600080fd5b610f5985828601610e53565b9150509250929050565b600060208284031215610f7557600080fd5b6000610f8384828501610e3e565b91505092915050565b600060208284031215610f9e57600080fd5b600082013567ffffffffffffffff811115610fb857600080fd5b610fc484828501610e53565b91505092915050565b600080600060608486031215610fe257600080fd5b600084013567ffffffffffffffff811115610ffc57600080fd5b61100886828701610e53565b935050602084013567ffffffffffffffff81111561102557600080fd5b61103186828701610e53565b925050604084013567ffffffffffffffff81111561104e57600080fd5b61105a86828701610e53565b9150509250925092565b6000806040838503121561107757600080fd5b600083013567ffffffffffffffff81111561109157600080fd5b61109d85828601610e53565b92505060206110ae85828601610e7d565b9150509250929050565b6000602082840312156110ca57600080fd5b60006110d884828501610e7d565b91505092915050565b60006110ed8383611197565b905092915050565b6110fe81611627565b82525050565b600061110f826115c6565b61111981856115e9565b93508360208202850161112b856115b6565b8060005b85811015611167578484038952815161114885826110e1565b9450611153836115dc565b925060208a0199505060018101905061112f565b50829750879550505050505092915050565b61118281611639565b82525050565b6111918161166f565b82525050565b60006111a2826115d1565b6111ac81856115fa565b93506111bc8185602086016116a2565b6111c581611765565b840191505092915050565b60006111db826115d1565b6111e5818561160b565b93506111f58185602086016116a2565b6111fe81611765565b840191505092915050565b6000611214826115d1565b61121e818561161c565b935061122e8185602086016116a2565b80840191505092915050565b600061124760138361160b565b91507f6f6e6c792061646d696e2063616e2063616c6c000000000000000000000000006000830152602082019050919050565b600061128760158361160b565b91507f43616c6c6572206e6f74207265676973746572656400000000000000000000006000830152602082019050919050565b6112c381611665565b82525050565b60006112d58284611209565b915081905092915050565b60006020820190506112f560008301846110f5565b92915050565b600060608201905061131060008301866110f5565b61131d60208301856110f5565b61132a60408301846112ba565b949350505050565b6000602082019050818103600083015261134c8184611104565b905092915050565b6000604082019050818103600083015261136e8185611104565b9050818103602083015261138281846111d0565b90509392505050565b60006020820190506113a06000830184611179565b92915050565b60006020820190506113bb6000830184611188565b92915050565b600060208201905081810360008301526113db81846111d0565b905092915050565b600060608201905081810360008301526113fd81866111d0565b9050818103602083015261141181856111d0565b9050818103604083015261142581846111d0565b9050949350505050565b600060208201905081810360008301526114488161123a565b9050919050565b600060208201905081810360008301526114688161127a565b9050919050565b600060208201905061148460008301846112ba565b92915050565b600060608201905061149f60008301866112ba565b81810360208301526114b18185611104565b905081810360408301526114c581846111d0565b9050949350505050565b60006080820190506114e460008301876112ba565b81810360208301526114f681866111d0565b9050818103604083015261150a81856111d0565b9050818103606083015261151e81846111d0565b905095945050505050565b6000604051905081810181811067ffffffffffffffff821117156115505761154f611736565b5b8060405250919050565b600067ffffffffffffffff82111561157557611574611736565b5b602082029050602081019050919050565b600067ffffffffffffffff8211156115a1576115a0611736565b5b601f19601f8301169050602081019050919050565b6000819050602082019050919050565b600081519050919050565b600081519050919050565b6000602082019050919050565b600082825260208201905092915050565b600082825260208201905092915050565b600082825260208201905092915050565b600081905092915050565b600061163282611645565b9050919050565b60008115159050919050565b600073ffffffffffffffffffffffffffffffffffffffff82169050919050565b6000819050919050565b600061167a82611681565b9050919050565b600061168c82611645565b9050919050565b82818337600083830152505050565b60005b838110156116c05780820151818401526020810190506116a5565b838111156116cf576000848401525b50505050565b600060028204905060018216806116ed57607f821691505b6020821081141561170157611700611707565b5b50919050565b7f4e487b7100000000000000000000000000000000000000000000000000000000600052602260045260246000fd5b7f4e487b7100000000000000000000000000000000000000000000000000000000600052604160045260246000fd5b6000601f19601f8301169050919050565b61177f81611627565b811461178a57600080fd5b50565b61179681611639565b81146117a157600080fd5b50565b6117ad81611665565b81146117b857600080fd5b5056fea26469706673582212203c9ff30004569dc5eb069c36c4d924d6e641e206dcb663c66fe378e18ced81dd64736f6c63430008000033",
  "immutableReferences": {},
  "source": "// SPDX-License-Identifier: MIT\r\npragma solidity ^0.8.0;\r\n\r\nimport \"@openzeppelin/contracts/token/ERC20/IERC20.sol\";\r\nimport \"@openzeppelin/contracts/access/Ownable.sol\";\r\nimport \"@openzeppelin/contracts/utils/Counters.sol\";\r\n\r\npragma experimental ABIEncoderV2;\r\n\r\ncontract Ndu is Ownable {\r\n    uint256 companyCount;\r\n    // address owner;\r\n    address admin;\r\n    address public registerContract;\r\n    uint256 public balance;\r\n\r\n    event Scanned(string serialNumber, string companyDetails, string DrugDetails);\r\n    \r\n    constructor()  {\r\n        admin = msg.sender;\r\n\r\n    }\r\n\r\n    // function receive() external payable {\r\n    //     balance = msg.value;\r\n    // }\r\n    \r\n    \r\n    // This represents a single Company \r\n    struct Company {\r\n        uint256 id;\r\n        string name;\r\n        string isoNumber;\r\n        string ipfsHashOfCompanyDetails;\r\n        uint256 date;\r\n    }\r\n\r\n    // This represents a single drug\r\n    struct Drug {\r\n        uint256 id;\r\n        string ipfsHashOfDrugDetails;\r\n        string[] serialNumbers;\r\n        uint256 date;\r\n    }\r\n\r\n\r\n\r\n    Company[] public registerdCompanies;\r\n\r\n    // This keeps track of a registered company Id\r\n    \r\n    mapping(uint256 => Company) public company;\r\n\r\n    mapping(address => bool) private registered;\r\n\r\n    \r\n\r\n    // companies variable stores a 'Company' struct for each possible address\r\n    // mapping(address => Company) public companies;\r\n\r\n\r\n\r\n\r\n    // keep track of registered serial\r\n    mapping(string => bool) public storedSerial;\r\n\r\n\r\n    // keep track of products registered by a company\r\n    mapping(string => Company ) public drugProduced;\r\n\r\n    // keep track of Scanned Products\r\n    mapping(string => bool) public serialScanned;\r\n\r\n\r\n    // keep track of drug details\r\n    mapping(string => string) public drugDetails;\r\n    mapping(string => string[]) public drugSerials;\r\n\r\n    // mapping(uint256 => Serials) public DrugToRegisteredCompanies;\r\n\r\n    \r\n\r\n\r\n    modifier onlyAdmin(){\r\n        require(msg.sender == admin, \"only admin can call\");\r\n        _;\r\n    }\r\n    \r\n\r\n    \r\n\r\n    function register(uint256 _id, string memory _name, string memory _isonumber, string memory _ipfsHashOfCompanyDetails ) public {\r\n        require(msg.sender == registerContract, \"Only Register Contract can call\");\r\n        company[_id] = Company(_id, _name, _isonumber, _ipfsHashOfCompanyDetails, block.timestamp);\r\n        // registerdCompanies.push(company[_id]);\r\n        registerdCompanies.push(Company(_id, _name, _isonumber, _ipfsHashOfCompanyDetails, block.timestamp));   \r\n    }\r\n\r\n     \r\n\r\n    function registerSerial(uint256 _id, string[] memory _serialNumbers, string memory _ipfsHashOfDrugDetails) public {\r\n        require(msg.sender == registerContract, \"Only Register Contract can call\");\r\n\r\n        Company memory comp = company[_id];\r\n        Drug memory drug =  Drug(_id, _ipfsHashOfDrugDetails, _serialNumbers,  block.timestamp);\r\n        drugSerials[_ipfsHashOfDrugDetails] = _serialNumbers;\r\n\r\n        for(uint256 i = 0; i < _serialNumbers.length; i++) {\r\n            \r\n            drugProduced[_serialNumbers[i]] = comp;\r\n            drugDetails[_serialNumbers[i]] = drug.ipfsHashOfDrugDetails;\r\n            storedSerial[_serialNumbers[i]] = true;\r\n        }\r\n\r\n    }\r\n\r\n\r\n\r\n    function scanProduct(string memory _serialNumber ) public  returns(Company memory, string memory)\r\n\r\n    {\r\n            require(storedSerial[_serialNumber], \"serial not registered \");\r\n            require(!serialScanned[_serialNumber], \"drug has been scanned\");\r\n            Company memory drugCompany = drugProduced[_serialNumber];\r\n            string memory drugIpfsHash = drugDetails[_serialNumber];\r\n            updateStatus(_serialNumber);\r\n\r\n\r\n            emit Scanned(_serialNumber, drugCompany.ipfsHashOfCompanyDetails, drugIpfsHash );\r\n\r\n\r\n            return (drugCompany, drugIpfsHash);\r\n\r\n                \r\n    }\r\n\r\n    // function getSerials(string memory _ipfsHashOfDrugDetails) public view returns(string[] memory) {\r\n\r\n\r\n    // }\r\n        \r\n        \r\n        \r\n    function updateStatus(string memory _serialNumber) internal {\r\n        serialScanned[_serialNumber] = true;\r\n    }\r\n    \r\n    function checkStatus(string memory _serialNumber) public view  {\r\n        require(storedSerial[_serialNumber], \"serial not registered \");\r\n        require(!serialScanned[_serialNumber], \"drug has been scanned\");\r\n    }\r\n\r\n    \r\n\r\n    function setAdmin(address _newAdmin) public onlyAdmin {\r\n        admin = _newAdmin;\r\n    }\r\n\r\n    function setRegisterContract(address _registerContract) public onlyAdmin {\r\n        registerContract = _registerContract;\r\n    }\r\n\r\n  \r\n\r\n}\r\n\r\n\r\ncontract Register {\r\n    using Counters for Counters.Counter;\r\n\r\n    // variables\r\n    Counters.Counter private drugIds;\r\n    Counters.Counter private pharmacyIds;\r\n\r\n    IERC20 nduToken;\r\n    uint256 public minimumTokenRequired;\r\n    address public admin;\r\n    Ndu public ndu;\r\n    \r\n    // this keeps track of company address registerd\r\n    mapping(address => bool) public registered;\r\n\r\n    mapping(address => string[]) public hashesRegistered;\r\n\r\n    mapping(string => string[]) public serials;\r\n    \r\n    \r\n    \r\n    mapping(address => uint256) public companyId;\r\n\r\n    // events\r\n    event companyRegister(address indexed _companyAddress, string _name, string _isonumber, string _ipfsHashOfCompanyDetails );\r\n    event drugRegister(address indexed _sender, string[] _serialNumbers, string ipfsHashOfDrugDetails);\r\n\r\n\r\n\r\n\r\n    constructor(address _governanceToken, address payable _nduContract,  uint256 _minimumTokenRequired) {\r\n        nduToken = IERC20(_governanceToken);\r\n        admin = msg.sender;\r\n        ndu = Ndu(_nduContract);\r\n        minimumTokenRequired = _minimumTokenRequired;\r\n        drugIds.increment();\r\n        pharmacyIds.increment();\r\n    }\r\n\r\n\r\n    modifier onlyAdmin(){\r\n        require(msg.sender == admin, \"only admin can call\");\r\n        _;\r\n    }\r\n\r\n\r\n\r\n\r\n\r\n    function registerCompany(string memory _name, string memory _isonumber, string memory _ipfsHashOfCompanyDetails ) public  {\r\n        // require(nduToken.balanceOf(msg.sender) >= minimumTokenRequired, \"insufficient balance\");\r\n        nduToken.transferFrom(msg.sender, admin, minimumTokenRequired);\r\n\r\n        uint256 newPharmacyId = pharmacyIds.current();\r\n        companyId[msg.sender] = newPharmacyId;\r\n        \r\n        ndu.register(newPharmacyId, _name,_isonumber,_ipfsHashOfCompanyDetails);\r\n\r\n        registered[msg.sender] = true;\r\n        pharmacyIds.increment();\r\n\r\n        emit companyRegister(msg.sender, _name, _isonumber, _ipfsHashOfCompanyDetails);\r\n    }\r\n    \r\n\r\n\r\n\r\n\r\n    function registerSerialNumber(string[] memory _serialNumbers, string memory _ipfsHashOfDrugDetails ) public {\r\n        require(registered[msg.sender], \"Caller not registered\");\r\n\r\n        uint256 newDrugId = drugIds.current();\r\n\r\n         ndu.registerSerial(newDrugId, _serialNumbers,_ipfsHashOfDrugDetails);\r\n\r\n        hashesRegistered[msg.sender].push(_ipfsHashOfDrugDetails);\r\n        serials[_ipfsHashOfDrugDetails] = _serialNumbers;\r\n\r\n        drugIds.increment();\r\n\r\n        emit drugRegister(msg.sender, _serialNumbers, _ipfsHashOfDrugDetails);\r\n    }\r\n\r\n\r\n    function getAllHashesRegistered() public view returns(string[] memory) {\r\n        return hashesRegistered[msg.sender];\r\n    }\r\n\r\n    function getAllSerials(string memory _hash) public view returns(string[] memory) {\r\n        return serials[_hash];\r\n    }\r\n\r\n\r\n\r\n    function setMinimumTokenRequired(uint256 _minimumTokenrequired) public onlyAdmin {\r\n        minimumTokenRequired = _minimumTokenrequired;\r\n    }\r\n}\r\n\r\n\r\n// contract ScanProduct {\r\n//     IERC20 public nduToken;\r\n//     Ndu public ndu;\r\n//     address public admin;\r\n    \r\n//     constructor(address payable _nduContract, address _governanceToken) {\r\n//         nduToken = IERC20(_governanceToken);\r\n//         ndu = Ndu(_nduContract);\r\n//         admin = msg.sender;\r\n        \r\n        \r\n//     }\r\n    \r\n//     function Scan(string memory _serialNumber) public {\r\n//         // scan Product\r\n//         ndu.scanProduct(_serialNumber);\r\n//         // update scan status\r\n//         // ndu.updateStatus(_serialNumber);\r\n//     }\r\n// }",
  "sourcePath": "/mnt/c/Users/chuks/Desktop/Project/test/app-for-drug-validation-/contracts/Ndu.sol",
  "compiler": {
    "name": "solc",
    "version": "0.8.0+commit.c7dfd78e.Emscripten.clang"
  },
  "schemaVersion": "3.4.3",
  "updatedAt": "2021-11-27T12:33:02.151Z",
  "networkType": "ethereum",
  "devdoc": {
    "kind": "dev",
    "methods": {},
    "version": 1
  },
  "userdoc": {
    "kind": "user",
    "methods": {},
    "version": 1
  }
}