{
  "contractName": "ScanProduct",
  "abi": [
    {
      "inputs": [
        {
          "internalType": "address payable",
          "name": "_nduContract",
          "type": "address"
        },
        {
          "internalType": "address",
          "name": "_governanceToken",
          "type": "address"
        }
      ],
      "stateMutability": "nonpayable",
      "type": "constructor"
    },
    {
      "inputs": [],
      "name": "admin",
      "outputs": [
        {
          "internalType": "address",
          "name": "",
          "type": "address"
        }
      ],
      "stateMutability": "view",
      "type": "function"
    },
    {
      "inputs": [],
      "name": "governanceToken",
      "outputs": [
        {
          "internalType": "contract IERC20",
          "name": "",
          "type": "address"
        }
      ],
      "stateMutability": "view",
      "type": "function"
    },
    {
      "inputs": [],
      "name": "ndu",
      "outputs": [
        {
          "internalType": "contract Ndu",
          "name": "",
          "type": "address"
        }
      ],
      "stateMutability": "view",
      "type": "function"
    },
    {
      "inputs": [
        {
          "internalType": "uint256",
          "name": "_serialNumber",
          "type": "uint256"
        }
      ],
      "name": "Scan",
      "outputs": [],
      "stateMutability": "nonpayable",
      "type": "function"
    }
  ],
  "bytecode": "0x608060405234801561001057600080fd5b506040516108ca3803806108ca83398181016040528101906100329190610125565b806000806101000a81548173ffffffffffffffffffffffffffffffffffffffff021916908373ffffffffffffffffffffffffffffffffffffffff16021790555081600160006101000a81548173ffffffffffffffffffffffffffffffffffffffff021916908373ffffffffffffffffffffffffffffffffffffffff16021790555033600260006101000a81548173ffffffffffffffffffffffffffffffffffffffff021916908373ffffffffffffffffffffffffffffffffffffffff16021790555050506101d3565b60008151905061010a816101a5565b92915050565b60008151905061011f816101bc565b92915050565b6000806040838503121561013857600080fd5b600061014685828601610110565b9250506020610157858286016100fb565b9150509250929050565b600061016c82610185565b9050919050565b600061017e82610185565b9050919050565b600073ffffffffffffffffffffffffffffffffffffffff82169050919050565b6101ae81610161565b81146101b957600080fd5b50565b6101c581610173565b81146101d057600080fd5b50565b6106e8806101e26000396000f3fe608060405234801561001057600080fd5b506004361061004c5760003560e01c8063604e642114610051578063a0207bd51461006f578063f851a4401461008b578063f96dae0a146100a9575b600080fd5b6100596100c7565b604051610066919061051e565b60405180910390f35b61008960048036038101906100849190610483565b6100ed565b005b61009361022f565b6040516100a091906104e8565b60405180910390f35b6100b1610255565b6040516100be9190610503565b60405180910390f35b600160009054906101000a900473ffffffffffffffffffffffffffffffffffffffff1681565b600160009054906101000a900473ffffffffffffffffffffffffffffffffffffffff1673ffffffffffffffffffffffffffffffffffffffff1663e23843ac826040518263ffffffff1660e01b81526004016101489190610539565b60006040518083038186803b15801561016057600080fd5b505afa158015610174573d6000803e3d6000fd5b505050506040513d6000823e3d601f19601f8201168201806040525081019061019d9190610417565b5050600160009054906101000a900473ffffffffffffffffffffffffffffffffffffffff1673ffffffffffffffffffffffffffffffffffffffff1663d61e7201826040518263ffffffff1660e01b81526004016101fa9190610539565b600060405180830381600087803b15801561021457600080fd5b505af1158015610228573d6000803e3d6000fd5b5050505050565b600260009054906101000a900473ffffffffffffffffffffffffffffffffffffffff1681565b60008054906101000a900473ffffffffffffffffffffffffffffffffffffffff1681565b600061028c61028784610585565b610554565b9050828152602081018484840111156102a457600080fd5b6102af848285610639565b509392505050565b600082601f8301126102c857600080fd5b81516102d8848260208601610279565b91505092915050565b6000608082840312156102f357600080fd5b6102fd6080610554565b9050600061030d84828501610402565b600083015250602082015167ffffffffffffffff81111561032d57600080fd5b610339848285016102b7565b602083015250604082015167ffffffffffffffff81111561035957600080fd5b610365848285016102b7565b604083015250606082015167ffffffffffffffff81111561038557600080fd5b610391848285016102b7565b60608301525092915050565b6000602082840312156103af57600080fd5b6103b96020610554565b9050600082015167ffffffffffffffff8111156103d557600080fd5b6103e1848285016102b7565b60008301525092915050565b6000813590506103fc8161069b565b92915050565b6000815190506104118161069b565b92915050565b6000806040838503121561042a57600080fd5b600083015167ffffffffffffffff81111561044457600080fd5b610450858286016102e1565b925050602083015167ffffffffffffffff81111561046d57600080fd5b6104798582860161039d565b9150509250929050565b60006020828403121561049557600080fd5b60006104a3848285016103ed565b91505092915050565b6104b5816105b5565b82525050565b6104c4816105f1565b82525050565b6104d381610615565b82525050565b6104e2816105e7565b82525050565b60006020820190506104fd60008301846104ac565b92915050565b600060208201905061051860008301846104bb565b92915050565b600060208201905061053360008301846104ca565b92915050565b600060208201905061054e60008301846104d9565b92915050565b6000604051905081810181811067ffffffffffffffff8211171561057b5761057a61066c565b5b8060405250919050565b600067ffffffffffffffff8211156105a05761059f61066c565b5b601f19601f8301169050602081019050919050565b60006105c0826105c7565b9050919050565b600073ffffffffffffffffffffffffffffffffffffffff82169050919050565b6000819050919050565b60006105fc82610603565b9050919050565b600061060e826105c7565b9050919050565b600061062082610627565b9050919050565b6000610632826105c7565b9050919050565b60005b8381101561065757808201518184015260208101905061063c565b83811115610666576000848401525b50505050565b7f4e487b7100000000000000000000000000000000000000000000000000000000600052604160045260246000fd5b6106a4816105e7565b81146106af57600080fd5b5056fea264697066735822122056811fa73e5a30848b2925105970ce9c5e45c65f2486cc17c34ab91a95252f8e64736f6c63430008000033",
  "immutableReferences": {},
  "source": "// SPDX-License-Identifier: MIT\npragma solidity ^0.8.0;\n\npragma experimental ABIEncoderV2;\n\nimport '@openzeppelin/contracts/token/ERC20/IERC20.sol';\nimport '@openzeppelin/contracts/access/Ownable.sol';\nimport '@openzeppelin/contracts/utils/Context.sol';\n\n\n\ncontract Ndu is Ownable {\n\n    uint companyCount;\n    // address owner;\n    address admin;\n    address public registerContract;\n    uint public balance;\n    \n    receive() external payable {\n        balance = msg.value;\n    }\n    \n    constructor() public {\n        admin = msg.sender;\n    }\n    \n    \n\n\n    // This represents a single Company \n    struct Company {\n        uint id;\n        string Name;\n        string ISOnumber;\n        string ipfsHashOfCompanyDetails;\n    }\n\n    // This represents a single drug\n    struct Drug {\n        string ipfsHashOfDrugDetails;\n    }\n\n\n\n    Company[] public registerdCompanies;\n\n    // This keeps track of a registered company Id\n    mapping(uint => Company) public companyId;\n\n    \n\n    // companies variable stores a 'Company' struct for each possible address\n    // mapping(address => Company) public companies;\n\n\n\n\n    // keep track of registered serial\n    mapping(uint => bool) public storedSerial;\n\n\n    // keep track of products registered by a company\n    mapping(uint => Company ) public drugProduced;\n\n    // keep track of Scanned Products\n    mapping(uint => bool) public serialScanned;\n\n\n    // keep track of drug details\n    mapping(uint => Drug) public drugDetails;\n\n\n    modifier onlyAdmin(){\n        require(msg.sender == admin, \"only admin can call\");\n        _;\n    }\n    \n    \n\n    function register(uint _id, string memory _name, string memory _isonumber, string memory _ipfsHashOfCompanyDetails ) public {\n        require(msg.sender == registerContract, \"Only Register Contract can call\");\n        // companies[_callerCompanyAddress] = Company(_id, _name, _isonumber, _ipfsHashOfCompanyDetails);\n        companyId[_id] = Company(_id, _name, _isonumber, _ipfsHashOfCompanyDetails);\n        registerdCompanies.push(Company(_id, _name, _isonumber, _ipfsHashOfCompanyDetails));\n        // registered[_callerCompanyAddress] = true;\n    }\n\n     \n\n    function registerSerial(uint _id, uint _serialNumber, string memory _ipfsHashOfDrugDetails) public {\n        require(msg.sender == registerContract, \"Only Register Contract can call\");\n        // require(registered[_caller], \"company address not registered\");\n        Company storage company = companyId[_id];\n        drugProduced[_serialNumber] = company;\n        drugDetails[_serialNumber] = Drug(_ipfsHashOfDrugDetails);\n        storedSerial[_serialNumber] = true;\n    }\n\n\n\n    function scanProduct(uint _serialNumber ) public view  returns(Company memory, Drug memory)\n\n        {\n            require(storedSerial[_serialNumber], \"serial not registered \");\n            require(!serialScanned[_serialNumber], \"drug has been scanned\");\n            Company memory company = drugProduced[_serialNumber];\n            Drug memory drug = drugDetails[_serialNumber];\n            \n            return (company, drug) ;\n                \n        }\n        \n        \n        \n    function updateStatus(uint _serialNumber) public {\n        serialScanned[_serialNumber] = true;\n    }\n    \n    function checkStatus(uint _serialNumber) public  {\n        require(storedSerial[_serialNumber], \"serial not registered \");\n        require(!serialScanned[_serialNumber], \"drug has been scanned\");\n    }\n\n    \n\n    function setAdmin(address _newAdmin) public onlyAdmin {\n        admin = _newAdmin;\n    }\n\n    function setRegisterContract(address _registerContract) public onlyAdmin {\n        registerContract = _registerContract;\n    }\n\n  \n\n}\n\n\ncontract Register {\n\n    IERC20 governanceToken;\n    uint public minimumTokenRequired;\n    address public admin;\n    Ndu public ndu;\n    \n    // this keeps track of company address registerd\n    mapping(address => bool) public registered;\n    \n    \n    \n    mapping(address => uint) public companyId;\n\n    // events\n    event companyRegister(address indexed _companyAddress, string _name, string _isonumber, string _ipfsHashOfCompanyDetails );\n    event drugRegister(address indexed _sender, uint indexed _serialNumber, string ipfsHashOfDrugDetails);\n\n\n\n\n    constructor(address _governanceToken, address payable _nduContract,  uint _minimumTokenRequired) public {\n        governanceToken = IERC20(_governanceToken);\n        admin = msg.sender;\n        ndu = Ndu(_nduContract);\n        minimumTokenRequired = _minimumTokenRequired;\n    }\n\n\n    modifier onlyAdmin(){\n        require(msg.sender == admin, \"only admin can call\");\n        _;\n    }\n\n\n\n\n\n    function registerCompany( uint256 _id, string memory _name, string memory _isonumber, string memory _ipfsHashOfCompanyDetails ) public  {\n        require(governanceToken.balanceOf(msg.sender) >= minimumTokenRequired, \"insufficient balance\");\n        governanceToken.transferFrom(msg.sender, admin, minimumTokenRequired);\n        \n        ndu.register( _id,_name,_isonumber,_ipfsHashOfCompanyDetails);\n\n        companyId[msg.sender] = _id;\n        registered[msg.sender] = true;\n\n        emit companyRegister(msg.sender, _name, _isonumber, _ipfsHashOfCompanyDetails);\n    }\n    \n\n\n\n\n    function registerSerialNumber( uint _serialNumber, string memory _ipfsHashOfDrugDetails ) public {\n        require(registered[msg.sender], \"Caller not registered\");\n        uint _id = companyId[msg.sender];\n         ndu.registerSerial(_id,_serialNumber,_ipfsHashOfDrugDetails);\n\n        emit drugRegister(msg.sender, _serialNumber, _ipfsHashOfDrugDetails);\n    }\n\n\n\n    function setMinimumTokenRequired(uint _minimumTokenrequired) public onlyAdmin {\n        minimumTokenRequired = _minimumTokenrequired;\n    }\n}\n\n\n\n\n\n\ncontract ScanProduct {\n    IERC20 public governanceToken;\n    Ndu public ndu;\n    address public admin;\n    \n    constructor(address payable _nduContract, address _governanceToken) public {\n        governanceToken = IERC20(_governanceToken);\n        ndu = Ndu(_nduContract);\n        admin = msg.sender;\n        \n        \n    }\n    \n    function Scan(uint _serialNumber) public {\n        // scan Product\n        ndu.scanProduct(_serialNumber);\n        // update scan status\n        ndu.updateStatus(_serialNumber);\n    }\n}",
  "sourcePath": "/Users/joshuanwankwo/Desktop/project/ndu-web-server/contracts/ndu.sol",
  "compiler": {
    "name": "solc",
    "version": "0.8.0+commit.c7dfd78e.Emscripten.clang"
  },
  "schemaVersion": "3.4.3",
  "updatedAt": "2021-10-23T14:59:12.922Z",
  "devdoc": {
    "kind": "dev",
    "methods": {},
    "version": 1
  },
  "userdoc": {
    "kind": "user",
    "methods": {},
    "version": 1
  }
}